:100000000C9477000C949F000C94770E0C949F0036
:100010000C949F000C949F000C949F000C949F00E4
:100020000C949F000C949F000C949F000C945E0E07
:100030000C949F000C949F000C949F000C949F00C4
:100040000C94A1030C949F000C94A0020C947A02CF
:100050000C949F000C949F000C949F000C949F00A4
:100060000C94EB030C949F0061056705A505B00592
:10007000BD05C905D5056D05770581058B05950578
:100080009B054E0758076A0774077E078507910787
:1000900000000000250028002B00000000002300C5
:1000A00026002900000000080002010000030407E8
:1000B00000000000000000000000000024002700F5
:1000C0002A000102040810204080010204081020C8
:1000D00001020408102004040404040404040202BD
:1000E00002020202030303030303E317EA181124C5
:1000F0001FBECFEFD8E0DEBFCDBF13E0A0E0B1E080
:10010000E2EAF6E302C005900D92A234B107D9F7F6
:1001100026E0A2E4B3E001C01D92AD30B207E1F7E2
:1001200010E0C6E7D0E004C02197FE010E940F1B3B
:10013000C537D107C9F70E9419120C94441B0C94BF
:100140000000FC01918D828D981761F0828DDF0196
:10015000A80FB11D5D968C91928D9F5F9F73928FBA
:1001600090E008958FEF9FEF0895FC01918D828DAF
:10017000981731F0828DE80FF11D858D90E008957C
:100180008FEF9FEF0895FC01918D228D892F90E0D4
:10019000805C9F4F821B91098F739927089587E098
:1001A00094E00E94C30021E0892B09F420E0822F13
:1001B0000895FC01848DDF01A80FB11DA35ABF4F24
:1001C0002C91848D90E001968F739927848FA68956
:1001D000B7892C93A089B1898C9180648C93938D7D
:1001E000848D981306C00288F389E02D80818F7D6D
:1001F00080830895EF92FF920F931F93CF93DF9325
:10020000EC0181E0888F9B8D8C8D981305C0E88967
:10021000F989808185FD24C0F62E0B8D10E00F5FDB
:100220001F4F0F731127E02E8C8DE8120CC00FB6F4
:1002300007FCFACFE889F989808185FFF5CFCE01E7
:100240000E94D900F1CF8B8DFE01E80FF11DE35A1A
:10025000FF4FF0820B8FEA89FB898081806207C0A3
:10026000EE89FF896083E889F989808180648083D1
:1002700081E090E0DF91CF911F910F91FF90EF907F
:100280000895CF93DF93EC01888D8823C9F0EA8924
:10029000FB89808185FD05C0A889B9898C9186FD7F
:1002A0000FC00FB607FCF5CF808185FFF2CFA8897C
:1002B000B9898C9185FFEDCFCE010E94D900E7CF9F
:1002C000DF91CF91089580E090E0892B29F00E9482
:1002D000CF0081110C9400000895833081F028F440
:1002E000813099F08230A1F008958730A9F08830EC
:1002F000B9F08430D1F4809180008F7D03C080916B
:1003000080008F7780938000089584B58F7702C036
:1003100084B58F7D84BD08958091B0008F7703C030
:100320008091B0008F7D8093B00008953FB7F8941E
:1003300080918E0390918F03A0919003B0919103CF
:1003400026B5A89B05C02F3F19F00196A11DB11D30
:100350003FBFBA2FA92F982F8827820F911DA11D6B
:10036000B11DBC01CD0142E0660F771F881F991FA8
:100370004A95D1F7089585ED8093BC008091BC002B
:1003800084FDFCCF1092DC03089540916403262F76
:1003900030E0240F311D21323105DCF42091DC03E3
:1003A0002430C9F4FC0180E090E0861758F43091C5
:1003B00064032191DC01AE5BBC4FA30FB11D2C93F4
:1003C0000196F3CF80916403680F6093640380E02B
:1003D000089581E0089582E008950895E0919503DD
:1003E00080919403E81730F4F0E0EA56FC4F8081E6
:1003F00090E008958FEF9FEF08959091950380917D
:100400009403981750F4E92FF0E0EA56FC4F20814E
:1004100030E09F5F9093950302C02FEF3FEFC9013B
:1004200008958091940390E020919503821B910997
:100430000895CF92DF92EF92FF920F931F93CF9385
:10044000DF937C01262F972F8A018091DD0388237B
:1004500091F0C62FD72F6E01C40ED51ECC15DD0529
:1004600071F06991D701ED91FC910190F081E02D3F
:10047000C7010995F3CF642F822F0E94C501C801DF
:10048000DF91CF911F910F91FF90EF90DF90CF9070
:100490000895CF93DF931F92CDB7DEB76983209184
:1004A000DD032223D1F02091FF03203240F021E030
:1004B00030E0FC013383228380E090E015C080911E
:1004C000DE03E82FF0E0E152FC4F998190838F5FCB
:1004D0008093DE038093FF0305C061E0CE010196A7
:1004E0000E94C50181E090E00F90DF91CF910895C7
:1004F0000E94291B1F920F920FB60F9211242F9367
:100500003F934F935F936F937F938F939F93AF939B
:10051000BF93EF93FF9387E094E00E94D900FF918F
:10052000EF91BF91AF919F918F917F916F915F916B
:100530004F913F912F910F900FBE0F901F901895E4
:100540001F920F920FB60F9211242F938F939F93A8
:10055000EF93FF93E0911704F09118048081E091EC
:100560001D04F0911E0482FD12C090818091200430
:100570008F5F8F7320912104821751F0E091200446
:10058000F0E0E95FFB4F958F8093200401C08081EC
:10059000FF91EF919F918F912F910F900FBE0F9030
:1005A0001F901895CF93DF93282F30E0F901EC5579
:1005B000FF4F8491F901EE53FF4FD491F901EA52B4
:1005C000FF4FC491CC2391F081110E946D01EC2F5B
:1005D000F0E0EE0FFF1FE656FF4FA591B491EC91AE
:1005E000ED2381E090E021F480E002C080E090E023
:1005F000DF91CF9108951F93CF93DF93282F30E0A1
:10060000F901EC55FF4F8491F901EE53FF4FD4915E
:10061000F901EA52FF4FC491CC23C9F0162F811182
:100620000E946D01EC2FF0E0EE0FFF1FE057FF4F2F
:10063000A591B4918FB7F894111105C09C91ED2F3D
:10064000E095E92302C0EC91ED2BEC938FBFDF9195
:10065000CF911F910895CF93DF9390E0FC01EE536B
:10066000FF4F2491FC01EA52FF4F8491882361F1EE
:1006700090E0880F991FFC01E854FF4FC591D49179
:10068000FC01E057FF4FA591B491611109C09FB7DC
:10069000F8948881209582238883EC912E230BC0C7
:1006A000623061F49FB7F8943881822F809583235C
:1006B0008883EC912E2B2C939FBF06C08FB7F894A4
:1006C000E8812E2B28838FBFDF91CF9108958F92E1
:1006D0009F92AF92BF92CF92DF92EF92FF926B0107
:1006E0007C010E9496014B015C01C114D104E1041C
:1006F000F104F1F00E949601DC01CB0188199909FF
:10070000AA09BB09883E9340A105B10570F321E019
:10071000C21AD108E108F10888EE880E83E0981E1D
:10072000A11CB11CC114D104E104F10419F7DDCFFF
:10073000FF90EF90DF90CF90BF90AF909F908F9001
:1007400008951F920F920FB60F9211242F933F938B
:100750008F939F93AF93BF9380918A0390918B0364
:10076000A0918C03B0918D033091890323E0230F76
:100770002D3720F40196A11DB11D05C026E8230FD9
:100780000296A11DB11D2093890380938A03909343
:100790008B03A0938C03B0938D0380918E03909173
:1007A0008F03A0919003B09191030196A11DB11DFB
:1007B00080938E0390938F03A0939003B093910343
:1007C000BF91AF919F918F913F912F910F900FBE4D
:1007D0000F901F9018951F920F920FB60F92112431
:1007E0002F933F934F935F936F937F938F939F9339
:1007F000AF93BF93EF93FF938091B900887F8036CA
:1008000009F49CC068F5883209F45BC090F480312B
:1008100009F454C038F4882309F4F6C0883009F488
:100820004DC0F6C0883109F44CC0803209F45DC077
:10083000EFC0803409F468C048F4803309F455C02F
:10084000883309F0E5C08093DA03D8C0803509F415
:100850004FC0883509F45DC0883409F0D9C0D6C0CE
:10086000883909F4C7C0A8F4883709F467C038F498
:10087000883609F463C0803709F460C0C9C088387D
:1008800009F4B8C0803909F45FC0803809F0C0C0ED
:100890005BC0803B09F486C038F4803A09F466C036
:1008A000883A09F47FC0B4C0803C09F4A7C0883CF2
:1008B00009F4A4C0883B09F48AC0AAC08091B70398
:1008C00010C09091D9038091D803981770F5E091EA
:1008D000D90381E08E0F8093D903F0E0E854FC4FF8
:1008E00080818093BB0085EC86C08093DA038EC044
:1008F000E091D90381E08E0F8093D9038091BB00F2
:10090000F0E0E854FC4F80839091D9038091D803A4
:100910006EC0E091D90381E08E0F8093D90380915E
:10092000BB00F0E0E854FC4F80838091DB03811131
:100930006DC081E08093B60384EA61C083E0809358
:10094000DC0310928803CFCF80918803803208F0B7
:1009500051C0E091880381E08E0F809388038091DD
:10096000BB00F0E0E859FC4F8083BDCF85EC80935D
:10097000BC001092DC0380918803803230F4E09157
:100980008803F0E0E859FC4F10826091880370E022
:10099000E0916603F091670388E693E00995109271
:1009A000880336C084E08093DC03109265031092C4
:1009B0006403E0916203F0916303099580916403FD
:1009C000811105C081E08093640310924203E0919D
:1009D000650381E08E0F80936503F0E0EE5BFC4FD2
:1009E00080818093BB009091650380916403981788
:1009F00008F479CF85E88093BC000AC085EC809329
:100A0000BC001092DC0304C01092DA030E94BB0108
:100A1000FF91EF91BF91AF919F918F917F916F91D6
:100A20005F914F913F912F910F900FBE0F901F90AC
:100A30001895FC0120812EBDDC0131969C01260F0A
:100A4000371FE217F30741F051910DB407FEFDCFB8
:100A50004EB55EBD4D93F5CF61507109FC01E60FB7
:100A6000F71F0DB407FEFDCF8EB5808308958EBDB0
:100A700000000DB407FEFDCF8EB50895682F6068A5
:100A800081E00E94160786E00E94D202892BD9F3EA
:100A90000895CF92DF92EF92FF926115710509F4EC
:100AA000A4C0DB01FC013197ED30F10520F4EC5CD2
:100AB000FF4F0C940F1B69ED86E00E94160766E05D
:100AC00011C069ED86E00E94160763E115C069ED6B
:100AD00086E00E94160760E219C068ED86E00E9479
:100AE000160766EC87E00E9416076BE877C068ED92
:100AF00086E00E94160763ED87E00E94160768E50E
:100B00006DC068ED86E00E94160760EE87E00E94E7
:100B1000160764E263C068ED86E00E9416076CEE7B
:100B200087E00E94160761EF59C068ED86E00E94D9
:100B3000160769EF05C069ED86E00E94160761E6B9
:100B400087E00E9416076EEB49C054968C9154972B
:100B5000882309F44AC0CD90DD90ED90FC9030C020
:100B600054968C915497823008F43FC01496CD90DF
:100B7000DD90ED90FC90179723C054968C9154977C
:100B8000833098F11896CD90DD90ED90FC901B97F6
:100B900017C054968C915497843038F11C96CD90A0
:100BA000DD90ED90FC901F970BC054968C9154975C
:100BB0008530D8F05096CD90DD90ED90FC90539715
:100BC000B7018827992786E00E94160799278F2D5D
:100BD0007E2D6D2D87E00E9416076C2D88E0FF901A
:100BE000EF90DF90CF900C941607FF90EF90DF907E
:100BF000CF900895BF92CF92DF92EF92FF920F9322
:100C00001F93CF93DF931F92CDB7DEB76C01B62E43
:100C10007A0181E029830E943E05F701808191815C
:100C20000E942B07B801F701828193810E94490538
:100C300060E480E40E94160767E283E30E941607DF
:100C40006DE18BE30E9416072981622F606F89E0B6
:100C50000E9416076B2D82E20E9416078EE00E940A
:100C60000308682F8DE00E94160760E08AE00E946A
:100C7000FB0280E80E9437056B2D70E0611571055D
:100C800019F0C6010E94190561E08AE00E94FB028A
:100C900063E881E00E94160784E00E94D202892B5B
:100CA000D9F368E082E10F90DF91CF911F910F910E
:100CB000FF90EF90DF90CF90BF900C941607CF93EA
:100CC000DF93EC0160E081E00E9416076AE070E0CB
:100CD00080E090E00E94670360E881E00E941607D0
:100CE00081E00E943E05BE01675F7F4F80E090E09B
:100CF0000E9449056FEF89E00E94160763E28CE0CD
:100D00000E94160780E090E00E942B0765E28FE1C9
:100D10000E94160760E080E20E94160768E081E208
:100D20000E94160764E389E30E94160760E88EE0DC
:100D30000E94160760E08FE00E94160760E881E0DD
:100D4000DF91CF910C941607FC01908180ED890F03
:100D50008A3038F4990F9056292F220F220F920FC4
:100D600001C090E0818180538A3008F4980F892F68
:100D70000895382F2091FF0390910C06213208F03E
:100D800049C08091DC038111FCCF42E04093DC0339
:100D90003093DB033FEF3093DA031092D9032093B3
:100DA000D803AFEDB3E048EB53E0FA013E2F341B1C
:100DB000321718F43D913193F9CF1092B703209177
:100DC000B703990F922B9093B7039091B60391308C
:100DD00061F41092B6039091B7039093BB00909189
:100DE000BC0093FDF8CF95EC01C095EE9093BC004C
:100DF0009091DC039230E1F39091DA039F3F79F018
:100E00008091DA03803241F08091DA03803331F04F
:100E100084E005C081E003C082E001C083E010925D
:100E2000DE031092FF031092DD030895CF93DF934A
:100E3000D82FC62F60E08AE00E94FB028D2F8068C9
:100E40000E9437058C2F0E94370561E08AE0DF9110
:100E5000CF910C94FB02CF9383309105C1F13CF408
:100E600081309105C1F082309105F9F009C08530DB
:100E7000910509F440C0ACF18730910509F44EC0EA
:100E8000FC013197E730F10508F05DC0EF5BFF4FE3
:100E900064EF0C940F1B6FE0C0E001C0C1E08FE174
:100EA0000E9416076C2F646C09C06FE1C0E001C09E
:100EB000C1E08FE10E9416076C2F646B8EE10E94E7
:100EC000160762E78DE10E9416076CE038C06EE3FA
:100ED000C0E001C0C1E08FE10E9416076C2F646A78
:100EE00018C06DE7C0E001C0C1E08FE10E941607A5
:100EF0006C2F64690EC068EEC3E001C0C1E08FE1F1
:100F00000E9416076C2F646804C08FE10E941607C8
:100F100065E78EE10E94160762E70DC068EEC3E048
:100F200001C0C1E08FE10E9416076C2F64678EE15B
:100F30000E94160762E88DE10E94160764E086E2CF
:100F4000CF910C941607CF910895009769F0FC019A
:100F500001900020E9F73197AF01481B590BBC0104
:100F600087E094E00C94860E80E090E00895E09194
:100F70000704F09108040190F081E02D682F87E0CC
:100F800094E009948F929F92AF92BF920F931F9318
:100F9000CF93DF93CDB7DEB7A1970FB6F894DEBF3E
:100FA0000FBECDBF19A2423008F44AE08E010F5D9A
:100FB0001F4F842E912CA12CB12CA50194010E94CD
:100FC0008F19E62FB901CA0101501109EA3014F452
:100FD000E05D01C0E95CD801EC93232B242B252B89
:100FE00061F7C8010E94A507A1960FB6F894DEBF6D
:100FF0000FBECDBFDF91CF911F910F91BF90AF90EA
:101000009F908F900895CF93C82F60E08AE00E9450
:10101000FB028C2F0E94370580E00E943705C82F05
:1010200061E08AE00E94FB028C2FCF910895CF935C
:10103000DF93682F70E080E090E04AE00E94C207F2
:10104000EC018EE992E00E94A5078C0F9D1FDF91B5
:10105000CF910895CF93DF93C0E0D4E06A8170E030
:1010600080E090E04AE00E94C2078AE30E94B7074E
:10107000698170E080E090E04AE00E94C2078AE364
:101080000E94B707688170E080E090E04AE00E942B
:10109000C2078EEC92E00E94A5076E8170E080E0AE
:1010A00090E04AE00E94C20789E00E94B7076B8186
:1010B00070E080E090E04AE00E94C2078FE20E9468
:1010C000B7076C8170E080E090E04AE00E94C207C0
:1010D0008FE20E94B7078D81DF91CF910C941708A2
:1010E000CF9391E09093DD039FE690930C061092CE
:1010F000DE031092FF03682F84EA94E00E94490205
:1011000081E00E94B9068091DC038111FCCF81E06F
:101110008093DC038093DB039FEF9093DA031092BC
:10112000D9031092D8038093B7038091B7038E6DD3
:101130008093B7038091B603813061F41092B603B7
:101140008091B7038093BB008091BC0083FDF8CFF2
:1011500085EC01C085EE8093BC008091DC0381307A
:10116000E1F38091D903811103C08091D90301C0BB
:1011700081E0A8EBB3E026E933E0F9019E2F921B52
:10118000981718F49D919193F9CF1092950380933D
:10119000940384EA94E00E94FD01C82F81E00E943C
:1011A000B9068C2FCF910895CF93DF9380E00E94F2
:1011B0007008C0E0D4E0982F907796959695969514
:1011C000292F220F220F920F8F70890F888381E0C1
:1011D0000E947008982F9077969596959695292F4E
:1011E000220F220F920F8F70890F898382E00E9455
:1011F000700884FB992790F9990F292F220F220F4D
:10120000920F8F70890F8A8383E00E947008877025
:101210008E8384E00E947008982F9073969596951F
:101220009695292F220F220F920F8F70890F8B8393
:1012300085E00E94700884FB992790F9990F292F67
:10124000220F220F920F8F70890F8C8386E00E94ED
:101250007008982F907F969596959695292F220F36
:10126000220F920F8F70890F8D83DF91CF91089598
:10127000CF93C62F91E09093DD039FE690930C06E9
:101280001092DE031092FF03682F84EA94E00E941C
:1012900049026C2F84EA94E00E94490281E0CF91D8
:1012A0000C94B906FC019C01205F3F4FDB018D913E
:1012B000BD01908189278193E217F307B9F708955B
:1012C000FC0120E02F3031F09181892F881F882781
:1012D000881F01C080E09081990F980F91932F5F34
:1012E000203181F70895EF92FF921F93CF93DF9300
:1012F00000D000D0CDB7DEB7DB0191E02BE181302B
:1013000041F0392F3078990F303809F49227815005
:10131000F6CF1D96EC911D978E2F8F70E295EF7092
:1013200020E1E29FF0011124E80FF11DE95AFE4F80
:1013300080811E96EC911E972E2F2F70E295EF70F4
:1013400030E1E39FF0011124E20FF11DE95AFE4F55
:1013500020812A831F96EC911F972E2F2F70E295E4
:10136000EF7030E1E39FF0011124E20FF11DE95A23
:10137000FE4F20812B831C96EC911C972E2F2F70F3
:10138000E295EF7030E1E39FF0011124E20FF11DCF
:10139000E95AFE4F20812C839827998320E030E082
:1013A000BE016F5F7F4F54E0560FF901EE0FFF1F34
:1013B000EE0FFF1F7F01EA0EFB1ECB01FC01108127
:1013C000F7014081412741937F01FC014193CF0107
:1013D0005E13F4CF2F5F3F4F2430310531F70F906C
:1013E0000F900F900F90DF91CF911F91FF90EF9092
:1013F0000895CF93DF93EC0120E030E0DB01A20FF2
:10140000B31FF901EE0FFF1FEE0FFF1FEC0FFD1FC3
:1014100090E041918C9148274C939F5F14969430B3
:10142000C1F72F5F3F4F2430310541F7DF91CF9156
:101430000895482F862F6AE00E94EF1A50E1859F99
:1014400090011124842F8223892B0895CF93C82FD4
:1014500081E00E947008682F6F709C2FCC3308F0D9
:101460009BE3262F290F682F607766956695669512
:10147000962F990F990F690F620F6C3308F06B5319
:1014800080E70E94190A682F8BE00E9438098DE0DE
:101490000E9470088770682F60618DE0CF910C9476
:1014A000380961E082E00E942B0360E082E00E9444
:1014B000FB028BE391E00197F1F760E082E00E948C
:1014C0002B0383E090E00197F1F7089561E082E05B
:1014D0000E942B0360E082E00E94FB0283E090E028
:1014E0000197F1F760E082E00E942B038BE391E02B
:1014F0000197F1F708954F925F927F928F929F929A
:10150000AF92BF92CF92DF92EF92FF920F931F9311
:10151000CF93DF93CDB7DEB7A9970FB6F894DEBFB0
:101520000FBECDBF6C0180E090E08E010F5F1F4FBA
:10153000DC01AA0FBB1FAA0FBB1FAC0DBD1D20E015
:1015400030E0FD90A901480F591F400F511FFA01CB
:10155000F0822C5F3F4F2031310599F7019684309E
:10156000910531F780E1FB01DE01519601900D926A
:101570008A95E1F7B801CE0141960E94F90921E070
:1015800034E0932E900E4BE1842E7801C801702E2A
:10159000DC0130E0EC914E2F4F70E295EF7050E19E
:1015A000E59FF0011124E40FF11DE95AFE4F40813F
:1015B0004C933F5F1496343069F701969812E8CF48
:1015C0008D819E819D839F819E8398859F8388873F
:1015D00089859B8599878B878A859C859A878C8747
:1015E00088899F85988B9E859F879D859E878D87FF
:1015F000CE010D962801BE016B5D7F4FFE01B196B5
:1016000040E050E05201A40EB51ED501BC90DB01B4
:10161000BD92BD013B2D330FB7FC382530834C5FA5
:101620005F4F31964031510569F76EA149A14627B8
:101630007FA1B8A43AA137273B25532F5427F201A5
:1016400051932F01ADA05BA1FC0138973A253527B6
:1016500030833CA134966B256A2556275327508347
:101660007A2537274327DC014D93CD019410C3CF52
:10167000BE016F5E7F4F822F29A70E947309B801B8
:10168000CE0141960E94F90929A52F5F2A3009F061
:101690007CCF94E0970DD70180E0EC912E2F2F7036
:1016A000E295EF7030E1E39FF0011124E20FF11DAC
:1016B000E95AFE4F20812C938F5F1496843069F78E
:1016C0005FEFE51AF50A9E11E6CF8D819E819D831D
:1016D0009F819E8398859F83888789859B8599872D
:1016E0008B878A859C859A878C8788899F85988B2C
:1016F0009E859F879D859E878D87BE016F5E7F4FEC
:101700008AE00E947309B801CE0141960E94F9094E
:1017100080E090E0FC01EE0FFF1FEE0FFF1FEC0DCD
:10172000FD1D20E030E0D901A80FB91FA00FB11FA7
:101730004C9141932C5F3F4F20313105A1F7019629
:101740008430910539F7A9960FB6F894DEBF0FBE25
:10175000CDBFDF91CF911F910F91FF90EF90DF9060
:10176000CF90BF90AF909F908F907F905F904F9061
:1017700008952F923F924F925F926F927F928F9235
:101780009F92AF92BF92CF92DF92EF92FF920F9310
:101790001F93CF93DF93CDB7DEB7C554D1090FB6F2
:1017A000F894DEBF0FBECDBF4C013A0123963FAF88
:1017B0002EAF239780E17E0191E3E90EF11CD70162
:1017C000E82F1D92EA95E9F75E01F1E2AF0EB11C38
:1017D000D501E82F1D92EA95E9F76E01F1E1CF0EF0
:1017E000D11CD601E82F1D92EA95E9F78E010F5F13
:1017F0001F4FD8011D928A95E9F7262E22942FE0DB
:101800002222262F2F7009F02394B301C7012696B8
:101810002FAF26970E947B0A59A8C7010E94600932
:1018200026962FAD269757FE08C021969FAD21978B
:1018300087E8892721968FAF2197D501F70180E1AD
:101840008E0D91919D938E13FCCF59A0C5012696C4
:101850002FAF26970E94600926962FAD269757FE38
:1018600004C098A987E8892788AB30E0312CB1E023
:101870002B1A310840E1400FE32FF0E0E215F305A9
:1018800084F594E0EE0FFF1F9A95E1F7E80DF91D3E
:101890002801D80181918D934A13FCCFB601C8016C
:1018A00026962FAF269724963FAF249725964FAFC5
:1018B00025970E945209B301C8010E947B0AF601D4
:1018C00025964FAD259724963FAD249726962FADAC
:1018D0002697D2018D912D0181934A13FACF3F5F54
:1018E000CBCF84E0220C331C8A95E1F721110CC088
:1018F000D401A20DB31DF80180E1800F9D91919359
:101900008E13FCCFB7011FC0F80180E090E0A80162
:10191000420F511D60E8382F821738F4DC01A20D08
:10192000B31DA80DB91D7C917083321303C0DA0179
:101930006C9303C0231708F410820196319680310E
:10194000910549F7B501C8010E945209B601C801C5
:101950000E945209B301C8010E947B0A8981239623
:10196000EEADFFAD2397818F8A81828F8B81838F2C
:101970008C81848FCB5BDF4F0FB6F894DEBF0FBE38
:10198000CDBFDF91CF911F910F91FF90EF90DF902E
:10199000CF90BF90AF909F908F907F906F905F900F
:1019A0004F903F902F900895CF92DF92EF92FF9249
:1019B0000F931F93CF93DF93CDB7DEB7C056D109F6
:1019C0000FB6F894DEBF0FBECDBF092FD90199E441
:1019D00062969FAF629763961FAE639764961FAE41
:1019E000649765961FAE659766961FAE66972D91B4
:1019F0003C9111972038310519F02034310521F43C
:101A000067961FAE679704C091E067969FAF679790
:101A100015969C91159768969FAF689714969C9120
:101A2000149769969FAF699713969C9113976A963E
:101A30009FAF6A9712969C9112976B969FAF6B9788
:101A400017962C91179718969C9118976C962FAF14
:101A50006C976D969FAF6D976E961FAE6E976F9653
:101A60001FAE6F97A0961FAEA097A1966FAFA197DC
:101A70009E012F5F3F4FFE01EF5AFF4F6F01722F04
:101A8000932F10E11E0FF601F1906F01F901F19211
:101A90009F011C11F8CF182F9E012F5E3F4FE82E9B
:101AA000F02E8E2D811B861738F4F70181917F016E
:101AB000F90181939F01F5CF605F9D01872F0E94FF
:101AC000B90BC05ADF4F0FB6F894DEBF0FBECDBFC3
:101AD000DF91CF911F910F91FF90EF90DF90CF900A
:101AE00008952F923F924F925F926F927F928F92C2
:101AF0009F92AF92BF92CF92DF92EF92FF920F939D
:101B00001F93CF93DF93CDB7DEB761970FB6F894ED
:101B1000DEBF0FBECDBF8901009709F470C041152B
:101B2000510509F46CC0662309F469C0232B09F43C
:101B300066C0562E52942FE05222362F3F7009F085
:101B400053945A017C01612C712C412C3324339421
:101B5000CE0101966C01852C912C91E0891A910897
:101B600080E1282E2C0C451409F449C039821A82D0
:101B70001B821C821D82F801808191818038910531
:101B800019F08034910511F41E8201C03E82F801E3
:101B900085818F83848188878381898782818A87F1
:101BA000978180859B878C871D861E861F86439420
:101BB000488AB501C601398B0E947B0A39896814AD
:101BC000790449F0D701F60181919C9189278D9381
:101BD0002E12FACF0DC0311101C030E1D701F6014C
:101BE00081919C9189278D938E2F8C198317C0F337
:101BF000FFEF6F1A7F0A80E1E80EF11CB4CF619607
:101C00000FB6F894DEBF0FBECDBFDF91CF911F910D
:101C10000F91FF90EF90DF90CF90BF90AF909F908B
:101C20008F907F906F905F904F903F902F9008958E
:101C3000EF92FF920F931F93CF93DF93162F072FEF
:101C4000F42E0E94A50787E094E00E9441016F2DC9
:101C500070E080E090E04AE00E94C20784ED92E0EC
:101C60000E94A507E12EC12FD02F8C2F8E198F1522
:101C7000D8F48E01699162956F7070E080E090E019
:101C800040E10E94C207F80160816F7070E080E05F
:101C900090E040E10E94C20780E20E94B70787E01F
:101CA00094E00E944101E1CF8EE992E0DF91CF9173
:101CB0001F910F91FF90EF900C94A5071F920F9228
:101CC0000FB60F9211248F939F93EF93FF93E4EB42
:101CD000F4E087819085019690878783FF91EF914B
:101CE0009F918F910F900FBE0F901F9018951F928C
:101CF0000F920FB60F9211248F9381E0809392037D
:101D00008F910F900FBE0F901F901895CF92DF927A
:101D1000EF92FF920F931F93CF93DF936C017A01A1
:101D20008B01C0E0D0E0CE15DF0589F0D8016D91C0
:101D30008D01D601ED91FC910190F081E02DC6015D
:101D40000995892B11F47E0102C02196ECCFC701C1
:101D5000DF91CF911F910F91FF90EF90DF90CF9087
:101D600008957F928F929F92AF92BF92CF92DF920F
:101D7000EF92FF920F931F93CF93DF93CDB7DEB710
:101D8000C154D1090FB6F894DEBF0FBECDBFE090AD
:101D9000B204F090B304E114F10409F40FC36C0130
:101DA000D7018D919C91892B51F560E080E40E94D0
:101DB000160767E683E30E94160769E18BE30E943A
:101DC0001607F601808191810E942B07B701675F9A
:101DD0007F4FD60112968D919C9113970E944905D1
:101DE00086E00E943E0584E00E94D202892B09F021
:101DF000EEC285E00E94D202892BA9F3E8C281E0FD
:101E00000E943E05E091B204F091B304EE5EFE4FF5
:101E10008DE090E091838083E090B204F090B30471
:101E2000BEEEEB1ABEEFFB0AF701808191810D97A0
:101E300009F05DC082E10E94030885FF04C052E002
:101E4000A52EB12C03C0AA24A394B12C80E10E943A
:101E50000308682F83E122966FAF22970E94030840
:101E6000182F22966FAD22978DE00E94160760E032
:101E70008AE00E94FB0280E00E943705612F70E03B
:101E80006115710521F0CE0101960E94190561E0EE
:101E90008AE00E94FB0260EE82E10E941607D701F1
:101EA000AD92BC92E090B204F090B304F70180814F
:101EB00091810197E1F460E080E40E94160767E6F3
:101EC00083E30E94160769E18BE30E941607D6019F
:101ED0008D919C910E942B07B701675F7F4FF601A0
:101EE000828193810E94490585E00E943E0560EE53
:101EF00082E10E94160760E881E00E941607409187
:101F0000B2045091B304FA01EE5EFE4F80819181DC
:101F1000019709F056C289819A012D503F4F682FD1
:101F200070E0D9016D937C93803609F4AEC130F432
:101F3000803259F0803409F034C2A7C1803809F4E6
:101F4000A4C1803A09F02DC2A0C1E12EF12CB1E06C
:101F5000EB1AF10834E0F594E7943A95E1F700E0E4
:101F6000802F90E0E091B204F091B3048E159F05AC
:101F70009CF4BF0163597F4F24E0880F991F2A9575
:101F8000E1F70196E1E0F0E0EC0FFD1F8E0F9F1FDF
:101F90000E947B0A0F5FE4CF0CEFD02ED10E9F0181
:101FA0002D503F4FAF0143595F4F6D2DCE0101962C
:101FB0000E94B90B0091B2041091B304ED2CF12CE6
:101FC000B801645F7E4F44E050E081E090E08C0F08
:101FD0009D1F8E0D9F1D0E942E1B892B09F0F4C1A1
:101FE000F801EE5EFE4FA3E0AA2EB12CB182A082D2
:101FF000EA81D801A158BF4FEC937B8111967C9365
:102000006C8111966C935D8111965C934E81119653
:102010004C939F8111969C93DF9788858C931197A1
:1020200089858C9311978A858C9311978B858C93D6
:102030008C85282F207730E0B4E035952795BA9528
:10204000E1F7D8015E962C935E978F705F968C9324
:102050005F978D8590968C93909781E092968C9364
:1020600092979396EC93939794967C9394979596E6
:102070006C93959796965C93969797964C939797B3
:1020800098969C939897F801E358FF4F8081F80148
:1020900081A7E258FF4F80819A968C939A979B96DE
:1020A0001C929B979C961C929C979D961C929D9728
:1020B0009E961C929E979F961C929F97D0961C92DC
:1020C000D097D1961C92D197C8018296D29620E1E2
:1020D000FC0101900D922A95E1F722E0F80122AB74
:1020E000B80163597F4F0E947B0A8091B20490919E
:1020F000B304BC0163597F4FC2960E947B0A809152
:10210000B2049091B304FC01E85BFF4F118210828E
:10211000329711821082FDE0FD1590F16091B204BA
:102120007091B3046E5B7F4F44E08DED92E00E94AE
:10213000180E6091B2047091B3046E5D7F4F40E160
:102140008EEE92E00E94180E6091B2047091B3047A
:102150006E5C7F4F40E184E093E00E94180E809116
:10216000B2049091B304FC01EC5EFE4F1082EF5874
:10217000F10921E02083E357FF4F8CE090E013C189
:102180004D2DBE016F5F7F4F8EE193E00E94180ED0
:10219000C7010E97B5010E94FB1AF62E25E02617FF
:1021A00010F4F5E0FF2E84E393E00E94A5078EE98A
:1021B00092E00E94A5078E01005F1F4FE12CEF14F3
:1021C00009F4ACCFD8012C91822F90E0A0E0B0E0D0
:1021D000BC0155274427F80132978081482B31965E
:1021E00080819A01AB01382BA4E6B0E00E947C19F3
:1021F0004B015C01DC01CB01815C9E45AD4AB343E0
:102200008F339244AF40B105E0F5C090B204D09056
:10221000B304D6015D967C90B5E0B71590F18BE3E1
:1022200093E00E94A5074AE0C501B4010E94C207DD
:1022300089E00E94B707C501B4010E94611A27ED29
:1022400033E244E752E40E94C0190E94321A4B0163
:102250005C014AE00E94C2078EE992E00E94A50755
:10226000F60124E0729EE00DF11D11248186928614
:10227000A386B486E091B204F091B304858D8F5F9C
:10228000858FE3940D5F1F4F9ACFFA01EB50FF4FFC
:102290008D81808331968C81808331968B81808380
:1022A00031968A81808331968E81808331968885AC
:1022B00090E0982F88276F81862B918380837CEF15
:1022C000F72EF10E4E5D5F4F6F2DCE0101960E94ED
:1022D000D40C0091B2041091B304B801645F7E4F36
:1022E00044E050E081E090E08C0F9D1F8F0D911D28
:1022F0000E942E1B892B31F0F801EE5EFE4F85E027
:1023000090E011C044E050E0B8016E5B7F4FC8011F
:102310008B509F4F0E942E1BF801892B39F0EE5EE7
:10232000FE4F87E090E0918380836EC0E750FF4FBF
:1023300090819F7088E0890FF81651F1E9843396F7
:10234000E0828F2D891B27EFF22EF80E7896F0820F
:1023500068013BEEC31A3EEFD30A4F2D50E0975F62
:1023600061E070E06C0F7D1F690F711DC6010E9456
:102370003B1B98012D503F4FA801E11003C04E5D5B
:102380005F4F02C04E5C5F4F6F2DC6010E94710D02
:10239000E091B204F091B304EE5EFE4F8BE090E06A
:1023A00002C088E090E091838083E091B204F091D4
:1023B000B304EE5EFE4F8081918126C08FE090E0F5
:1023C00023C082E090E020C084E090E01DC085E062
:1023D0000E94D2020197A9F460EE82E10E941607E2
:1023E00079E0A72EB12C84E00E94D202019719F463
:1023F0006DE0A62EB12CF701EE5EFE4FB182A082F9
:102400000BCDA12CB12CEFCFCF5BDF4F0FB6F894E3
:10241000DEBF0FBECDBFDF91CF911F910F91FF9017
:10242000EF90DF90CF90BF90AF909F908F907F9074
:102430000895CF93DF93CDB7DEB7CA54D1090FB655
:10244000F894DEBF0FBECDBF789484B5826084BDA2
:1024500084B5816084BD85B5826085BD85B58160A8
:1024600085BD80916E00816080936E001092810026
:1024700080918100826080938100809181008160E1
:1024800080938100809180008160809380008091A2
:10249000B10084608093B1008091B000816080932E
:1024A000B00080917A00846080937A0080917A00F5
:1024B000826080937A0080917A00816080937A00B4
:1024C00080917A00806880937A001092C100E09138
:1024D0001704F091180482E08083E0911304F091D6
:1024E00014041082E0911504F09116048FEC80839F
:1024F00010921F04E0911B04F0911C0486E080837D
:10250000E0911904F0911A04808180618083E09148
:102510001904F0911A04808188608083E091190485
:10252000F0911A04808180688083E0911904F09111
:102530001A0480818F7D80831FB7F8948091930364
:10254000811127C0E0EEF0E08491ECECF0E0949192
:10255000E82FF0E0EE0FFF1FE854FF4FA591B49174
:10256000EC91E92321F461E08AE00E94FB0261E042
:102570008AE00E942B038CB580618CBD8CB5806491
:102580008CBD61E08DE00E942B0361E08BE00E9436
:102590002B03809193038F5F809393031FBF80E58C
:1025A0008CBD1DBC61E084E10E942B0361E085E1EC
:1025B0000E942B0361E082E00E942B0361E08EE029
:1025C0000E942B0360E083E00E942B0360E084E024
:1025D0000E942B0360E085E00E942B0360E086E010
:1025E0000E942B0360E087E00E942B0361E08AE0F9
:1025F0000E942B0361E088E00E942B0361E089E0E8
:102600000E942B0360E082E00E94FB0261E088E010
:102610000E94FB0261E08EE00E94FB0210926C00BF
:102620001092680068EB7BE080E090E00E94670316
:1026300010929503109294031092DE031092FF0300
:102640001092DC0381E08093DB031092B60361E01B
:1026500082E10E94FB0261E083E10E94FB02809123
:10266000B9008E7F8093B9008091B9008D7F8093EF
:10267000B90088E48093B80085E48093BC00809121
:10268000B2049091B304892BE1F080E090E00E94C5
:102690004719182F61E0680F80E090E00E944F1901
:1026A000612F70E080E090E0611571058105910572
:1026B00011F00E943E198091B2049091B3040E94DF
:1026C0005F0660E088E00E94FB0285E00E9437051B
:1026D00080E00E943705182F61E088E00E94FB022D
:1026E00010FDEFCF60E088E00E94FB0289EB0E94C2
:1026F000370561E088E00E94FB027894ABEEEA2E99
:10270000AAE0FA2E89E095E0B3E0CB2ED12C13E2BB
:10271000A12EB12C0BE3802E9924939498E0692E7E
:10272000680E27E0722E780E61E082E00E942B0393
:1027300060E082E00E94FB02C7010197F1F760E0D0
:1027400082E00E942B03C7010197F1F70E94660AFD
:102750000E94660A0E94510A0E94510A0E94660A5B
:102760000E94660A0E94510A0E94510A09E015E07F
:102770002801F8E02F2E21E0312C61E082E02B9639
:102780002FAF2B970E942B0360E082E00E94FB0298
:10279000C6010197F1F760E082E00E942B03C501BA
:1027A0000197F1F782E00E94D2022B962FAD2B9772
:1027B000019709F4322A220FC4010197F1F72A94F4
:1027C0002110DBCFD2013D922D016A12D2CF61E000
:1027D00082E00E94FB0290E07CE0F80151918F01C1
:1027E00048E0892F852780FD02C060E001C060E8D5
:1027F000892F90E09C0135952795922F603821F420
:10280000822F8068982F97275695415051F7701264
:10281000E4CF80911005981387CF48E069E075E018
:1028200088EA92E00E94180EE091B204F091B3049D
:10283000309709F4FAC082819381892B09F4F5C09D
:10284000EB57FF4F108210E07E01FAE0EF0EF11C13
:102850005E0122E1A20EB11C44244A94542C612C46
:10286000712C42E0242ECC24C394D12C62E0862E1D
:10287000912CE091B204F091B304EB57FF4F8081AB
:102880008111D3C060E177E280E090E00E946703AD
:1028900087E592E00E94A50733243394310E812FFF
:1028A0000E9417080091B2041091B304011511059C
:1028B00009F459C0F801EB57FF4F10823C96118282
:1028C00010821982D801AB59BF4FFE0132968E910A
:1028D0008193EE15FF05D9F7D801A35ABF4FF70131
:1028E0008E918193EA15FB05D9F70E943919A3014E
:1028F00092010E945D19F801E358FF4F6083319601
:1029000070834091B2045091B304FA01E358FF4F31
:1029100080818A8B319680818B8B9A012F563F4F15
:1029200043595F4F63E1CE0101960E94B90B40917C
:10293000B2045091B304FA01E655FF4F80819181B2
:10294000A281B3818C8B9D8BAE8BBF8B8A01075F7D
:102950001F4FB297208130E047575F4F67E1CE01AC
:1029600001960E94FA051092810010928000109248
:1029700085001092840080E89EE390938900809304
:10298000880020926F0089E080938100E091B2047A
:10299000F091B30410861782878190858432934129
:1029A000D8F3CF0187579F4F0E94B10EE091B20438
:1029B000F091B304DF01AB57BF4F8C91882319F01E
:1029C0001092810032C0878190858C309741D8F376
:1029D000DF01A157BF4F8DE090E08D939C93CF0115
:1029E00083579F4FDC01CD92DC920E94B10E109272
:1029F0008100E091B204F091B304DF01AB57BF4F07
:102A00008C91811112C0E557FF4F80819181009711
:102A100029F0019731F49182808205C0D182C08271
:102A200002C011821082132D24CF10910A068CE06F
:102A3000E9EBF2E0DE01119601900D928A95E1F743
:102A400089E0E5ECF2E0DE01AF5BBF4F01900D9253
:102A50008A95E1F75B9A5398CE018F5B9F4F0E9456
:102A6000A4068093020481E490E08C0F9D1F0396DE
:102A70000E94A4068093010481E490E08C0F9D1FC6
:102A800006960E94A40680930004CE0105960E943B
:102A9000A40680930304CE010A960E94A4068093A4
:102AA000050401E00093060443E050E06EE672E0A6
:102AB000CE0101960E942E1B892B19F40093040469
:102AC00085C043E050E062E772E0CE0101960E94CB
:102AD0002E1B892B11F482E077C043E050E066E7BB
:102AE00072E0CE0101960E942E1B892B11F483E027
:102AF0006BC043E050E06AE772E0CE0101960E94AD
:102B00002E1B892B11F484E05FC043E050E06EE798
:102B100072E0CE0101960E942E1B892B11F485E0F4
:102B200053C043E050E062E872E0CE0101960E949B
:102B30002E1B892B11F486E047C043E050E066E885
:102B400072E0CE0101960E942E1B892B11F487E0C2
:102B50003BC043E050E06AE872E0CE0101960E947B
:102B60002E1B892B11F488E02FC043E050E06EE863
:102B700072E0CE0101960E942E1B892B11F489E090
:102B800023C043E050E062E972E0CE0101960E946A
:102B90002E1B892B11F48AE017C043E050E066E950
:102BA00072E0CE0101960E942E1B892B11F48BE05E
:102BB0000BC043E050E06AE972E0CE0101960E944A
:102BC0002E1B892B19F48CE08093040460E080E0D4
:102BD0000E9438096091010480E70E94190A682F59
:102BE00081E00E9438096091020480E10E94190A84
:102BF000682F606482E00E9438096091060487E0D3
:102C00000E94190A682F87E00E9438096091030426
:102C100080E30E94190A682F84E00E9438096091BD
:102C2000040480E10E94190A682F85E00E94380997
:102C30006091050480EF0E94190A682F86E00E94C7
:102C400038096091000480E70E94190A682F6068C3
:102C500080E00E9438090E942A0860E087E00E9414
:102C60003809112319F0812F0E94260A60E187E0BC
:102C70000E9438090E94D40888E08093690082E0AD
:102C80008DBB109292031092090680E4E82EF12C7D
:102C900090E8C92ED12C20E4722E809192038823D3
:102CA00009F429C11092920361E089E00E94FB02BD
:102CB00080910A060E94260A0E94D4088EE992E0BA
:102CC0000E94A5070E942A0881EA92E00E94A507B7
:102CD000809109060E941708E091B004F091B104B8
:102CE000309749F09F012E5D3F4FD901872D1D92EE
:102CF0008A95E9F711A280910906309799F091A180
:102D0000A92FB0E0A233B1056CF4AE0FBF1F9296AD
:102D10001C92929721E093962C93939794968C9380
:102D20009D5F91A38F5F80930906109263051092B7
:102D300062050091B2041091B3040115110509F464
:102D4000D5C0580192EBA90EB11CD5018C918134EC
:102D500008F07C9281E0F801E656FF4F80833397BC
:102D60001082E555F1092081EF5AFF4F2083E0558D
:102D7000F1093081EF5AFF4F3083E055F10960814E
:102D8000EF5AFF4F6083E055F1097081EF5AFF4F12
:102D90007083EE54F10990818181E05BFF4F908355
:102DA00081837696408151817D974F014130510555
:102DB00019F4D182C08202C0F182E082F401408124
:102DC00049837A836B833C832D831E829F8388870C
:102DD000D5014C914423E9F081E0898750E0B801A6
:102DE0006D547F4FCE010A960E943B1BA8014E5C9A
:102DF0005F4F9401F5016081CE010A960E94710D2A
:102E0000E091B204F091B304EE54FF4F1081175FCC
:102E100001C018E04091B2045091B3049A012F56BA
:102E20003F4F4E5D5F4F612FCE0101960E94D40C43
:102E30004091B2045091B304E1E0F0E0EC0FFD1FCB
:102E4000E10FF11DDA01A655BF4F8D919D910D90B7
:102E5000BC91A02D80839183A283B383CA0109967C
:102E6000FA01E45BFF4F208130E0435B5F4F64E099
:102E7000610F8C01CE0101960E94FA05E091B20427
:102E8000F091B304DF01A85BBF4F8D919C91119726
:102E90008F3F2FEF920721F001968D939C9306C0F0
:102EA00082819381892B11F41D921C923097F1F04D
:102EB00081A18823D9F0DF01A15BBF4F2D913C9107
:102EC00011972F5F3F4F11963C932E9382819381F0
:102ED000892B21F4233031054CF006C0858D90E01C
:102EE00002968217930714F41D921C9260E089E009
:102EF0000E94FB02D2CE87E094E00E9441018091C3
:102F00007A008F7780937A0080916400826080934A
:102F1000640080916400806280936400809164000A
:102F20008860809364008091640080648093640072
:102F3000809164008160809364008091640084606B
:102F4000809364008091640080688093640083B7FC
:102F5000817F846083BFF89483B7816083BF85B726
:102F6000806685BF8F7D85BF7894889583B78E7F77
:102F700083BF7894809164008D7F809364008091FA
:102F800064008F7D8093640080916400877F8093CC
:102F90006400809164008F7B809364008091640062
:102FA0008E7F80936400809164008B7F80936400A7
:102FB000809164008F778093640080917A008068AC
:102FC00080937A006ACECF93DF9310920A04109216
:102FD000090488EE93E0A0E0B0E080930B049093A6
:102FE0000C04A0930D04B0930E042BE331E0309356
:102FF00008042093070425EC30E030931404209358
:10300000130424EC30E0309316042093150420ECD4
:1030100030E0309318042093170421EC30E0309313
:103020001A042093190422EC30E030931C042093FE
:103030001B0426EC30E030931E0420931D041092F4
:103040002004109221041092220410922304109262
:10305000A7041092A6048093A8049093A904A093B7
:10306000AA04B093AB048BE491E09093A504809301
:10307000A40481E090E090930B0680930A061092DE
:10308000B5041092B4049093B7048093B60490935F
:10309000B9048093B8041092BA0429E1EDEBF4E08E
:1030A000DF011D922A95E9F721E02093D50433E34F
:1030B000E4E0F1E0A6EDB4E001900D923A95E1F77D
:1030C0003CE3E9E0F5E0EF0119923A95E9F730E7E2
:1030D0003093110533EB3093120545ED4093130502
:1030E0004EE74093140540EF409315054EE340939F
:1030F00017054CE0409318053093210533E23093D7
:10310000220532EC309323053DEF309324053FED4B
:103110003093250534E3309326053BE730932705AC
:103120003DE33093280532EA3093290534E03093AB
:103130002A0532EF30932B053EE030932C05209387
:103140002D052AE320932E0524EA20932F0529E557
:10315000209330052CE037E130933B0520933A056E
:103160002FE020933C0523E030E030933E05209390
:103170003D0524E030E030934205209341052DE0E9
:1031800030E03093440520934305E5E4F5E022E682
:10319000DF01C22F1D92CA95E9F7909363058093D2
:1031A0006205A7EAB5E0ED0119922A95E9F7909337
:1031B000C5058093C40584EB94E09093B304809399
:1031C000B204309721F0F093B104E093B004DF91A2
:1031D000CF91089508958F929F92AF92BF92CF9210
:1031E000DF92EF92FF92CF93DF93EC0168817981B8
:1031F0008A819B81611571058105910521F464E245
:1032000079ED8BE597E02DE133EF41E050E00E944E
:103210005D1949015A019B01AC01A7EAB1E40E9482
:103220007C196B017C01ACEEB4EFA50194010E9406
:103230008A19DC01CB018C0D9D1DAE1DBF1DB7FF92
:1032400003C00197A109B04888839983AA83BB83EF
:10325000BC01CD019F77DF91CF91FF90EF90DF9080
:10326000CF90BF90AF909F908F9008950E94EB18E1
:10327000089580E091E00E94EB18089560930001AA
:103280007093010180930201909303010895F999CD
:10329000FECF92BD81BDF89A992780B50895262F5B
:1032A000F999FECF1FBA92BD81BD20BD0FB6F8942B
:1032B000FA9AF99A0FBE01960895052E97FB1EF40F
:1032C00000940E94741957FD07D00E948F1907FCC3
:1032D00003D04EF40C947419509540953095219577
:1032E0003F4F4F4F5F4F0895909580957095619532
:1032F0007F4F8F4F9F4F08950E94B119A59F900D4A
:10330000B49F900DA49F800D911D11240895B7FFC7
:103310000C947C190E947C19821B930B0895A1E2E6
:103320001A2EAA1BBB1BFD010DC0AA1FBB1FEE1F3F
:10333000FF1FA217B307E407F50720F0A21BB30B8A
:10334000E40BF50B661F771F881F991F1A9469F706
:1033500060957095809590959B01AC01BD01CF0162
:103360000895A29FB001B39FC001A39F700D811D5E
:103370001124911DB29F700D811D1124911D08957E
:103380000E94D4190C94B51A0E94AE1A58F00E94EB
:10339000A71A40F029F45F3F29F00C949E1A5111AE
:1033A0000C94E91A0C94A41A0E94C61A68F3992383
:1033B000B1F3552391F3951B550BBB27AA27621731
:1033C0007307840738F09F5F5F4F220F331F441F3E
:1033D000AA1FA9F335D00E2E3AF0E0E832D0915072
:1033E0005040E695001CCAF72BD0FE2F29D0660F5F
:1033F000771F881FBB1F261737074807AB07B0E8A2
:1034000009F0BB0B802DBF01FF2793585F4F3AF0A7
:103410009E3F510578F00C949E1A0C94E91A5F3F78
:10342000E4F3983ED4F3869577956795B795F7952D
:103430009F5FC9F7880F911D9695879597F9089515
:10344000E1E0660F771F881FBB1F621773078407B1
:10345000BA0720F0621B730B840BBA0BEE1F88F7C0
:10346000E09508950E94CE1A88F09F5798F0B92FE2
:103470009927B751B0F0E1F0660F771F881F991FA9
:103480001AF0BA95C9F714C0B13091F00E94E81A49
:10349000B1E008950C94E81A672F782F8827B85F59
:1034A00039F0B93FCCF3869577956795B395D9F701
:1034B0003EF490958095709561957F4F8F4F9F4F0B
:1034C0000895E89409C097FB3EF490958095709517
:1034D00061957F4F8F4F9F4F9923A9F0F92F96E960
:1034E000BB279395F695879577956795B795F111D5
:1034F000F8CFFAF4BB0F11F460FF1BC06F5F7F4F72
:103500008F4F9F4F16C0882311F096E911C0772383
:1035100021F09EE8872F762F05C0662371F096E88C
:10352000862F70E060E02AF09A95660F771F881F5B
:10353000DAF7880F9695879597F9089597F99F6719
:1035400080E870E060E008959FEF80EC089500242B
:103550000A941616170618060906089500240A94F8
:1035600012161306140605060895092E0394000C7E
:1035700011F4882352F0BB0F40F4BF2B11F460FF0D
:1035800004C06F5F7F4F8F4F9F4F089557FD905836
:10359000440F551F59F05F3F71F04795880F97FB17
:1035A000991F61F09F3F79F08795089512161306D1
:1035B0001406551FF2CF4695F1DF08C01616170600
:1035C0001806991FF1CF8695710561050894089535
:1035D000E894BB2766277727CB0197F90895991BB5
:1035E00079E004C0991F961708F0961B881F7A95FA
:1035F000C9F78095089597FB072E16F4009407D01D
:1036000077FD09D00E94151B07FC05D03EF490956C
:1036100081959F4F0895709561957F4F0895EE0FA6
:10362000FF1F0590F491E02D0994AA1BBB1B51E1EB
:1036300007C0AA1FBB1FA617B70710F0A61BB70B22
:10364000881F991F5A95A9F780959095BC01CD01C7
:10365000089581E090E0F8940C94441BFB01DC0198
:1036600004C08D910190801921F441505040C8F759
:10367000881B990B0895FB01DC0102C001900D929B
:1036800041505040D8F7089510E0C6E7D0E004C09C
:10369000FE010E940F1B2196C737D107C9F7F89486
:0236A000FFCF5A
:1036A200010000002B7E151628AED2A6ABF71588B6
:1036B20009CF4F3C2B7E151628AED2A6ABF7158844
:1036C20009CF4F3C3A123456000000006C070F0439
:1036D20000000004000D0000000000FA00860EC386
:1036E20000A100B5004101000000004902190211C9
:1036F20002FD01EE01ED01637C777BF26B6FC53059
:1037020001672BFED7AB76CA82C97DFA5947F0AD65
:10371200D4A2AF9CA472C0B7FD9326363FF7CC3437
:10372200A5E5F171D8311504C723C31896059A0788
:103732001280E2EB27B27509832C1A1B6E5AA05233
:103742003BD6B329E32F8453D100ED20FCB15B6A51
:10375200CBBE394A4C58CFD0EFAAFB434D338545F7
:10376200F9027F503C9FA851A3408F929D38F5BC2F
:10377200B6DA2110FFF3D2CD0C13EC5F974417C4D5
:10378200A77E3D645D197360814FDC222A908846D2
:10379200EEB814DE5E0BDBE0323A0A4906245CC264
:1037A200D3AC629195E479E7C8376D8DD54EA96C9B
:1037B20056F4EA657AAE08BA78252E1CA6B4C6E895
:1037C200DD741F4BBD8B8A703EB5664803F60E61F1
:1037D2003557B986C11D9EE1F8981169D98E949B1F
:1037E2001E87E9CE5528DF8CA1890DBFE6426841CC
:1037F200992D0FB054BB1653656E64696E67204AEB
:103802006F696E20526571756573743A20004A6162
:103812006E00466562004D617200417072004D613A
:1038220079004A756E004A756C00417567005365F0
:1038320070004F6374004E6F7600446563000D0A9A
:103842000050696E673A20004453323430312044CC
:103852004556204555493A20004F637420203920AF
:10386200323031370031303A30363A303700206466
:1038720061793A002062797465733B200044657671
:1038820069636520416464726573733A20004E6512
:1038920074776F726B2053657373696F6E204B651B
:1038A200793A20004170706C69636174696F6E20AF
:1038B20053657373696F6E204B65793A20004A6FC6
:1038C200696E20416363657074204D65737361672F
:1038D200653A200043466C69737400467265713A1A
:0238E2002000C4
:107E000085E08093810082E08093C00088E18093C8
:107E1000C10086E08093C20080E18093C40084B7F3
:107E200014BE81FFD0D089E2C8D0259A86E020E335
:107E30003CEF91E0309385002093840096BBB09B8B
:107E4000FECF1D9AA8958150A9F7DD24D394A5E013
:107E5000EA2EF1E1FF2EA4D0813421F481E0BED0DE
:107E600083E024C0823411F484E103C0853419F422
:107E700085E0B4D08AC08535A1F492D0082F10E0F7
:107E800010930102009300028BD090E0982F882776
:107E9000802B912B880F991F9093010280930002F1
:107EA00073C0863529F484E099D080E071D06DC02C
:107EB000843609F043C07CD0E0910002F0910102C9
:107EC00083E080935700E895C0E0D1E069D08993C2
:107ED000809102028150809302028823B9F778D002
:107EE00007B600FCFDCF4091000250910102A0E0D6
:107EF000B1E02C9130E011968C91119790E0982F81
:107F00008827822B932B1296FA010C01D0925700EE
:107F1000E89511244E5F5F4FF1E0A038BF0749F7A5
:107F2000E0910002F0910102E0925700E89507B657
:107F300000FCFDCFF0925700E89527C08437B9F4D4
:107F400037D046D0E0910002F09101023196F093D3
:107F50000102E09300023197E4918E2F19D08091B5
:107F60000202815080930202882361F70EC0853798
:107F700039F42ED08EE10CD085E90AD08FE096CF6F
:107F8000813511F488E019D023D080E101D063CF8E
:107F9000982F8091C00085FFFCCF9093C600089574
:107FA000A8958091C00087FFFCCF8091C6000895FE
:107FB000F7DFF6DF80930202F3CFE0E6F0E098E12E
:107FC00090838083089580E0F8DFEE27FF270994EF
:107FD000E7DF803209F0F7DF84E1DACF1F93182F53
:0C7FE000DFDF1150E9F7F4DF1F91089576
:0400000300007E007B
:00000001FF