:100000000C9477000C949F000C9449070C949F006B
:100010000C949F000C949F000C949F000C949F00E4
:100020000C949F000C949F000C949F000C9430073C
:100030000C949F000C949F000C949F000C949F00C4
:100040000C94A00F0C949F000C949F0E0C94790EAE
:100050000C949F000C949F000C949F000C949F00A4
:100060000C94EA0F0C949F00A701AC01B901BE01EA
:10007000C301C801D10175117B11B911C411D1118E
:10008000DD11E91181118B1195119F11A911AF118A
:1000900000000000240027002A00010204081020AC
:1000A000408001020408102001020408102004040A
:1000B0000404040404040202020202020303030310
:1000C000030300000000250028002B0000000000B2
:1000D00023002600290000000008000201000003A0
:1000E000040700000000000000003A1A391A112429
:1000F0001FBECFEFD8E0DEBFCDBF13E0A0E0B1E080
:10010000E0E6FDE302C005900D92AC37B107D9F7E8
:1001100026E0ACE7B3E001C01D92AC34B207E1F7D2
:1001200010E0C6E7D0E004C02197FE010E946E1ED9
:10013000C537D107C9F70E943A130C94A31E0C943B
:100140000000FC019C01205F3F4FDB018D91BD0150
:10015000908189278193E217F307B9F70895FC018D
:1001600020E02F3031F09181892F881F8827881F48
:1001700001C080E09081990F980F91932F5F2031FB
:1001800081F70895EF92FF921F93CF93DF9300D0F2
:1001900000D0CDB7DEB7DB0191E02BE1813041F03B
:1001A000392F3078990F303809F492278150F6CFE3
:1001B0001D96EC911D978E2F8F70E295EF7020E1C8
:1001C000E29FF0011124E80FF11DEA5FFE4F8081EC
:1001D0001E96EC911E972E2F2F70E295EF7030E156
:1001E000E39FF0011124E20FF11DEA5FFE4F208131
:1001F0002A831F96EC911F972E2F2F70E295EF7098
:1002000030E1E39FF0011124E20FF11DEA5FFE4FA0
:1002100020812B831C96EC911C972E2F2F70E2953A
:10022000EF7030E1E39FF0011124E20FF11DEA5F6E
:10023000FE4F20812C839827998320E030E0BE0177
:100240006F5F7F4F54E0560FF901EE0FFF1FEE0F67
:10025000FF1F7F01EA0EFB1ECB01FC011081F7019D
:100260004081412741937F01FC014193CF015E13FF
:10027000F4CF2F5F3F4F2430310531F70F900F90AF
:100280000F900F90DF91CF911F91FF90EF90089505
:10029000CF93DF93EC0120E030E0DB01A20FB31F2E
:1002A000F901EE0FFF1FEE0FFF1FEC0FFD1F90E097
:1002B00041918C9148274C939F5F14969430C1F7DD
:1002C0002F5F3F4F2430310541F7DF91CF910895E3
:1002D000CF93DF9383309105D9F064F48130910599
:1002E00089F08230910509F554E0769567955A9525
:1002F000E1F71BC085309105B1F084F0873091059E
:1003000091F013C0E5E076956795EA95E1F70DC0A9
:1003100043E0769567954A95E1F707C0769567952E
:100320007695679502C0660F771FEB0161157440E3
:1003300010F0CFEFD3E0FC013197E730F10508F082
:1003400041C0EC5CFF4F6C2F8FE10C946E1E0E943D
:100350000E126D2F646C04C00E940E126D2F646B20
:100360008EE10E940E1262E78DE10E940E126CE097
:1003700024C00E940E126D2F646A0EC00E940E12DD
:100380006D2F646909C00E940E126D2F646804C04D
:100390000E940E126D2F64678EE10E940E1262E7BA
:1003A00008C00E940E126D2F64678EE10E940E122B
:1003B00062E88DE10E940E1264E086E2DF91CF9147
:1003C0000C940E12DF91CF910895BF92CF92DF92DD
:1003D000EF92FF920F931F93CF93DF931F92CDB7AE
:1003E000DEB76C01B62E7A0181E029830E9452119A
:1003F00064EF71E0F701808191810E946801B8018A
:10040000F701828193810E945D1160E480E40E9483
:100410000E1267E283E30E940E126DE18BE30E94ED
:100420000E122981622F606F89E00E940E126B2DDF
:1004300082E20E940E128EE00E942613682F8DE049
:100440000E940E1260E08AE00E94FA0E80E80E948C
:100450004B116B2D70E06115710519F0C6010E94FA
:100460002D1161E08AE00E94FA0E63E881E00E94AB
:100470000E1284E00E94D10E892BD9F368E082E14C
:100480000F90DF91CF911F910F91FF90EF90DF9030
:10049000CF90BF900C940E12CF93DF93EC0160E0ED
:1004A00081E00E940E126AE070E080E090E00E941D
:1004B000660F60E881E00E940E1281E00E945211F6
:1004C000BE01675F7F4F80E090E00E945D116FEF9B
:1004D00089E00E940E1263E28CE00E940E1264EF2B
:1004E00071E080E090E00E94680165E28FE10E9487
:1004F0000E1260E080E20E940E1268E081E20E942B
:100500000E1264E389E30E940E1260E88EE00E94FE
:100510000E1260E08FE00E940E1260E881E0DF9131
:10052000CF910C940E12FC01908180ED890F8A30DE
:1005300038F4990F9056292F220F220F920F01C0E5
:1005400090E0818180538A3008F4980F892F0895B4
:10055000482F862F6AE00E944E1E50E1859F900131
:100560001124842F8223892B0895CF93C82F81E0F3
:1005700080932604C09348041092270410924904E3
:1005800087EE94E00E94480E0E94231261E08C2FB7
:100590000E948012109287038093860387EE94E076
:1005A0000E94FC0DC82F0E9423128C2FCF9108951A
:1005B000CF93DF931F92CDB7DEB791E090932604DF
:1005C00080934804109227041092490487EE94E027
:1005D00049830E94480E4981642F87EE94E00E946F
:1005E000480E0F90DF91CF910C942312CF93C82F18
:1005F00061E08FE60E94B502682F6F709C2FCC33AC
:1006000008F09BE3262F290F682F60776695669583
:100610006695962F990F990F690F620F6C3308F04A
:100620006B5380E70E94A802482F6BE08FE60E9480
:10063000D8026DE08FE60E94B5028770482F4061B6
:100640006DE08FE6CF910C94D80261E082E00E94C9
:100650002A0F60E082E00E94FA0E8BE391E001979E
:10066000F1F760E082E00E942A0F83E090E00197BA
:10067000F1F7089561E082E00E942A0F60E082E0D5
:100680000E94FA0E83E090E00197F1F760E082E0CB
:100690000E942A0F8BE391E00197F1F708954F92A2
:1006A0005F927F928F929F92AF92BF92CF92DF9292
:1006B000EF92FF920F931F93CF93DF93CDB7DEB7E7
:1006C000A9970FB6F894DEBF0FBECDBF6C0180E0D6
:1006D00090E08E010F5F1F4FDC01AA0FBB1FAA0F16
:1006E000BB1FAC0DBD1D20E030E0FD90A901480FFF
:1006F000591F400F511FFA01F0822C5F3F4F2031EC
:10070000310599F701968430910531F780E1FB01BD
:10071000DE01519601900D928A95E1F7B801CE0164
:1007200041960E94480121E034E0932E900E4BE167
:10073000842E7801C801702EDC0130E0EC914E2F40
:100740004F70E295EF7050E1E59FF0011124E40F46
:10075000F11DEA5FFE4F40814C933F5F14963430A9
:1007600069F701969812E8CF8D819E819D839F81C4
:100770009E8398859F83888789859B8599878B87AA
:100780008A859C859A878C8788899F85988B9E858A
:100790009F879D859E878D87CE010D962801BE017E
:1007A0006B5D7F4FFE01B19640E050E05201A40E18
:1007B000B51ED501BC90DB01BD92BD013B2D330FB1
:1007C000B7FC382530834C5F5F4F3196403151057F
:1007D00069F76EA149A146277FA1B8A43AA137279E
:1007E0003B25532F5427F20151932F01ADA05BA15C
:1007F000FC0138973A25352730833CA134966B2588
:100800006A255627532750837A2537274327DC014B
:100810004D93CD019410C3CFBE016F5E7F4F822FE9
:1008200029A70E94C200B801CE0141960E9448014A
:1008300029A52F5F2A3009F07CCF94E0970DD701CE
:1008400080E0EC912E2F2F70E295EF7030E1E39F66
:10085000F0011124E20FF11DEA5FFE4F20812C937D
:100860008F5F1496843069F75FEFE51AF50A9E11E1
:10087000E6CF8D819E819D839F819E8398859F83F6
:10088000888789859B8599878B878A859C859A87A8
:100890008C8788899F85988B9E859F879D859E875D
:1008A0008D87BE016F5E7F4F8AE00E94C200B80153
:1008B000CE0141960E94480180E090E0FC01EE0FDD
:1008C000FF1FEE0FFF1FEC0DFD1D20E030E0D901F2
:1008D000A80FB91FA00FB11F4C9141932C5F3F4F40
:1008E00020313105A1F701968430910539F7A99699
:1008F0000FB6F894DEBF0FBECDBFDF91CF911F9131
:100900000F91FF90EF90DF90CF90BF90AF909F90AE
:100910008F907F905F904F9008952F923F924F92CB
:100920005F926F927F928F929F92AF92BF92CF927F
:10093000DF92EF92FF920F931F93CF93DF93CDB788
:10094000DEB7C554D1090FB6F894DEBF0FBECDBFD8
:100950004C013A0123963FAF2EAF239780E17E01F1
:1009600091E3E90EF11CD701E82F1D92EA95E9F712
:100970005E01F1E2AF0EB11CD501E82F1D92EA95A0
:10098000E9F76E01F1E1CF0ED11CD601E82F1D92DF
:10099000EA95E9F78E010F5F1F4FD8011D928A95E6
:1009A000E9F7262E22942FE02222262F2F7009F01D
:1009B0002394B301C70126962FAF26970E944F03B9
:1009C00059A8C7010E94AF0026962FAD269757FE63
:1009D00008C021969FAD219787E8892721968FAF80
:1009E0002197D501F70180E18E0D91919D938E1392
:1009F000FCCF59A0C50126962FAF26970E94AF00C5
:100A000026962FAD269757FE04C098A987E8892718
:100A100088AB30E0312CB1E02B1A310840E1400FB7
:100A2000E32FF0E0E215F30584F594E0EE0FFF1FED
:100A30009A95E1F7E80DF91D2801D80181918D9370
:100A40004A13FCCFB601C80126962FAF26972496ED
:100A50003FAF249725964FAF25970E94A100B30181
:100A6000C8010E944F03F60125964FAD25972496A5
:100A70003FAD249726962FAD2697D2018D912D015B
:100A800081934A13FACF3F5FCBCF84E0220C331C13
:100A90008A95E1F721110CC0D401A20DB31DF80114
:100AA00080E1800F9D9191938E13FCCFB7011FC001
:100AB000F80180E090E0A801420F511D60E8382F56
:100AC000821738F4DC01A20DB31DA80DB91D7C916D
:100AD0007083321303C0DA016C9303C0231708F448
:100AE0001082019631968031910549F7B501C80110
:100AF0000E94A100B601C8010E94A100B301C80173
:100B00000E944F0389812396EEADFFAD2397818F1D
:100B10008A81828F8B81838F8C81848FCB5BDF4F27
:100B20000FB6F894DEBF0FBECDBFDF91CF911F91FE
:100B30000F91FF90EF90DF90CF90BF90AF909F907C
:100B40008F907F906F905F904F903F902F9008957F
:100B5000CF92DF92EF92FF920F931F93CF93DF9389
:100B6000CDB7DEB7C056D1090FB6F894DEBF0FBEC1
:100B7000CDBF092FD90199E462969FAF6297639622
:100B80001FAE639764961FAE649765961FAE659718
:100B900066961FAE66972D913C91119720383105CE
:100BA00019F02034310521F467961FAE679704C011
:100BB00091E067969FAF679715969C9115976896F9
:100BC0009FAF689714969C91149769969FAF699709
:100BD00013969C9113976A969FAF6A9712969C9171
:100BE00012976B969FAF6B9717962C911797189645
:100BF0009C9118976C962FAF6C976D969FAF6D97E1
:100C00006E961FAE6E976F961FAE6F97A0961FAE33
:100C1000A097A1966FAFA1979E012F5F3F4FFE0156
:100C2000EF5AFF4F6F01722F932F10E11E0FF60145
:100C3000F1906F01F901F1929F011C11F8CF182F6B
:100C40009E012F5E3F4FE82EF02E8E2D811B8617C2
:100C500038F4F70181917F01F90181939F01F5CF6C
:100C6000605F9D01872F0E948D04C05ADF4F0FB631
:100C7000F894DEBF0FBECDBFDF91CF911F910F91D2
:100C8000FF90EF90DF90CF9008952F923F924F9278
:100C90005F926F927F928F929F92AF92BF92CF920C
:100CA000DF92EF92FF920F931F93CF93DF93CDB715
:100CB000DEB761970FB6F894DEBF0FBECDBF8901D6
:100CC000009709F470C04115510509F46CC0662302
:100CD00009F469C0232B09F466C0562E52942FE004
:100CE0005222362F3F7009F053945A017C01612C37
:100CF000712C412C33243394CE0101966C01852C48
:100D0000912C91E0891A910880E1282E2C0C451431
:100D100009F449C039821A821B821C821D82F801A3
:100D2000808191818038910519F08034910511F40A
:100D30001E8201C03E82F80185818F83848188876D
:100D40008381898782818A87978180859B878C8729
:100D50001D861E861F864394488AB501C601398BBD
:100D60000E944F0339896814790449F0D701F601CC
:100D700081919C9189278D932E12FACF0DC031114C
:100D800001C030E1D701F60181919C9189278D93B3
:100D90008E2F8C198317C0F3FFEF6F1A7F0A80E143
:100DA000E80EF11CB4CF61960FB6F894DEBF0FBE0B
:100DB000CDBFDF91CF911F910F91FF90EF90DF900A
:100DC000CF90BF90AF909F908F907F906F905F90EB
:100DD0004F903F902F900895EF92FF920F931F93A3
:100DE000CF93DF93162F072FF42E0E94C4128AE4AC
:100DF00094E00E94400D6F2D70E080E090E04AE0AA
:100E00000E94E51289EF92E00E94C412E12EC12FE8
:100E1000D02F8C2F8E198F15D8F48E016991629581
:100E20006F7070E080E090E040E10E94E512F80110
:100E300060816F7070E080E090E040E10E94E51218
:100E400080E20E94DA128AE494E00E94400DE1CF31
:100E5000DF91CF911F910F91FF90EF900C94D612DC
:100E60001F920F920FB60F9211248F939F93EF93BF
:100E7000FF93E7EFF4E08781908501969087878361
:100E8000FF91EF919F918F910F900FBE0F901F9048
:100E900018951F920F920FB60F9211248F9381E035
:100EA00080937C038F910F900FBE0F901F90189529
:100EB000CF92DF92EF92FF920F931F93CF93DF9326
:100EC0006C017A018B01C0E0D0E0CE15DF0589F01E
:100ED000D8016D918D01D601ED91FC910190F081C9
:100EE000E02DC6010995892B11F47E0102C02196DF
:100EF000ECCFC701DF91CF911F910F91FF90EF9041
:100F0000DF90CF9008957F928F929F92AF92BF9281
:100F1000CF92DF92EF92FF920F931F93CF93DF93C5
:100F2000CDB7DEB7C154D1090FB6F894DEBF0FBEFE
:100F3000CDBFE090F504F090F604E114F10409F45B
:100F40000FC35B016C01D7018D919C91892B59F5E1
:100F500060E080E40E940E1267E683E30E940E12B6
:100F600069E18BE30E940E12B501F6018081918147
:100F70000E946801B701675F7F4FD60112968D917D
:100F80009C9113970E945D1186E00E94521184E0AB
:100F90000E94D10E892B09F0ECC285E00E94D10E8F
:100FA000892BA9F3E6C281E00E945211E091F50479
:100FB000F091F604EE5EFE4F8DE090E09183808329
:100FC000E090F504F090F604BEEEEB1ABEEFFB0ADB
:100FD000F701808191810D9709F05FC082E10E9445
:100FE000261385FF04C052E0A52EB12C03C0AA240D
:100FF000A394B12C80E10E942613682F83E12296EE
:101000006FAF22970E942613182F22966FAD22975A
:101010008DE00E940E1260E08AE00E94FA0E80E0ED
:101020000E944B11612F70E06115710521F0CE0116
:1010300001960E942D1161E08AE00E94FA0E60EE96
:1010400082E10E940E12D701AD92BC92E090F504AD
:10105000F090F604F701808191810197F1F460E04E
:1010600080E40E940E1267E683E30E940E1269E19B
:101070008BE30E940E1264EF71E0D6018D919C917A
:101080000E946801B701675F7F4FF60182819381FB
:101090000E945D1185E00E94521160EE82E10E9483
:1010A0000E1260E881E00E940E124091F50450910A
:1010B000F604FA01EE5EFE4F80819181019709F0FE
:1010C00052C289819A012D503F4F682F70E0D9019B
:1010D0006D937C93803609F4AAC130F4803259F0C4
:1010E000803409F030C2A3C1803809F4A0C1803A2D
:1010F00009F029C29CC1E12EF12CB1E0EB1AF108F4
:1011000034E0F594E7943A95E1F700E0802F90E021
:10111000E091F504F091F6048E159F059CF4BF0153
:1011200063597F4F24E0880F991F2A95E1F70196B4
:10113000E1E0F0E0EC0FFD1F8E0F9F1F0E944F03B8
:101140000F5FE4CF0CEFD02ED10E9F012D503F4FFB
:10115000AF0143595F4F6D2DCE0101960E948D0462
:101160000091F5041091F604ED2CF12CB801645FA8
:101170007E4F44E050E081E090E08C0F9D1F8E0D8B
:101180009F1D0E948D1E892B09F0F0C1F801EE5EB3
:10119000FE4FA3E0AA2EB12CB182A082EA81D80131
:1011A000A158BF4FEC937B8111967C936C81119673
:1011B0006C935D8111965C934E8111964C939F8147
:1011C00011969C93DF9788858C93119789858C93D2
:1011D00011978A858C9311978B858C938C85282FFA
:1011E000207730E0B4E035952795BA95E1F7D8013E
:1011F0005E962C935E978F705F968C935F978D852C
:1012000090968C93909781E092968C939297939678
:10121000EC93939794967C93949795966C9395976B
:1012200096965C93969797964C93979798969C93DF
:101230009897F801E358FF4F8081F80181A7E258A1
:10124000FF4F80819A968C939A979B961C929B97BE
:101250009C961C929C979D961C929D979E961C9284
:101260009E979F961C929F97D0961C92D097D1964E
:101270001C92D197C8018296D29620E1FC01019080
:101280000D922A95E1F722E0F80122ABB8016359EB
:101290007F4F0E944F038091F5049091F604BC01AA
:1012A00063597F4FC2960E944F038091F50490913D
:1012B000F604FC01E85BFF4F118210823297118225
:1012C0001082FDE0FD1590F16091F5047091F60437
:1012D0006E5B7F4F44E082E093E00E94EC066091F9
:1012E000F5047091F6046E5D7F4F40E183E193E079
:1012F0000E94EC066091F5047091F6046E5C7F4FDD
:1013000040E189E293E00E94EC068091F50490911F
:10131000F604FC01EC5EFE4F1082EF58F10921E06B
:101320002083E357FF4F8CE090E00FC14D2DBE01AD
:101330006F5F7F4F83E493E00E94EC06C7010E9736
:10134000B5010E945A1EF62E25E0261710F4F5E08E
:10135000FF2E89E593E00E94C4120E94D6128E01EE
:10136000005F1F4FE12CEF1409F4AECFD8012C9190
:10137000822F90E0A0E0B0E0BC0155274427F8019F
:1013800032978081482B319680819A01AB01382BAE
:10139000A4E6B0E00E94CE1B4B015C01DC01CB0156
:1013A000815C9E45AD4AB3438F339244AF40B10553
:1013B000D0F5C090F504D090F604D6015D967C90EF
:1013C000B5E0B71580F180E693E00E94C4124AE0D0
:1013D000C501B4010E94E51289E00E94DA12C5013C
:1013E000B4010E94251D27ED33E244E752E40E9438
:1013F000841C0E94F61C4B015C014AE00E94E5122D
:101400000E94D612F60124E0729EE00DF11D112417
:1014100081869286A386B486E091F504F091F60465
:10142000858D8F5F858FE3940D5F1F4F9CCFFA01F1
:10143000EB50FF4F8D81808331968C818083319674
:101440008B81808331968A81808331968E818083DF
:101450003196888590E0982F88276F81862B91831D
:1014600080837CEFF72EF10E4E5D5F4F6F2DCE0126
:1014700001960E94A8050091F5041091F604B801A8
:10148000645F7E4F44E050E081E090E08C0F9D1F50
:101490008F0D911D0E948D1E892B31F0F801EE5E9B
:1014A000FE4F85E090E011C044E050E0B8016E5B73
:1014B0007F4FC8018B509F4F0E948D1EF801892BD2
:1014C00039F0EE5EFE4F87E090E0918380836EC03E
:1014D000E750FF4F90819F7088E0890FF81651F117
:1014E000E9843396E0828F2D891B27EFF22EF80EC8
:1014F0007896F08268013BEEC31A3EEFD30A4F2D77
:1015000050E0975F61E070E06C0F7D1F690F711D07
:10151000C6010E949A1E98012D503F4FA801E1106C
:1015200003C04E5D5F4F02C04E5C5F4F6F2DC60122
:101530000E944506E091F504F091F604EE5EFE4F40
:101540008BE090E002C088E090E091838083E0919E
:10155000F504F091F604EE5EFE4F8081918126C085
:101560008FE090E023C082E090E020C084E090E033
:101570001DC085E00E94D10E0197A9F460EE82E1C2
:101580000E940E1279E0A72EB12C84E00E94D10EA9
:10159000019719F46DE0A62EB12CF701EE5EFE4F17
:1015A000B182A0820DCDA12CB12CEFCFCF5BDF4F4C
:1015B0000FB6F894DEBF0FBECDBFDF91CF911F9164
:1015C0000F91FF90EF90DF90CF90BF90AF909F90E2
:1015D0008F907F9008954F925F926F927F928F923B
:1015E0009F92AF92BF92CF92DF92EF92FF926B01E8
:1015F0007C01B42E9B01AC010E94491E882319F086
:1016000087E693E027C026013701E89477F82FEFAB
:101610003FEF4FE75FE7C301B2010E94491E81110E
:101620000DC02FEF3FEF4FE75FE7C301B2010E940C
:101630007F1C18161CF48BE693E00CC02FEF3FEFD5
:101640004FE75FE4C701B6010E94D71D181684F466
:101650008FE693E0FF90EF90DF90CF90BF90AF9038
:101660009F908F907F906F905F904F900C94C412DA
:101670002FEF3FEF4FE75FECC701B6010E947F1CE1
:1016800087FDE6CF20E030E0A901C701B6010E9446
:101690007F1C87FF09C08DE20E94DA124C01F7FA25
:1016A000F094F7F8F09402C0812C912CA12C60E00A
:1016B00070E080E09FE3AB1441F020E030E040E2D6
:1016C00051E40E94841CA394F6CF9B01AC01C70196
:1016D000B6010E94131C2B013C010E94F61C6B01F9
:1016E0007C010E94251D9B01AC01C301B2010E9437
:1016F000121C2B013C014AE0C701B6010E94E51211
:101700007C01E80CF91CBB2029F08EE20E94DA1261
:10171000E80EF91EDB2CDD2021F120E030E040E274
:1017200051E4C301B2010E94DC1D2B013C010E9467
:10173000F61C4B01A12CB12C4AE0C501B4010E945A
:10174000E512E80EF91EC501B4010E94251D9B019A
:10175000AC01C301B2010E94121C2B013C01DA94BE
:10176000DACFC701FF90EF90DF90CF90BF90AF909E
:101770009F908F907F906F905F904F900895CF9340
:10178000DF93C8E8D3E06A8170E080E090E04AE04F
:101790000E94E5128AE30E94DA12698170E080E01B
:1017A00090E04AE00E94E5128AE30E94DA12688122
:1017B00070E080E090E04AE00E94E51283E793E069
:1017C0000E94C4126E8170E080E090E04AE00E94C6
:1017D000E51289E00E94DA126B8170E080E090E00F
:1017E0004AE00E94E5128FE20E94DA126C8170E0FA
:1017F00080E090E04AE00E94E5128FE20E94DA1257
:101800006D8170E080E090E04AE00E94E512DF9197
:10181000CF910C94D612CF93DF93EB0191E090938C
:10182000260490E4909348041092270410924904EF
:10183000682F87EE94E00E94480E0E94231262E017
:1018400080E40E948012109287038093860387EEC3
:1018500094E00E94FC0D888387EE94E00E94FC0DCA
:101860008983DF91CF910C942312CF93DF9360E0B3
:101870008FE60E94B502C8E8D3E0982F907796953E
:1018800096959695292F220F220F920F8F70890F10
:10189000888361E08FE60E94B502982F9077969535
:1018A00096959695292F220F220F920F8F70890FF0
:1018B000898362E08FE60E94B50284FB992790F944
:1018C000990F292F220F220F920F8F70890F8A8371
:1018D00063E08FE60E94B50287708E8364E08FE636
:1018E0000E94B502982F9073969596959695292FFC
:1018F000220F220F920F8F70890F8B8365E08FE686
:101900000E94B50284FB992790F9990F292F220F85
:10191000220F920F8F70890F8C8366E08FE60E94F2
:10192000B502982F907F969596959695292F220F20
:10193000220F920F8F70890F8D83DF91CF910895C1
:10194000FC01918D828D981761F0828DDF01A80FC7
:10195000B11D5D968C91928D9F5F9F73928F90E0E9
:1019600008958FEF9FEF0895FC01918D828D981758
:1019700031F0828DE80FF11D858D90E008958FEF95
:101980009FEF0895FC01918D228D892F90E0805C5E
:101990009F4F821B91098F73992708958AE494E0E1
:1019A0000E94C20C21E0892B09F420E0822F0895C7
:1019B000FC01848DDF01A80FB11DA35ABF4F2C91EC
:1019C000848D90E001968F739927848FA689B789BB
:1019D0002C93A089B1898C9180648C93938D848D94
:1019E000981306C00288F389E02D80818F7D808363
:1019F0000895EF92FF920F931F93CF93DF93EC0123
:101A000081E0888F9B8D8C8D981305C0E889F989BA
:101A1000808185FD24C0F62E0B8D10E00F5F1F4FD7
:101A20000F731127E02E8C8DE8120CC00FB607FC47
:101A3000FACFE889F989808185FFF5CFCE010E9430
:101A4000D80CF1CF8B8DFE01E80FF11DE35AFF4F4B
:101A5000F0820B8FEA89FB898081806207C0EE8962
:101A6000FF896083E889F98980818064808381E0CF
:101A700090E0DF91CF911F910F91FF90EF9008952B
:101A8000CF93DF93EC01888D8823C9F0EA89FB8925
:101A9000808185FD05C0A889B9898C9186FD0FC01C
:101AA0000FB607FCF5CF808185FFF2CFA889B989F1
:101AB0008C9185FFEDCFCE010E94D80CE7CFDF914E
:101AC000CF91089580E090E0892B29F00E94CE0C00
:101AD00081110C9400000895833081F028F4813046
:101AE00099F08230A1F008958730A9F08830B9F0DC
:101AF0008430D1F4809180008F7D03C0809180007C
:101B00008F7780938000089584B58F7702C084B565
:101B10008F7D84BD08958091B0008F7703C0809140
:101B2000B0008F7D8093B00008953FB7F894809106
:101B3000DB039091DC03A091DD03B091DE0326B5B9
:101B4000A89B05C02F3F19F00196A11DB11D3FBFF5
:101B5000BA2FA92F982F8827820F911DA11DB11D83
:101B6000BC01CD0142E0660F771F881F991F4A957F
:101B7000D1F7089585ED8093BC008091BC0084FD71
:101B8000FCCF1092250408954091B103262F30E038
:101B9000240F311D21323105DCF42091250424303D
:101BA000C9F4FC0180E090E0861758F43091B1034D
:101BB0002191DC01A157BC4FA30FB11D2C930196BD
:101BC000F3CF8091B103680F6093B10380E0089573
:101BD00081E0089582E008950895E091870380915F
:101BE0008603E81730F4F0E0E152FC4F808190E08A
:101BF00008958FEF9FEF089590918703809186035A
:101C0000981750F4E92FF0E0E152FC4F208130E0CA
:101C10009F5F9093870302C02FEF3FEFC9010895A4
:101C20008091860390E020918703821B910908959B
:101C3000CF92DF92EF92FF920F931F93CF93DF9398
:101C40007C01262F972F8A0180912604882391F00A
:101C5000C62FD72F6E01C40ED51ECC15DD0571F031
:101C60006991D701ED91FC910190F081E02DC701C0
:101C70000995F3CF642F822F0E94C40DC801DF9114
:101C8000CF911F910F91FF90EF90DF90CF9008952B
:101C9000CF93DF931F92CDB7DEB7698320912604DF
:101CA0002223D1F020914904203240F021E030E09D
:101CB000FC013383228380E090E015C080912704EB
:101CC000E82FF0E0E85DFB4F998190838F5F809370
:101CD00027048093490405C061E0CE0101960E946B
:101CE000C40D81E090E00F90DF91CF9108950E94A4
:101CF000881E1F920F920FB60F9211242F933F93BD
:101D00004F935F936F937F938F939F93AF93BF9303
:101D1000EF93FF938AE494E00E94D80CFF91EF9137
:101D2000BF91AF919F918F917F916F915F914F91F3
:101D30003F912F910F900FBE0F901F9018951F92FB
:101D40000F920FB60F9211242F938F939F93EF93BF
:101D5000FF93E0915A04F0915B048081E09160046C
:101D6000F091610482FD12C09081809163048F5FC5
:101D70008F7320916404821751F0E0916304F0E0C6
:101D8000E65BFB4F958F8093630401C08081FF91D8
:101D9000EF919F918F912F910F900FBE0F901F90F9
:101DA0001895CF93DF93282F30E0F901EA52FF4FC7
:101DB0008491F901E656FF4FD491F901E255FF4FA6
:101DC000C491CC2391F081110E946C0DEC2FF0E0B6
:101DD000EE0FFF1FE453FF4FA591B491EC91ED235B
:101DE00081E090E021F480E002C080E090E0DF91AB
:101DF000CF9108951F93CF93DF93282F30E0F901FF
:101E0000EA52FF4F8491F901E656FF4FD491F90150
:101E1000E255FF4FC491CC23C9F0162F81110E94C7
:101E20006C0DEC2FF0E0EE0FFF1FEE53FF4FA5916E
:101E3000B4918FB7F894111105C09C91ED2FE095E6
:101E4000E92302C0EC91ED2BEC938FBFDF91CF9192
:101E50001F910895CF93DF9390E0FC01E656FF4F6A
:101E60002491FC01E255FF4F8491882361F190E0B9
:101E7000880F991FFC01E057FF4FC591D491FC01D9
:101E8000EE53FF4FA591B491611109C09FB7F8942B
:101E90008881209582238883EC912E230BC06230A9
:101EA00061F49FB7F8943881822F809583238883CB
:101EB000EC912E2B2C939FBF06C08FB7F894E8812E
:101EC0002E2B28838FBFDF91CF9108958F929F9201
:101ED000AF92BF92CF92DF92EF92FF926B017C01A3
:101EE0000E94950D4B015C01C114D104E104F10481
:101EF000F1F00E94950DDC01CB0188199909AA091E
:101F0000BB09883E9340A105B10570F321E0C21AD8
:101F1000D108E108F10888EE880E83E0981EA11C24
:101F2000B11CC114D104E104F10419F7DDCFFF9015
:101F3000EF90DF90CF90BF90AF909F908F900895DB
:101F40001F920F920FB60F9211242F933F938F93EE
:101F50009F93AF93BF938091D7039091D803A091A3
:101F6000D903B091DA033091D60323E0230F2D3744
:101F700020F40196A11DB11D05C026E8230F02968D
:101F8000A11DB11D2093D6038093D7039093D8034E
:101F9000A093D903B093DA038091DB039091DC0323
:101FA000A091DD03B091DE030196A11DB11D8093C8
:101FB000DB039093DC03A093DD03B093DE03BF91BA
:101FC000AF919F918F913F912F910F900FBE0F90E6
:101FD0001F9018951F920F920FB60F9211242F93F6
:101FE0003F934F935F936F937F938F939F93AF93A1
:101FF000BF93EF93FF938091B900887F803609F4F7
:102000009CC068F5883209F45BC090F4803109F413
:1020100054C038F4882309F4F6C0883009F44DC060
:10202000F6C0883109F44CC0803209F45DC0EFC0BD
:10203000803409F468C048F4803309F455C088330B
:1020400009F0E5C080932304D8C0803509F44FC05F
:10205000883509F45DC0883409F0D9C0D6C0883904
:1020600009F4C7C0A8F4883709F467C038F4883683
:1020700009F463C0803709F460C0C9C0883809F426
:10208000B8C0803909F45FC0803809F0C0C05BC0B7
:10209000803B09F486C038F4803A09F466C0883A77
:1020A00009F47FC0B4C0803C09F4A7C0883C09F49F
:1020B000A4C0883B09F48AC0AAC08091000410C063
:1020C0009091220480912104981770F5E0912204E8
:1020D00081E08E0F80932204F0E0EF5FFB4F808160
:1020E0008093BB0085EC86C0809323048EC0E09172
:1020F000220481E08E0F809322048091BB00F0E0E7
:10210000EF5FFB4F808390912204809121046EC089
:10211000E091220481E08E0F809322048091BB0025
:10212000F0E0EF5FFB4F80838091240481116DC04C
:1021300081E08093FF0384EA61C083E080932504FB
:102140001092D503CFCF8091D503803208F051C0D3
:10215000E091D50381E08E0F8093D5038091BB0081
:10216000F0E0EB54FC4F8083BDCF85EC8093BC0046
:10217000109225048091D503803230F4E091D5038C
:10218000F0E0EB54FC4F10826091D50370E0E091D9
:10219000B303F091B40385EB93E009951092D50356
:1021A00036C084E0809325041092B2031092B103EC
:1021B000E091AF03F091B00309958091B1038111D3
:1021C00005C081E08093B10310928F03E091B203C8
:1021D00081E08E0F8093B203F0E0E157FC4F8081E5
:1021E0008093BB009091B2038091B103981708F4DB
:1021F00079CF85E88093BC000AC085EC8093BC0051
:102200001092250404C0109223040E94BA0DFF917D
:10221000EF91BF91AF919F918F917F916F915F915E
:102220004F913F912F910F900FBE0F901F901895D7
:10223000E1E8F0E010821092800010928500109288
:10224000840080E89EE3909389008093880082E078
:1022500080936F0089E080830895FC0120812EBD6A
:10226000DC0131969C01260F371FE217F30741F07E
:1022700051910DB407FEFDCF4EB55EBD4D93F5CF28
:1022800061507109FC01E60FF71F0DB407FEFDCF89
:102290008EB5808308958EBD00000DB407FEFDCF7E
:1022A0008EB50895682F606881E00E940E1286E066
:1022B0000E94D10E892BD9F30895CF92DF92EF922D
:1022C000FF926115710509F4A4C0DB01FC0131978F
:1022D000ED30F10520F4E55CFF4F0C946E1E69EDC6
:1022E00086E00E940E1266E011C069ED86E00E9451
:1022F0000E1263E115C069ED86E00E940E1260E2E5
:1023000019C068ED86E00E940E1266EC87E00E941C
:102310000E126BE877C068ED86E00E940E1263ED46
:1023200087E00E940E1268E56DC068ED86E00E94AD
:102330000E1260EE87E00E940E1264E263C068ED48
:1023400086E00E940E126CEE87E00E940E1261EF92
:1023500059C068ED86E00E940E1269EF05C069ED74
:1023600086E00E940E1261E687E00E940E126EEB7C
:1023700049C054968C915497882309F44AC0CD9053
:10238000DD90ED90FC9030C054968C915497823043
:1023900008F43FC01496CD90DD90ED90FC90179717
:1023A00023C054968C915497833098F11896CD9011
:1023B000DD90ED90FC901B9717C054968C9154972C
:1023C000843038F11C96CD90DD90ED90FC901F97F5
:1023D0000BC054968C9154978530D8F05096CD9080
:1023E000DD90ED90FC905397B7018827992786E000
:1023F0000E940E1299278F2D7E2D6D2D87E00E9451
:102400000E126C2D88E0FF90EF90DF90CF900C942F
:102410000E12FF90EF90DF90CF900895CF93DF934F
:10242000D82FC62F60E08AE00E94FA0E8D2F8068B8
:102430000E944B118C2F0E944B1161E08AE0DF91CA
:10244000CF910C94FA0E20914904909148042132C6
:1024500008F04AC0809125048111FCCF32E030930E
:10246000250431E0309324043FEF3093230410928D
:10247000220420932104A8E2B4E041E054E0FA01F0
:102480003E2F341B321718F43D913193F9CF10923F
:10249000000420910004990F922B909300049091D6
:1024A000FF03913061F41092FF0390910004909328
:1024B000BB009091BC0093FDF8CF95EC01C095EE68
:1024C0009093BC00909125049230E1F39091230405
:1024D0009F3F79F080912304803241F08091230462
:1024E000803331F084E005C081E003C082E001C0A8
:1024F00083E0109227041092490410922604089554
:10250000909125049111FCCF91E090932504909334
:1025100024042FEF2093230410922204260F2093EB
:1025200021049093000490910004880F892B8093DC
:1025300000048091FF03813061F41092FF038091C9
:1025400000048093BB008091BC0083FDF8CF85EC34
:1025500001C085EE8093BC00809125048130E1F3B9
:1025600080912204861710F460912204A1E0B4E067
:102570002FED33E0F9018E2F821B861718F48D9111
:102580008193F9CF862F0895009769F0FC0101909F
:102590000020E9F73197AF01481B590BBC018AE4D1
:1025A00094E00C94580780E090E0089589E793E068
:1025B0000C94C412E0914A04F0914B040190F08114
:1025C000E02D682F8AE494E009948F929F92AF9255
:1025D000BF920F931F93CF93DF93CDB7DEB7A19731
:1025E0000FB6F894DEBF0FBECDBF19A2423008F47B
:1025F0004AE08E010F5D1F4F842E912CA12CB12C2F
:10260000A50194010E94E11BE62FB901CA01015006
:102610001109EA3014F4E05D01C0E95CD801EC93E3
:10262000232B242B252B61F7C8010E94C412A196ED
:102630000FB6F894DEBF0FBECDBFDF91CF911F91D3
:102640000F91BF90AF909F908F900895CF93C82F18
:1026500060E08AE00E94FA0E8C2F0E944B1180E00D
:102660000E944B11C82F61E08AE00E94FA0E8C2F65
:10267000CF910895CF93DF93CDB7DEB7CB54D10977
:102680000FB6F894DEBF0FBECDBF789484B58260DC
:1026900084BD84B5816084BD85B5826085BD85B506
:1026A000816085BD80916E00816080936E00109284
:1026B00081008091810082608093810080918100FF
:1026C0008160809381008091800081608093800090
:1026D0008091B10084608093B1008091B0008160EE
:1026E0008093B00080917A00846080937A0080911A
:1026F0007A00826080937A0080917A008160809372
:102700007A0080917A00806880937A001092C100EC
:10271000E0915A04F0915B0482E08083E0915604DA
:10272000F09157041082E0915804F09159048FEC15
:10273000808310926204E0915E04F0915F0486E071
:102740008083E0915C04F0915D04808180618083EE
:10275000E0915C04F0915D04808188608083E09169
:102760005C04F0915D04808180688083E0915C046A
:10277000F0915D0480818F7D80831FB7F8948091F4
:102780007D03811127C0E8EBF0E08491E4EAF0E0FA
:102790009491E82FF0E0EE0FFF1FE057FF4FA59157
:1027A000B491EC91E92321F461E08AE00E94FA0EF1
:1027B00061E08AE00E942A0F8CB580618CBD8CB5E7
:1027C00080648CBD61E08DE00E942A0F61E08BE0A7
:1027D0000E942A0F80917D038F5F80937D031FBF2E
:1027E00080E58CBD1DBC60E084E10E942A0F60E0A2
:1027F00085E10E942A0F61E082E00E942A0F60E0DA
:102800008EE00E942A0F60E083E00E942A0F60E0C1
:1028100084E00E942A0F60E085E00E942A0F60E0B9
:1028200086E00E942A0F60E087E00E942A0F61E0A4
:102830008AE00E942A0F61E088E00E942A0F61E08E
:1028400089E00E942A0F60E082E00E94FA0E61E0B7
:1028500088E00E94FA0E68EB7BE080E090E00E9446
:10286000660F10928703109286031092270410922D
:1028700049041092250481E0809324041092FF0300
:1028800061E082E10E94FA0E61E083E10E94FA0EAB
:102890008091B9008E7F8093B9008091B9008D7FBF
:1028A0008093B90088E48093B80085E48093BC00ED
:1028B0008091F5049091F604892BE1F080E090E09E
:1028C0000E94991B182F61E0680F80E090E00E9441
:1028D000A11B612F70E080E090E06115710581051A
:1028E000910511F00E94901B8091F5049091F604DF
:1028F0000E944C0267EE80E40E94B5028A73482F62
:10290000456066EE80E40E94D80260E088E00E94A4
:10291000FA0E85E00E944B1180E00E944B11182FA7
:1029200061E088E00E94FA0E10FDEFCF60E088E0E1
:102930000E94FA0E89EB0E944B1161E088E00E9430
:10294000FA0E78942BEEE22E2AE0F22E8CE495E03B
:1029500033E0C32ED12C43E2A42EB12C5BE3852EB1
:102960009924939468E0662E680E77E0772E780EAF
:1029700061E082E00E942A0F60E082E00E94FA0E8D
:10298000C7010197F1F760E082E00E942A0FC701BA
:102990000197F1F70E943A030E943A030E9425032F
:1029A0000E9425030E943A030E943A030E942503D5
:1029B0000E9425030CE415E0280198E0292E21E06F
:1029C000312C61E082E02C962FAF2C970E942A0FC9
:1029D00060E082E00E94FA0EC6010197F1F760E024
:1029E00082E00E942A0FC5010197F1F782E00E9460
:1029F000D10E2C962FAD2C97019709F4322A220F75
:102A0000C4010197F1F72A942110DBCFD2013D9246
:102A10002D016A12D2CF61E082E00E94FA0E90E0AE
:102A20007CE0F80151918F0148E0852F892780FDD6
:102A300002C060E001C060E8892F90E09C013595FC
:102A40002795922F603821F4822F8068982F97273E
:102A50005695415051F77012E4CF80915305981369
:102A600087CF48E06CE475E083ED92E00E94EC06CD
:102A7000E091F504F091F604309709F4F6C08281F4
:102A80009381892B09F4F1C0EB57FF4F108210E0BE
:102A90007E01FAE0EF0EF11C5E0122E1A20EB11CF4
:102AA00022242A94322C412C512CFDE08F2E912C83
:102AB000CC24C394D12CB2E06B2E712CE091F504A0
:102AC000F091F604EB57FF4F80818111CEC060E199
:102AD00077E280E090E00E94660F89E592E00E9434
:102AE000C41271E0710F2B967FAF2B97612F70E0AE
:102AF00080E090E04AE00E94E5120E94D612009128
:102B0000F5041091F6040115110509F459C0F801F6
:102B1000EB57FF4F10823C96118210821982D80128
:102B2000AB59BF4FFE0132968E918193EE15FF0592
:102B3000D9F7D801A35ABF4FF7018E918193EA15B7
:102B4000FB05D9F70E948B1BA20191010E94AF1BCC
:102B5000F801E358FF4F6083319670834091F5048C
:102B60005091F604FA01E358FF4F80818A8B319629
:102B700080818B8B9A012F563F4F43595F4F63E102
:102B8000CE0101960E948D044091F5045091F60407
:102B9000FA01E655FF4F80819181A281B3818C8B30
:102BA0009D8BAE8BBF8B8A01075F1F4FB297208131
:102BB00030E047575F4F67E1CE0101960E94E50183
:102BC0000E941811E091F504F091F6041086178226
:102BD0008781908584329341D8F364EF71E0CF010F
:102BE00087579F4F0E948307E091F504F091F60408
:102BF000DF01AB57BF4F8C91882319F010928100F1
:102C000034C0878190858C309741D8F3DF01A1577C
:102C1000BF4F8D929C92CF0183579F4FFC01D18271
:102C2000C08264EF71E00E94830710928100E091FE
:102C3000F504F091F604DF01AB57BF4F8C91811181
:102C400014C0E557FF4F80819181009729F00197CB
:102C500031F47182608205C0D182C08202C01182CB
:102C600010822B961FAD2B9729CF109100018CE07D
:102C7000E4EEF2E0DE01119601900D928A95E1F703
:102C800089E0E0EFF2E0DE01AF5BBF4F01900D9213
:102C90008A95E1F75B9A5398CE018F5B9F4F0E9414
:102CA000930280938A0381E490E08C0F9D1F03962A
:102CB0000E9493028093890381E490E08C0F9D1F12
:102CC00006960E94930280938803CE0105960E9487
:102CD000930280938B03CE010A960E949302809305
:102CE0008D0301E000938E0343E050E060E772E063
:102CF000CE0101960E948D1E892B19F400938C033E
:102D000085C043E050E064E772E0CE0101960E9486
:102D10008D1E892B11F482E077C043E050E068E714
:102D200072E0CE0101960E948D1E892B11F483E082
:102D30006BC043E050E06CE772E0CE0101960E9468
:102D40008D1E892B11F484E05FC043E050E060E801
:102D500072E0CE0101960E948D1E892B11F485E050
:102D600053C043E050E064E872E0CE0101960E9457
:102D70008D1E892B11F486E047C043E050E068E8DF
:102D800072E0CE0101960E948D1E892B11F487E01E
:102D90003BC043E050E06CE872E0CE0101960E9437
:102DA0008D1E892B11F488E02FC043E050E060E9CC
:102DB00072E0CE0101960E948D1E892B11F489E0EC
:102DC00023C043E050E064E972E0CE0101960E9426
:102DD0008D1E892B11F48AE017C043E050E068E9AA
:102DE00072E0CE0101960E948D1E892B11F48BE0BA
:102DF0000BC043E050E06CE972E0CE0101960E9406
:102E00008D1E892B19F48CE080938C0340E060E0E8
:102E10008FE60E94D8026091890380E70E94A80291
:102E2000482F61E08FE60E94D80260918A0380E11A
:102E30000E94A802482F406462E08FE60E94D802F8
:102E400060918E0387E00E94A802482F67E08FE61A
:102E50000E94D80260918B0380E30E94A802482F51
:102E600064E08FE60E94D80260918C0380E10E94AA
:102E7000A802482F65E08FE60E94D80260918D037A
:102E800080EF0E94A802482F66E08FE60E94D802D9
:102E90006091880380E70E94A802482F406860E0A4
:102EA0008FE60E94D8020E94BF0B40E067E08FE6E9
:102EB0000E94D802112319F0812F0E94F60240E1EE
:102EC00067E08FE60E94D8020E94350C88E080936C
:102ED000690082E08DBB10927C0344244394512C02
:102EE00030E8E32EF12C4DE0C42ED12C54E0A52E79
:102EF000B12C60E4362E77E6272E80917C03882360
:102F000009F44FC210927C0361E089E00E94FA0E3E
:102F1000809100010E94F6020E94350CBE016F5F95
:102F20007F4F85EE0E940B0C698170E0762F66273B
:102F30008A81682B61157105F9F080E090E00E94AC
:102F4000251D20E030E04AEF52E40E94DC1D20E025
:102F500030E040E857E30E94DC1D20E030E040EC28
:102F600050E40E94121C6093820370938303809349
:102F700084039093850308C0109282031092830308
:102F80001092840310928503BE016F5B7F4F80EE29
:102F90000E940B0C22966FAD229770E0762F662769
:102FA00023968FAD2397682B61157105F9F080E0AA
:102FB00090E00E94251D22E538EB4FE253E40E9489
:102FC000DC1D20E030E040E857E30E94DC1D26E6EF
:102FD00036E64BE352E40E94121C60937E0370932A
:102FE0007F03809380039093810308C010927E0337
:102FF00010927F0310928003109281030E94D612D8
:103000000E94BF0B80EA92E00E94C41260917E038E
:1030100070917F0380918003909181034AE00E9428
:10302000EB0A8EEA92E00E94C412609182037091D2
:10303000830380918403909185034AE00E94EB0A08
:103040000E94D6128AE494E00E94400D0091F3049D
:103050001091F4040115110551F0F801B296DF0149
:10306000232D1D922A95E9F7D80191961C92609123
:103070007E0370917F0380918003909181030115FD
:103080001105E1F0F80171A0872C912CF1E38F1666
:103090009104A4F420E030E040E251E40E94DC1D01
:1030A0000E94F61CF801E80DF91D12A223A274A3D8
:1030B00065A384E0870DD80191968C93609182037B
:1030C000709183038091840390918503011511050C
:1030D000F9F0F80171A0872C912CF2E38F1691047E
:1030E000BCF4800E911E21E0D40192962C9392970D
:1030F000E8E69396EC939B01AC010E94131C0E949E
:10310000F61CD40194966C9383E0870DF80181A39B
:103110000091F5041091F6040115110509F416C18A
:10312000F801E255FF4F51824082EF55F10980814D
:1031300091813496918380833697808191813496F2
:10314000918380834801F2EB8F0E911CD4018C9106
:10315000813408F03C9281E0F801E656FF4F80830D
:1031600033971082E555F1099081EF5AFF4F908314
:10317000E055F1092081EF5AFF4F2083E055F10916
:103180003081EF5AFF4F3083E055F1094081EF5A0B
:10319000FF4F4083EE54F10950816181E05BFF4FA6
:1031A000508361833801B1E96B0E711CF301F18228
:1031B000E082F0E8F9834A833B832C839D831E825F
:1031C0005F836887D4014C914423E1F0898750E004
:1031D000B8016D547F4FCE010A960E949A1EA80135
:1031E0004E5C5F4F9301F4016081CE010A960E940C
:1031F0004506E091F504F091F604EE54FF4F10817E
:10320000175F01C018E04091F5045091F6049A014F
:103210002F563F4F4E5D5F4F612FCE0101960E94AA
:10322000A8054091F5045091F604E1E0F0E0EC0FC0
:10323000FD1FE10FF11DDA01A655BF4F8D919D9144
:103240000D90BC91A02D80839183A283B383CA018A
:103250000996FA01E45BFF4F208130E0435B5F4F4A
:1032600064E0610F8C01CE0101960E94E501E091BE
:10327000F504F091F604DF01A85BBF4F8D919C919E
:1032800011978F3F2FEF920721F001968D939C931A
:1032900006C082819381892B11F41D921C92309774
:1032A000F1F081A18823D9F0DF01A15BBF4F2D91FF
:1032B0003C9111972F5F3F4F11963C932E93828143
:1032C0009381892B21F4233031054CF006C0858D84
:1032D00090E002968217930714F41D921C920E94AC
:1032E0001811E091F504F091F60410861782878199
:1032F000908584389340D8F364EF71E0CF018F5A02
:103300009F4F0E9483070B9719F4109281001EC0F3
:10331000E091F504F091F604878190858C36974012
:10332000D8F3DF01AD5ABF4FCD92DC92EF5AFF4F79
:10333000B182A082109281008091F5049091F604F0
:103340006CE677E08F5A9F4F0E94830780910906B1
:1033500090910A060B97C9F440910B066CE076E059
:103360008BEB92E00E94EC0680910B068130A1F479
:1033700080910C06882381F0282F30E030930101E2
:10338000209300010E94F60207C041E069E076E068
:103390008AEC92E00E94EC0660E089E00E94FA0E5E
:1033A000ACCD8AE494E00E94400D80917A008F7742
:1033B00080937A00809164008260809364008091A1
:1033C00064008062809364008091640088608093D0
:1033D0006400809164008064809364008091640044
:1033E00081608093640080916400846080936400B5
:1033F0008091640080688093640083B7817F8460DB
:1034000083BFF89483B7816083BF85B7806685BF2B
:103410008F7D85BF7894889583B78E7F83BF78949E
:10342000809164008D7F80936400809164008F7D23
:103430008093640080916400877F80936400809112
:1034400064008F7B80936400809164008E7F809302
:103450006400809164008B7F80936400809164009D
:103460008F778093640080917A00806880937A00DF
:1034700044CD0895CF93DF9310924D0410924C04E5
:1034800088EE93E0A0E0B0E080934E0490934F0468
:10349000A0935004B09351042DE332E030934B04D9
:1034A00020934A0425EC30E03093570420935604CF
:1034B00024EC30E0309359042093580420EC30E0A1
:1034C00030935B0420935A0421EC30E030935D0488
:1034D00020935C0422EC30E030935F0420935E0480
:1034E00026EC30E030936104209360041092630472
:1034F0001092640410926504109266041092EA041B
:103500001092E9048093EB049093EC04A093ED04F3
:10351000B093EE048DE492E09093E8048093E70486
:103520001092F8041092F70481E090E09093FA046E
:103530008093F9049093FC048093FB041092FD04A3
:1035400029E1E0E0F5E0DF011D922A95E9F721E0AD
:103550002093180533E3E6E0F2E0A9E1B5E001903D
:103560000D923A95E1F73CE3ECE4F5E0EF011992B6
:103570003A95E9F730E73093540533EB309355052E
:1035800045ED409356054EE74093570540EF409375
:1035900058054EE340935A054CE040935B05309349
:1035A000640533E23093650532EC309366053DEFF8
:1035B000309367053FED3093680534E33093690538
:1035C0003BE730936A053DE330936B0532EA309375
:1035D0006C0534E030936D0532EF30936E053EE0BC
:1035E00030936F05209370052AE32093710524EA38
:1035F0002093720529E5209373052CE037E1309381
:103600007E0520937D052FE020937F0523E030E0A9
:10361000309381052093800524E030E030938505C8
:10362000209384052DE030E03093870520938605B4
:10363000E8E8F5E022E6DF01C22F1D92CA95E9F71E
:103640009093A6058093A505AAEEB5E0ED01199229
:103650002A95E9F7909308068093070687EF94E090
:103660009093F6048093F504309721F0F093F404DE
:10367000E093F304DF91CF9108958F929F92AF92E0
:10368000BF92CF92DF92EF92FF92CF93DF93EC0144
:10369000688179818A819B81611571058105910518
:1036A00021F464E279ED8BE597E02DE133EF41E021
:1036B00050E00E94AF1B49015A019B01AC01A7EAEF
:1036C000B1E40E94CE1B6B017C01ACEEB4EFA5010E
:1036D00094010E94DC1BDC01CB018C0D9D1DAE1DF5
:1036E000BF1DB7FF03C00197A109B0488883998324
:1036F000AA83BB83BC01CD019F77DF91CF91FF905F
:10370000EF90DF90CF90BF90AF909F908F900895F3
:103710000E943D1B089582E091E00E943D1B0895A8
:10372000609302017093030180930401909305015B
:103730000895F999FECF92BD81BDF89A992780B579
:103740000895262FF999FECF1FBA92BD81BD20BDE5
:103750000FB6F894FA9AF99A0FBE01960895052EBD
:1037600097FB1EF400940E94C61B57FD07D00E94D1
:10377000E11B07FC03D04EF40C94C61B50954095FA
:10378000309521953F4F4F4F5F4F0895909580950D
:10379000709561957F4F8F4F9F4F08950E94031C36
:1037A000A59F900DB49F900DA49F800D911D112495
:1037B0000895B7FF0C94CE1B0E94CE1B821B930B67
:1037C0000895A1E21A2EAA1BBB1BFD010DC0AA1F62
:1037D000BB1FEE1FFF1FA217B307E407F50720F07A
:1037E000A21BB30BE40BF50B661F771F881F991FF5
:1037F0001A9469F760957095809590959B01AC013E
:10380000BD01CF010895A29FB001B39FC001A39F46
:10381000700D811D1124911DB29F700D811D112409
:10382000911D08955058BB27AA270E942A1C0C946A
:103830009D1D0E948F1D38F00E94961D20F039F4C6
:103840009F3F19F426F40C948C1D0EF4E095E7FBD1
:103850000C94861DE92F0E94AE1D58F3BA1762071B
:1038600073078407950720F079F4A6F50C94D01D12
:103870000EF4E0950B2EBA2FA02D0B01B90190018B
:103880000C01CA01A0011124FF27591B99F0593FCF
:1038900050F4503E68F11A16F040A22F232F342F17
:1038A0004427585FF3CF469537952795A795F04065
:1038B0005395C9F77EF41F16BA0B620B730B840B7A
:1038C000BAF09150A1F0FF0FBB1F661F771F881F32
:1038D000C2F70EC0BA0F621F731F841F48F487958A
:1038E00077956795B795F7959E3F08F0B0CF93957C
:1038F000880F08F09927EE0F9795879508950E94F5
:10390000621D08F481E008950E94981C0C949D1D8E
:103910000E94961D58F00E948F1D40F029F45F3FD1
:1039200029F00C94861D51110C94D11D0C948C1D02
:103930000E94AE1D68F39923B1F3552391F3951BB3
:10394000550BBB27AA2762177307840738F09F5FC0
:103950005F4F220F331F441FAA1FA9F335D00E2E2D
:103960003AF0E0E832D091505040E695001CCAF79A
:103970002BD0FE2F29D0660F771F881FBB1F26175D
:1039800037074807AB07B0E809F0BB0B802DBF0134
:10399000FF2793585F4F3AF09E3F510578F00C9403
:1039A000861D0C94D11D5F3FE4F3983ED4F38695B9
:1039B00077956795B795F7959F5FC9F7880F911D24
:1039C0009695879597F90895E1E0660F771F881F10
:1039D000BB1F621773078407BA0720F0621B730BC3
:1039E000840BBA0BEE1F88F7E09508950E94B61D70
:1039F00088F09F5798F0B92F9927B751B0F0E1F0B0
:103A0000660F771F881F991F1AF0BA95C9F714C05F
:103A1000B13091F00E94D01DB1E008950C94D01DFA
:103A2000672F782F8827B85F39F0B93FCCF3869598
:103A300077956795B395D9F73EF4909580957095F5
:103A400061957F4F8F4F9F4F0895E89409C097FB72
:103A50003EF490958095709561957F4F8F4F9F4F65
:103A60009923A9F0F92F96E9BB279395F6958795A9
:103A700077956795B795F111F8CFFAF4BB0F11F46C
:103A800060FF1BC06F5F7F4F8F4F9F4F16C0882313
:103A900011F096E911C0772321F09EE8872F762F49
:103AA00005C0662371F096E8862F70E060E02AF08A
:103AB0009A95660F771F881FDAF7880F9695879576
:103AC00097F90895990F0008550FAA0BE0E8FEEF4B
:103AD00016161706E807F907C0F012161306E407D2
:103AE000F50798F0621B730B840B950B39F40A26CB
:103AF00061F0232B242B252B21F408950A2609F4A9
:103B0000A140A6958FEF811D811D089597F99F67AC
:103B100080E870E060E008959FEF80EC0895002455
:103B20000A941616170618060906089500240A9422
:103B300012161306140605060895092E0394000CA8
:103B400011F4882352F0BB0F40F4BF2B11F460FF37
:103B500004C06F5F7F4F8F4F9F4F089557FD905860
:103B6000440F551F59F05F3F71F04795880F97FB41
:103B7000991F61F09F3F79F08795089512161306FB
:103B80001406551FF2CF4695F1DF08C0161617062A
:103B90001806991FF1CF869571056105089408955F
:103BA000E894BB2766277727CB0197F908950E94F1
:103BB000621D08F48FEF08950E94EF1D0C949D1D67
:103BC0000E948F1D38F00E94961D20F0952311F061
:103BD0000C94861D0C948C1D11240C94D11D0E94F4
:103BE000AE1D70F3959FC1F3950F50E0551F629F76
:103BF000F001729FBB27F00DB11D639FAA27F00D46
:103C0000B11DAA1F649F6627B00DA11D661F829F6C
:103C10002227B00DA11D621F739FB00DA11D621F51
:103C2000839FA00D611D221F749F3327A00D611D6E
:103C3000231F849F600D211D822F762F6A2F112450
:103C40009F5750409AF0F1F088234AF0EE0FFF1F83
:103C5000BB1F661F771F881F91505040A9F79E3FDA
:103C6000510580F00C94861D0C94D11D5F3FE4F348
:103C7000983ED4F3869577956795B795F795E79530
:103C80009F5FC1F7FE2B880F911D9695879597F939
:103C900008950E94621D880B990B0895991B79E085
:103CA00004C0991F961708F0961B881F7A95C9F7CC
:103CB0008095089597FB072E16F4009407D077FDA2
:103CC00009D00E94741E07FC05D03EF490958195A2
:103CD0009F4F0895709561957F4F0895EE0FFF1FD8
:103CE0000590F491E02D0994AA1BBB1B51E107C07C
:103CF000AA1FBB1FA617B70710F0A61BB70B881F7C
:103D0000991F5A95A9F780959095BC01CD0108950A
:103D100081E090E0F8940C94A31EFB01DC0104C048
:103D20008D910190801921F441505040C8F7881BB3
:103D3000990B0895FB01DC0102C001900D924150E6
:103D40005040D8F7089510E0C6E7D0E004C0FE0167
:103D50000E946E1E2196C737D107C9F7F894FFCF8E
:103D6000010001000000637C777BF26B6FC53001BE
:103D7000672BFED7AB76CA82C97DFA5947F0ADD41E
:103D8000A2AF9CA472C0B7FD9326363FF7CC34A5F2
:103D9000E5F171D8311504C723C31896059A0712A7
:103DA00080E2EB27B27509832C1A1B6E5AA0523B96
:103DB000D6B329E32F8453D100ED20FCB15B6ACB4D
:103DC000BE394A4C58CFD0EFAAFB434D338545F955
:103DD000027F503C9FA851A3408F929D38F5BCB6FE
:103DE000DA2110FFF3D2CD0C13EC5F974417C4A770
:103DF0007E3D645D197360814FDC222A908846EE17
:103E0000B814DE5E0BDBE0323A0A4906245CC2D30A
:103E1000AC629195E479E7C8376D8DD54EA96C56A3
:103E2000F4EA657AAE08BA78252E1CA6B4C6E8DD99
:103E3000741F4BBD8B8A703EB5664803F60E613524
:103E400057B986C11D9EE1F8981169D98E949B1EC1
:103E500087E9CE5528DF8CA1890DBFE642684199DC
:103E60002D0FB054BB162B7E151628AED2A6ABF77D
:103E7000158809CF4F3C2B7E151628AED2A6ABF77E
:103E8000158809CF4F3C3A123456000000006C07E9
:103E90000F0400000004000D0000000000F90C58A1
:103EA00007C20CA00CB40C400D00000000480E1816
:103EB0000E100EFC0DED0DEC0D53656E64696E6712
:103EC000204A6F696E20526571756573743A2000DF
:103ED0004A616E00466562004D6172004170720079
:103EE0004D6179004A756E004A756C004175670036
:103EF000536570004F6374004E6F76004465630035
:103F000054656D70657261747572653A20002C207D
:103F100048756D69646974793A2000526563656912
:103F200076656420646174613A0052657476616CF0
:103F30003A20004453323430312044455620455510
:103F4000493A20004F637420203920323031370045
:103F500030393A35313A3231002062797465733B39
:103F600020004465766963652041646472657373FB
:103F70003A20004E6574776F726B205365737369D6
:103F80006F6E204B65793A20004170706C696361F7
:103F900074696F6E2053657373696F6E204B65791A
:103FA0003A20004A6F696E20416363657074204D4A
:103FB0006573736167653A200043466C69737400EA
:103FC000467265713A20006E616E00696E66006F20
:0C3FD000766600206461793A000D0A005A
:107E000085E08093810082E08093C00088E18093C8
:107E1000C10086E08093C20080E18093C40084B7F3
:107E200014BE81FFD0D089E2C8D0259A86E020E335
:107E30003CEF91E0309385002093840096BBB09B8B
:107E4000FECF1D9AA8958150A9F7DD24D394A5E013
:107E5000EA2EF1E1FF2EA4D0813421F481E0BED0DE
:107E600083E024C0823411F484E103C0853419F422
:107E700085E0B4D08AC08535A1F492D0082F10E0F7
:107E800010930102009300028BD090E0982F882776
:107E9000802B912B880F991F9093010280930002F1
:107EA00073C0863529F484E099D080E071D06DC02C
:107EB000843609F043C07CD0E0910002F0910102C9
:107EC00083E080935700E895C0E0D1E069D08993C2
:107ED000809102028150809302028823B9F778D002
:107EE00007B600FCFDCF4091000250910102A0E0D6
:107EF000B1E02C9130E011968C91119790E0982F81
:107F00008827822B932B1296FA010C01D0925700EE
:107F1000E89511244E5F5F4FF1E0A038BF0749F7A5
:107F2000E0910002F0910102E0925700E89507B657
:107F300000FCFDCFF0925700E89527C08437B9F4D4
:107F400037D046D0E0910002F09101023196F093D3
:107F50000102E09300023197E4918E2F19D08091B5
:107F60000202815080930202882361F70EC0853798
:107F700039F42ED08EE10CD085E90AD08FE096CF6F
:107F8000813511F488E019D023D080E101D063CF8E
:107F9000982F8091C00085FFFCCF9093C600089574
:107FA000A8958091C00087FFFCCF8091C6000895FE
:107FB000F7DFF6DF80930202F3CFE0E6F0E098E12E
:107FC00090838083089580E0F8DFEE27FF270994EF
:107FD000E7DF803209F0F7DF84E1DACF1F93182F53
:0C7FE000DFDF1150E9F7F4DF1F91089576
:0400000300007E007B
:00000001FF