:100000000C9477000C949F000C94A2080C949F0011
:100010000C9461080C949F000C949F000C949F001A
:100020000C949F000C949F000C949F000C94480823
:100030000C949F000C949F000C949F000C949F00C4
:100040000C9478110C949F000C9458100C9432105E
:100050000C949F000C949F000C949F000C949F00A4
:100060000C94C2110C949F00C101C701050210023B
:100070001D0229023502CD01D701E101EB01F50195
:10008000FB0199029E02AB02B002B502BA02C302A2
:1000900000000000240027002A00010204081020AC
:1000A000408001020408102001020408102004040A
:1000B0000404040404040202020202020303030310
:1000C000030300000000250028002B0000000000B2
:1000D00023002600290000000008000201000003A0
:1000E00004070000000000000000701CFD14112433
:1000F0001FBECFEFD8E0DEBFCDBF13E0A0E0B1E080
:10010000E2EEF1E402C005900D92A83FB107D9F7E5
:1001100026E0A8EFB3E001C01D92AF3DB207E1F7C2
:1001200010E0C6E7D0E004C02197FE010E94AF2096
:10013000C537D107C9F70E94FE140C94E4200C9433
:100140000000FC019C01205F3F4FDB018D91BD0150
:10015000908189278193E217F307B9F70895FC018D
:1001600020E02F3031F09181892F881F8827881F48
:1001700001C080E09081990F980F91932F5F2031FB
:1001800081F70895EF92FF921F93CF93DF9300D0F2
:1001900000D0CDB7DEB7DB0191E02BE1813041F03B
:1001A000392F3078990F303809F492278150F6CFE3
:1001B0001D96EC911D978E2F8F70E295EF7020E1C8
:1001C000E29FF0011124E80FF11DEC5FFE4F8081EA
:1001D0001E96EC911E972E2F2F70E295EF7030E156
:1001E000E39FF0011124E20FF11DEC5FFE4F20812F
:1001F0002A831F96EC911F972E2F2F70E295EF7098
:1002000030E1E39FF0011124E20FF11DEC5FFE4F9E
:1002100020812B831C96EC911C972E2F2F70E2953A
:10022000EF7030E1E39FF0011124E20FF11DEC5F6C
:10023000FE4F20812C839827998320E030E0BE0177
:100240006F5F7F4F54E0560FF901EE0FFF1FEE0F67
:10025000FF1F7F01EA0EFB1ECB01FC011081F7019D
:100260004081412741937F01FC014193CF015E13FF
:10027000F4CF2F5F3F4F2430310531F70F900F90AF
:100280000F900F90DF91CF911F91FF90EF90089505
:10029000CF93DF93EC0120E030E0DB01A20FB31F2E
:1002A000F901EE0FFF1FEE0FFF1FEC0FFD1F90E097
:1002B00041918C9148274C939F5F14969430C1F7DD
:1002C0002F5F3F4F2430310541F7DF91CF910895E3
:1002D0008EBD00000DB407FEFDCF8EB50895CF93FF
:1002E00060E088E00E94B31085E00E94680180E031
:1002F0000E946801C82F61E088E00E94B3108C2F33
:10030000CF91089560E088E00E94B3108BEA0E94CC
:10031000680180E00E94680180E00E94680180E03E
:100320000E94680180E00E94680161E088E00E940C
:10033000B3100E946F0180FDFCCF0895682F6068A4
:1003400081E00E94B10886E00E948A10892BD9F3CF
:100350000895CF92DF92EF92FF926115710509F433
:10036000A4C0DB01FC013197ED30F10520F4EC5C19
:10037000FF4F0C94AF2069ED86E00E94B10866E063
:1003800011C069ED86E00E94B10863E115C069ED16
:1003900086E00E94B10860E219C068ED86E00E9424
:1003A000B10866EC87E00E94B1086BE877C068EDA1
:1003B00086E00E94B10863ED87E00E94B10868E51D
:1003C0006DC068ED86E00E94B10860EE87E00E9493
:1003D000B10864E263C068ED86E00E94B1086CEE8B
:1003E00087E00E94B10861EF59C068ED86E00E9485
:1003F000B10869EF05C069ED86E00E94B10861E6C9
:1004000087E00E94B1086EEB49C054968C915497D6
:10041000882309F44AC0CD90DD90ED90FC9030C067
:1004200054968C915497823008F43FC01496CD9026
:10043000DD90ED90FC90179723C054968C915497C3
:10044000833098F11896CD90DD90ED90FC901B973D
:1004500017C054968C915497843038F11C96CD90E7
:10046000DD90ED90FC901F970BC054968C915497A3
:100470008530D8F05096CD90DD90ED90FC9053975C
:10048000B7018827992786E00E94B10899278F2D08
:100490007E2D6D2D87E00E94B1086C2D88E0FF90C5
:1004A000EF90DF90CF900C94B108FF90EF90DF9029
:1004B000CF900895CF93DF9383309105D9F064F402
:1004C0008130910589F08230910509F554E07695E7
:1004D00067955A95E1F71BC085309105B1F084F01E
:1004E0008730910591F013C0E5E076956795EA9520
:1004F000E1F70DC043E0769567954A95E1F707C0AF
:10050000769567957695679502C0660F771FEB0124
:100510006115744010F0CFEFD3E0FC013197E73064
:10052000F10508F041C0EF5BFF4F6C2F8FE10C9499
:10053000AF200E94B1086D2F646C04C00E94B10806
:100540006D2F646B8EE10E94B10862E78DE10E941D
:10055000B1086CE024C00E94B1086D2F646A0EC01F
:100560000E94B1086D2F646909C00E94B1086D2F07
:10057000646804C00E94B1086D2F64678EE10E9418
:10058000B10862E708C00E94B1086D2F64678EE170
:100590000E94B10862E88DE10E94B10864E086E241
:1005A000DF91CF910C94B108DF91CF910895BF9264
:1005B000CF92DF92EF92FF920F931F93CF93DF932F
:1005C0001F92CDB7DEB76C01B62E7A0181E0298388
:1005D0000E949E0164EF71E0F701808191810E9489
:1005E0005A02B801F701828193810E94A90160E457
:1005F00080E40E94B10867E283E30E94B1086DE1E4
:100600008BE30E94B1082981622F606F89E00E940C
:10061000B1086B2D82E20E94B1088EE00E94D109E0
:10062000682F8DE00E94B10860E08AE00E94B3105C
:1006300080E80E9468016B2D70E06115710519F06A
:10064000C6010E94051361E08AE00E94B31063E8CE
:1006500081E00E94B10884E00E948A10892BD9F3BE
:1006600068E082E10F90DF91CF911F910F91FF9091
:10067000EF90DF90CF90BF900C94B108CF93DF93B1
:10068000EC0160E081E00E94B1086AE070E080E087
:1006900090E00E941F1160E881E00E94B10881E0B3
:1006A0000E949E01BE01675F7F4F80E090E00E9444
:1006B000A9016FEF89E00E94B10863E28CE00E941B
:1006C000B10864EF71E080E090E00E945A0265E2B8
:1006D0008FE10E94B10860E080E20E94B10868E00A
:1006E00081E20E94B10864E389E30E94B10860E8F6
:1006F0008EE00E94B10860E08FE00E94B10860E8DF
:1007000081E0DF91CF910C94B108FC01908180EDE4
:10071000890F8A3038F4990F9056292F220F220F13
:10072000920F01C090E0818180538A3008F4980FC5
:10073000892F0895482F862F6AE00E948F2050E16C
:10074000859F90011124842F8223892B0895CF93B4
:10075000C82F81E080934C04C0936E0410924D0426
:1007600010926F048DE095E00E9401100E94C6086F
:1007700061E08C2F0E9423091092D7068093D60641
:100780008DE095E00E94B50FC82F0E94C6088C2FFF
:10079000CF910895CF93DF931F92CDB7DEB791E04D
:1007A00090934C0480936E0410924D0410926F0449
:1007B0008DE095E049830E9401104981642F8DE00E
:1007C00095E00E9401100F90DF91CF910C94C60824
:1007D000CF93C82F61E08FE60E94A703682F6F7048
:1007E0009C2FCC3308F09BE3262F290F682F6077CE
:1007F000669566956695962F990F990F690F620F0A
:100800006C3308F06B5380E70E949A03482F6BE02B
:100810008FE60E94CA036DE08FE60E94A7038770EF
:10082000482F40616DE08FE6CF910C94CA0361E0E0
:1008300082E00E94E31060E082E00E94B3108BE34C
:1008400091E00197F1F760E082E00E94E31083E01D
:1008500090E00197F1F7089561E082E00E94E310D3
:1008600060E082E00E94B31083E090E00197F1F72E
:1008700060E082E00E94E3108BE391E00197F1F7E2
:1008800008954F925F927F928F929F92AF92BF9204
:10089000CF92DF92EF92FF920F931F93CF93DF934C
:1008A000CDB7DEB7A9970FB6F894DEBF0FBECDBFA8
:1008B0006C0180E090E08E010F5F1F4FDC01AA0FFA
:1008C000BB1FAA0FBB1FAC0DBD1D20E030E0FD908B
:1008D000A901480F591F400F511FFA01F0822C5FE8
:1008E0003F4F2031310599F701968430910531F75A
:1008F00080E1FB01DE01519601900D928A95E1F7AE
:10090000B801CE0141960E94480121E034E0932EC7
:10091000900E4BE1842E7801C801702EDC0130E08E
:10092000EC914E2F4F70E295EF7050E1E59FF00192
:100930001124E40FF11DEC5FFE4F40814C933F5FAB
:100940001496343069F701969812E8CF8D819E8114
:100950009D839F819E8398859F83888789859B85BA
:1009600099878B878A859C859A878C8788899F85BC
:10097000988B9E859F879D859E878D87CE010D963E
:100980002801BE016B5D7F4FFE01B19640E050E053
:100990005201A40EB51ED501BC90DB01BD92BD0174
:1009A0003B2D330FB7FC382530834C5F5F4F3196BA
:1009B0004031510569F76EA149A146277FA1B8A42E
:1009C0003AA137273B25532F5427F20151932F018A
:1009D000ADA05BA1FC0138973A25352730833CA1B7
:1009E00034966B256A255627532750837A25372757
:1009F0004327DC014D93CD019410C3CFBE016F5E40
:100A00007F4F822F29A70E94C200B801CE014196D4
:100A10000E94480129A52F5F2A3009F07CCF94E07D
:100A2000970DD70180E0EC912E2F2F70E295EF709B
:100A300030E1E39FF0011124E20FF11DEC5FFE4F66
:100A400020812C938F5F1496843069F75FEFE51A4D
:100A5000F50A9E11E6CF8D819E819D839F819E83A5
:100A600098859F83888789859B8599878B878A85C9
:100A70009C859A878C8788899F85988B9E859F8780
:100A80009D859E878D87BE016F5E7F4F8AE00E94A5
:100A9000C200B801CE0141960E94480180E090E07A
:100AA000FC01EE0FFF1FEE0FFF1FEC0DFD1D20E000
:100AB00030E0D901A80FB91FA00FB11F4C9141938D
:100AC0002C5F3F4F20313105A1F70196843091050D
:100AD00039F7A9960FB6F894DEBF0FBECDBFDF91F0
:100AE000CF911F910F91FF90EF90DF90CF90BF902B
:100AF000AF909F908F907F905F904F9008952F922E
:100B00003F924F925F926F927F928F929F92AF929D
:100B1000BF92CF92DF92EF92FF920F931F93CF93EA
:100B2000DF93CDB7DEB7C554D1090FB6F894DEBF59
:100B30000FBECDBF4C013A0123963FAF2EAF239796
:100B400080E17E0191E3E90EF11CD701E82F1D92AF
:100B5000EA95E9F75E01F1E2AF0EB11CD501E82F8D
:100B60001D92EA95E9F76E01F1E1CF0ED11CD60195
:100B7000E82F1D92EA95E9F78E010F5F1F4FD8010C
:100B80001D928A95E9F7262E22942FE02222262F05
:100B90002F7009F02394B301C70126962FAF269733
:100BA0000E94410459A8C7010E94AF0026962FADAC
:100BB000269757FE08C021969FAD219787E8892781
:100BC00021968FAF2197D501F70180E18E0D91918C
:100BD0009D938E13FCCF59A0C50126962FAF269763
:100BE0000E94AF0026962FAD269757FE04C098A905
:100BF00087E8892788AB30E0312CB1E02B1A310827
:100C000040E1400FE32FF0E0E215F30584F594E0B6
:100C1000EE0FFF1F9A95E1F7E80DF91D2801D801A5
:100C200081918D934A13FCCFB601C80126962FAF50
:100C3000269724963FAF249725964FAF25970E947D
:100C4000A100B301C8010E944104F60125964FADF1
:100C5000259724963FAD249726962FAD2697D2014F
:100C60008D912D0181934A13FACF3F5FCBCF84E062
:100C7000220C331C8A95E1F721110CC0D401A20D7E
:100C8000B31DF80180E1800F9D9191938E13FCCFED
:100C9000B7011FC0F80180E090E0A801420F511D8C
:100CA00060E8382F821738F4DC01A20DB31DA80DBF
:100CB000B91D7C917083321303C0DA016C9303C0B9
:100CC000231708F41082019631968031910549F777
:100CD000B501C8010E94A100B601C8010E94A1008F
:100CE000B301C8010E94410489812396EEADFFAD96
:100CF0002397818F8A81828F8B81838F8C81848FD0
:100D0000CB5BDF4F0FB6F894DEBF0FBECDBFDF91D8
:100D1000CF911F910F91FF90EF90DF90CF90BF90F8
:100D2000AF909F908F907F906F905F904F903F908B
:100D30002F900895CF92DF92EF92FF920F931F931F
:100D4000CF93DF93CDB7DEB7C056D1090FB6F89475
:100D5000DEBF0FBECDBF092FD90199E462969FAFC8
:100D6000629763961FAE639764961FAE649765960D
:100D70001FAE659766961FAE66972D913C911197B1
:100D80002038310519F02034310521F467961FAE63
:100D9000679704C091E067969FAF679715969C91FF
:100DA000159768969FAF689714969C9114976996CB
:100DB0009FAF699713969C9113976A969FAF6A9716
:100DC00012969C9112976B969FAF6B9717962C91EA
:100DD000179718969C9118976C962FAF6C976D96F5
:100DE0009FAF6D976E961FAE6E976F961FAE6F9703
:100DF000A0961FAEA097A1966FAFA1979E012F5FFF
:100E00003F4FFE01EF5AFF4F6F01722F932F10E1FA
:100E10001E0FF601F1906F01F901F1929F011C1173
:100E2000F8CF182F9E012F5E3F4FE82EF02E8E2D0B
:100E3000811B861738F4F70181917F01F9018193B5
:100E40009F01F5CF605F9D01872F0E947F05C05AEB
:100E5000DF4F0FB6F894DEBF0FBECDBFDF91CF914D
:100E60001F910F91FF90EF90DF90CF9008952F92F8
:100E70003F924F925F926F927F928F929F92AF922A
:100E8000BF92CF92DF92EF92FF920F931F93CF9377
:100E9000DF93CDB7DEB761970FB6F894DEBF0FBE14
:100EA000CDBF8901009709F470C04115510509F4BF
:100EB0006CC0662309F469C0232B09F466C0562E62
:100EC00052942FE05222362F3F7009F053945A016A
:100ED0007C01612C712C412C33243394CE0101967A
:100EE0006C01852C912C91E0891A910880E1282EC3
:100EF0002C0C451409F449C039821A821B821C82C9
:100F00001D82F801808191818038910519F080342B
:100F1000910511F41E8201C03E82F80185818F8304
:100F2000848188878381898782818A879781808568
:100F30009B878C871D861E861F864394488AB50131
:100F4000C601398B0E94410439896814790449F03B
:100F5000D701F60181919C9189278D932E12FACFAA
:100F60000DC0311101C030E1D701F60181919C9192
:100F700089278D938E2F8C198317C0F3FFEF6F1A7B
:100F80007F0A80E1E80EF11CB4CF61960FB6F894A9
:100F9000DEBF0FBECDBFDF91CF911F910F91FF90AC
:100FA000EF90DF90CF90BF90AF909F908F907F9009
:100FB0006F905F904F903F902F900895CF93C82FE0
:100FC000E0911905F0911A05309771F09F012E5D9F
:100FD0003F4F80E4D9011D928A95E9F783E082A30F
:100FE00091E093A3C4A381A31092CC051092CB05EA
:100FF0000E94E5090E94790987E592E00E94CF09E5
:101000008C2FCF910C94BE09EF92FF920F931F93F8
:10101000CF93DF93162F072FF42E0E94CF0980E77E
:1010200094E00E94F90E6F2D70E080E090E04AE0BD
:101030000E947D098EE692E00E94CF09E12EC12F29
:10104000D02F8C2F8E198F15D8F48E01699162954F
:101050006F7070E080E090E040E10E947D09F8014F
:1010600060816F7070E080E090E040E10E947D0957
:1010700080E20E94E60A80E794E00E94F90EE1CF48
:10108000DF91CF911F910F91FF90EF900C94790910
:101090001F920F920FB60F9211248F939F93EF938D
:1010A000FF93EDE1F5E08781908501969087878336
:1010B000FF91EF919F918F910F900FBE0F901F9016
:1010C00018951F920F920FB60F9211242F933F93F2
:1010D0004F935F936F937F938F939F93AF93BF9340
:1010E000EF93FF938EE00E948A10892B69F0809124
:1010F0007C0690917D068F3F2FEF920729F0019695
:1011000090937D0680937C068FE00E948A10892B45
:1011100029F080E10E948A10892B19F481E08093E4
:10112000F803FF91EF91BF91AF919F918F917F91C4
:101130006F915F914F913F912F910F900FBE0F9044
:101140001F9018951F920F920FB60F9211248F9334
:1011500081E08093F9038F910F900FBE0F901F9045
:101160001895CF93DF93D82FC62F60E08AE00E94B6
:10117000B3108D2F80680E9468018C2F0E94680137
:1011800061E08AE0DF91CF910C94B31020916F045D
:1011900090916E04213208F04AC080914B04811175
:1011A000FCCF32E030934B0431E030934A043FEF00
:1011B000309349041092480420934704AEE4B4E00D
:1011C00047E254E0FA013E2F341B321718F43D91E8
:1011D0003193F9CF1092260420912604990F922B77
:1011E0009093260490912504913061F41092250487
:1011F000909126049093BB009091BC0093FDF8CF92
:1012000095EC01C095EE9093BC0090914B04923008
:10121000E1F3909149049F3F79F080914904803235
:1012200041F080914904803331F084E005C081E0D1
:1012300003C082E001C083E010924D0410926F045D
:1012400010924C04089590914B049111FCCF91E0C1
:1012500090934B0490934A042FEF209349041092EB
:101260004804260F20934704909326049091260467
:10127000880F892B8093260480912504813061F4A6
:1012800010922504809126048093BB008091BC00BD
:1012900083FDF8CF85EC01C085EE8093BC00809182
:1012A0004B048130E1F380914804861710F460917B
:1012B0004804A7E2B4E025E034E0F9018E2F821B58
:1012C000861718F48D918193F9CF862F0895009792
:1012D00069F0FC0101900020E9F73197AF01481B4C
:1012E000590BBC0180E794E00C94231380E090E05C
:1012F00008958DE793E00C9467098F929F92AF92C7
:10130000BF920F931F93CF93DF93CDB7DEB7A19713
:101310000FB6F894DEBF0FBECDBF19A2423008F45D
:101320004AE08E010F5D1F4F842E912CA12CB12C11
:10133000A50194010E941B1EE62FB901CA010150AC
:101340001109EA3014F4E05D01C0E95CD801EC93C6
:10135000232B242B252B61F7C8010E946709A19636
:101360000FB6F894DEBF0FBECDBFDF91CF911F91B6
:101370000F91BF90AF909F908F900895CF93DF9380
:10138000682F70E080E090E04AE00E947D09EC0167
:101390000E9479098C0F9D1FDF91CF9108950C94C5
:1013A0006709CF93C82F60E08AE00E94B3108C2FAA
:1013B0000E94680180E00E946801C82F61E08AE015
:1013C0000E94B3108C2FCF910895CF92DF92EF92AD
:1013D000FF920F931F93CF93DF93CDB7DEB7C05427
:1013E000D1090FB6F894DEBF0FBECDBF00911B052B
:1013F00010911C050115110509F4D8C0780122EBE4
:10140000E20EF11CF7018081813410F080E48083CA
:1014100081E0F801E656FF4F808333971082E5554F
:10142000F1092081EF5AFF4F2083E055F109308107
:10143000EF5AFF4F3083E055F1094081EF5AFF4FDB
:101440004083E055F1095081EF5AFF4F5083EE542D
:10145000F10990818181E05BFF4F908381837696D3
:10146000608171817D976F016130710519F460E8C9
:1014700070E002C060E470E071836083F601608117
:1014800069835A834B833C832D831E829F83888785
:10149000F70140814423E9F081E0898750E0B801F9
:1014A0006D547F4FCE010A960E94DB20A8014E5C4E
:1014B0005F4F9601F7016081CE010A960E943707BF
:1014C000E0911B05F0911C05EE54FF4F1081175F52
:1014D00001C018E040911B0550911C059A012F5640
:1014E0003F4F4E5D5F4F612FCE0101960E949A06DD
:1014F00040911B0550911C05E1E0F0E0EC0FFD1F51
:10150000E10FF11DDA01A655BF4F8D919D910D9010
:10151000BC91A02D80839183A283B383CA010996D5
:10152000FA01E45BFF4F208130E0435B5F4F64E0F2
:10153000610F8C01CE0101960E94D702E0911B053C
:10154000F0911C05DF01A85BBF4F8D919C91119715
:101550008F3F2FEF920721F001968D939C9306C049
:1015600082819381892B11F41D921C923097F1F0A6
:1015700081A18823D9F0DF01A15BBF4F2D913C9160
:1015800011972F5F3F4F11963C932E938281938149
:10159000892B21F4233031054CF006C0858D90E075
:1015A00002968217930714F41D921C92C05CDF4FC1
:1015B0000FB6F894DEBF0FBECDBFDF91CF911F9164
:1015C0000F91FF90EF90DF90CF900895E09170041D
:1015D000F09171040190F081E02D682F80E794E094
:1015E00009947F928F929F92AF92BF92CF92DF9297
:1015F000EF92FF920F931F93CF93DF93CDB7DEB798
:10160000C154D1090FB6F894DEBF0FBECDBFE09034
:101610001B05F0901C05E114F10409F40FC35B01F4
:101620006C01D7018D919C91892B59F560E080E484
:101630000E94B10867E683E30E94B10869E18BE389
:101640000E94B108B501F601808191810E945A0281
:10165000B701675F7F4FD60112968D919C911397CA
:101660000E94A90186E00E949E0184E00E948A10E7
:10167000892B09F0ECC285E00E948A10892BA9F31E
:10168000E6C281E00E949E01E0911B05F0911C05DD
:10169000EE5EFE4F8DE090E091838083E0901B052D
:1016A000F0901C05BEEEEB1ABEEFFB0AF70180813D
:1016B00091810D9709F05FC082E10E94D10985FFF9
:1016C00004C052E0A52EB12C03C0AA24A394B12CCF
:1016D00080E10E94D109682F83E122966FAF2297A3
:1016E0000E94D109182F22966FAD22978DE00E949B
:1016F000B10860E08AE00E94B31080E00E946801B7
:10170000612F70E06115710521F0CE0101960E94F4
:10171000051361E08AE00E94B31060EE82E10E944E
:10172000B108D701AD92BC92E0901B05F0901C056A
:10173000F701808191810197F1F460E080E40E94DB
:10174000B10867E683E30E94B10869E18BE30E9478
:10175000B10864EF71E0D6018D919C910E945A020C
:10176000B701675F7F4FF601828193810E94A901D3
:1017700085E00E949E0160EE82E10E94B10860E86F
:1017800081E00E94B10840911B0550911C05FA01AF
:10179000EE5EFE4F80819181019709F052C28981EE
:1017A0009A012D503F4F682F70E0D9016D937C93C3
:1017B000803609F4AAC130F4803259F0803409F03F
:1017C00030C2A3C1803809F4A0C1803A09F029C20F
:1017D0009CC1E12EF12CB1E0EB1AF10834E0F59454
:1017E000E7943A95E1F700E0802F90E0E0911B0547
:1017F000F0911C058E159F059CF4BF0163597F4F26
:1018000024E0880F991F2A95E1F70196E1E0F0E0C6
:10181000EC0FFD1F8E0F9F1F0E9441040F5FE4CF4E
:101820000CEFD02ED10E9F012D503F4FAF014359E9
:101830005F4F6D2DCE0101960E947F0500911B0523
:1018400010911C05ED2CF12CB801645F7E4F44E033
:1018500050E081E090E08C0F9D1F8E0D9F1D0E9437
:10186000CE20892B09F0F0C1F801EE5EFE4FA3E017
:10187000AA2EB12CB182A082EA81D801A158BF4F13
:10188000EC937B8111967C936C8111966C935D81B6
:1018900011965C934E8111964C939F8111969C9367
:1018A000DF9788858C93119789858C9311978A850A
:1018B0008C9311978B858C938C85282F207730E023
:1018C000B4E035952795BA95E1F7D8015E962C934B
:1018D0005E978F705F968C935F978D8590968C93B3
:1018E000909781E092968C9392979396EC9393972E
:1018F00094967C93949795966C93959796965C9313
:10190000969797964C93979798969C939897F801EB
:10191000E358FF4F8081F80181A7E258FF4F808193
:101920009A968C939A979B961C929B979C961C9246
:101930009C979D961C929D979E961C929E979F9613
:101940001C929F97D0961C92D097D1961C92D197BB
:10195000C8018296D29620E1FC0101900D922A9551
:10196000E1F722E0F80122ABB80163597F4F0E94F2
:10197000410480911B0590911C05BC0163597F4F68
:10198000C2960E94410480911B0590911C05FC01A8
:10199000E85BFF4F11821082329711821082FDE0C6
:1019A000FD1590F160911B0570911C056E5B7F4FDA
:1019B00044E080E893E00E94040860911B05709168
:1019C0001C056E5D7F4F40E181E993E00E940408B1
:1019D00060911B0570911C056E5C7F4F40E187EAAA
:1019E00093E00E94040880911B0590911C05FC0166
:1019F000EC5EFE4F1082EF58F10921E02083E3579F
:101A0000FF4F8CE090E00FC14D2DBE016F5F7F4F07
:101A100081EC93E00E940408C7010E97B5010E9473
:101A20009B20F62E25E0261710F4F5E0FF2E87ED1B
:101A300093E00E9467090E9479098E01005F1F4FA1
:101A4000E12CEF1409F4AECFD8012C91822F90E055
:101A5000A0E0B0E0BC0155274427F801329780810F
:101A6000482B319680819A01AB01382BA4E6B0E077
:101A70000E94081E4B015C01DC01CB01815C9E458C
:101A8000AD4AB3438F339244AF40B105D0F5C09017
:101A90001B05D0901C05D6015D967C90B5E0B7156E
:101AA00080F18EED93E00E94CF094AE0C501B401B8
:101AB0000E947D0989E00E94E60AC501B4010E94E6
:101AC000661F27ED33E244E752E40E94BE1E0E94E7
:101AD000371F4B015C014AE00E947D090E94790991
:101AE000F60124E0729EE00DF11D1124818692869C
:101AF000A386B486E0911B05F0911C05858D8F5F50
:101B0000858FE3940D5F1F4F9CCFFA01EB50FF4F81
:101B10008D81808331968C81808331968B81808307
:101B200031968A81808331968E8180833196888533
:101B300090E0982F88276F81862B918380837CEF9C
:101B4000F72EF10E4E5D5F4F6F2DCE0101960E9474
:101B50009A0600911B0510911C05B801645F7E4F29
:101B600044E050E081E090E08C0F9D1F8F0D911DAF
:101B70000E94CE20892B31F0F801EE5EFE4F85E009
:101B800090E011C044E050E0B8016E5B7F4FC801A7
:101B90008B509F4F0E94CE20F801892B39F0EE5ECA
:101BA000FE4F87E090E0918380836EC0E750FF4F47
:101BB00090819F7088E0890FF81651F1E98433967F
:101BC000E0828F2D891B27EFF22EF80E7896F08297
:101BD00068013BEEC31A3EEFD30A4F2D50E0975FEA
:101BE00061E070E06C0F7D1F690F711DC6010E94DE
:101BF000DB2098012D503F4FA801E11003C04E5D3E
:101C00005F4F02C04E5C5F4F6F2DC6010E943707C9
:101C1000E0911B05F0911C05EE5EFE4F8BE090E01D
:101C200002C088E090E091838083E0911B05F091F1
:101C30001C05EE5EFE4F8081918126C08FE090E012
:101C400023C082E090E020C084E090E01DC085E0E9
:101C50000E948A100197A9F460EE82E10E94B10807
:101C600079E0A72EB12C84E00E948A10019719F424
:101C70006DE0A62EB12CF701EE5EFE4FB182A08280
:101C80000DCDA12CB12CEFCFCF5BDF4F0FB6F89469
:101C9000DEBF0FBECDBFDF91CF911F910F91FF909F
:101CA000EF90DF90CF90BF90AF909F908F907F90FC
:101CB0000895FC01918D828D981761F0828DDF016E
:101CC000A80FB11D5D968C91928D9F5F9F73928F2F
:101CD00090E008958FEF9FEF0895FC01918D828D24
:101CE000981731F0828DE80FF11D858D90E00895F1
:101CF0008FEF9FEF0895FC01918D228D892F90E049
:101D0000805C9F4F821B91098F739927089580E70C
:101D100094E00E947B0E21E0892B09F420E0822FC1
:101D20000895FC01848DDF01A80FB11DA35ABF4F98
:101D30002C91848D90E001968F739927848FA689CA
:101D4000B7892C93A089B1898C9180648C93938DF1
:101D5000848D981306C00288F389E02D80818F7DE1
:101D600080830895EF92FF920F931F93CF93DF9399
:101D7000EC0181E0888F9B8D8C8D981305C0E889DC
:101D8000F989808185FD24C0F62E0B8D10E00F5F50
:101D90001F4F0F731127E02E8C8DE8120CC00FB669
:101DA00007FCFACFE889F989808185FFF5CFCE015C
:101DB0000E94910EF1CF8B8DFE01E80FF11DE35AC9
:101DC000FF4FF0820B8FEA89FB898081806207C018
:101DD000EE89FF896083E889F98980818064808346
:101DE00081E090E0DF91CF911F910F91FF90EF90F4
:101DF0000895CF93DF93EC01888D8823C9F0EA8999
:101E0000FB89808185FD05C0A889B9898C9186FDF3
:101E10000FC00FB607FCF5CF808185FFF2CFA889F0
:101E2000B9898C9185FFEDCFCE010E94910EE7CF4D
:101E3000DF91CF91089580E090E0892B29F00E94F6
:101E4000870E81110C9400000895833081F028F4EE
:101E5000813099F08230A1F008958730A9F0883060
:101E6000B9F08430D1F4809180008F7D03C08091DF
:101E700080008F7780938000089584B58F7702C0AB
:101E800084B58F7D84BD08958091B0008F7703C0A5
:101E90008091B0008F7D8093B00008953FB7F89493
:101EA0008091D2069091D306A091D406B091D50628
:101EB00026B5A89B05C02F3F19F00196A11DB11DA5
:101EC0003FBFBA2FA92F982F8827820F911DA11DE0
:101ED000B11DBC01CD0142E0660F771F881F991F1D
:101EE0004A95D1F7089585ED8093BC008091BC00A0
:101EF00084FDFCCF10924B0408954091A806262F34
:101F000030E0240F311D21323105DCF420914B04E7
:101F10002430C9F4FC0180E090E0861758F4309139
:101F2000A8062191DC01AA57B94FA30FB11D2C932C
:101F30000196F3CF8091A806680F6093A80680E011
:101F4000089581E0089582E008950895E091D7060C
:101F50008091D606E81730F4F0E0EB5FFB4F80810C
:101F600090E008958FEF9FEF08959091D7068091AC
:101F7000D606981750F4E92FF0E0EB5FFB4F208175
:101F800030E09F5F9093D70602C02FEF3FEFC9016B
:101F900008958091D60690E02091D706821B910982
:101FA0000895CF92DF92EF92FF920F931F93CF93FA
:101FB000DF937C01262F972F8A0180914C04882380
:101FC00091F0C62FD72F6E01C40ED51ECC15DD059E
:101FD00071F06991D701ED91FC910190F081E02DB4
:101FE000C7010995F3CF642F822F0E947D0FC8018E
:101FF000DF91CF911F910F91FF90EF90DF90CF90E5
:102000000895CF93DF931F92CDB7DEB769832091F8
:102010004C042223D1F020916F04203240F021E0C3
:1020200030E0FC013383228380E090E015C0809192
:102030004D04E82FF0E0E25BFB4F998190838F5FC6
:1020400080934D0480936F0405C061E0CE0101963A
:102050000E947D0F81E090E00F90DF91CF91089575
:102060000E94C9201F920F920FB60F9211242F9336
:102070003F934F935F936F937F938F939F93AF9310
:10208000BF93EF93FF9380E794E00E94910EFF913E
:10209000EF91BF91AF919F918F917F916F915F91E0
:1020A0004F913F912F910F900FBE0F901F90189559
:1020B0001F920F920FB60F9211242F938F939F931D
:1020C000EF93FF93E0918004F09181048081E0918F
:1020D0008604F091870482FD12C09081809189046A
:1020E0008F5F8F7320918A04821751F0E0918904E9
:1020F000F0E0E059FB4F958F8093890401C0808107
:10210000FF91EF919F918F912F910F900FBE0F90A4
:102110001F901895CF93DF93282F30E0F901EA52F2
:10212000FF4F8491F901E656FF4FD491F901E25532
:10213000FF4FC491CC2391F081110E94250FEC2F09
:10214000F0E0EE0FFF1FE453FF4FA591B491EC9127
:10215000ED2381E090E021F480E002C080E090E097
:10216000DF91CF9108951F93CF93DF93282F30E015
:10217000F901EA52FF4F8491F901E656FF4FD491DD
:10218000F901E255FF4FC491CC23C9F0162F8111FC
:102190000E94250FEC2FF0E0EE0FFF1FEE53FF4FD4
:1021A000A591B4918FB7F894111105C09C91ED2FB2
:1021B000E095E92302C0EC91ED2BEC938FBFDF910A
:1021C000CF911F910895CF93DF9390E0FC01E656E5
:1021D000FF4F2491FC01E255FF4F8491882361F168
:1021E00090E0880F991FFC01E057FF4FC591D491F3
:1021F000FC01EE53FF4FA591B491611109C09FB747
:10220000F8948881209582238883EC912E230BC03B
:10221000623061F49FB7F8943881822F80958323D0
:102220008883EC912E2B2C939FBF06C08FB7F89418
:10223000E8812E2B28838FBFDF91CF9108958F9255
:102240009F92AF92BF92CF92DF92EF92FF926B017B
:102250007C010E944E0F4B015C01C114D104E104CA
:10226000F104F1F00E944E0FDC01CB0188199909AD
:10227000AA09BB09883E9340A105B10570F321E08E
:10228000C21AD108E108F10888EE880E83E0981E92
:10229000A11CB11CC114D104E104F10419F7DDCF74
:1022A000FF90EF90DF90CF90BF90AF909F908F9076
:1022B000089592EF980F923708F4892F8F708064F9
:1022C00080937C0061E070E080E090E00E941F114C
:1022D00080917A00806480937A0080917A0086FDF4
:1022E000FCCF809178002091790090E0922B0895A6
:1022F0001F920F920FB60F9211242F933F938F933B
:102300009F93AF93BF938091CE069091CF06A091FB
:10231000D006B091D1063091CD0623E0230F2D37A2
:1023200020F40196A11DB11D05C026E8230F0296D9
:10233000A11DB11D2093CD068093CE069093CF06AC
:10234000A093D006B093D1068091D2069091D30687
:10235000A091D406B091D5060196A11DB11D809320
:10236000D2069093D306A093D406B093D506BF911E
:10237000AF919F918F913F912F910F900FBE0F9032
:102380001F9018951F920F920FB60F9211242F9342
:102390003F934F935F936F937F938F939F93AF93ED
:1023A000BF93EF93FF938091B900887F803609F443
:1023B0009CC068F5883209F45BC090F4803109F460
:1023C00054C038F4882309F4F6C0883009F44DC0AD
:1023D000F6C0883109F44CC0803209F45DC0EFC00A
:1023E000803409F468C048F4803309F455C0883358
:1023F00009F0E5C080934904D8C0803509F44FC086
:10240000883509F45DC0883409F0D9C0D6C0883950
:1024100009F4C7C0A8F4883709F467C038F48836CF
:1024200009F463C0803709F460C0C9C0883809F472
:10243000B8C0803909F45FC0803809F0C0C05BC003
:10244000803B09F486C038F4803A09F466C0883AC3
:1024500009F47FC0B4C0803C09F4A7C0883C09F4EB
:10246000A4C0883B09F48AC0AAC08091260410C089
:102470009091480480914704981770F5E0914804C2
:1024800081E08E0F80934804F0E0E95DFB4F80818E
:102490008093BB0085EC86C0809349048EC0E09198
:1024A000480481E08E0F809348048091BB00F0E0E7
:1024B000E95DFB4F808390914804809147046EC092
:1024C000E091480481E08E0F809348048091BB0026
:1024D000F0E0E95DFB4F808380914A0481116DC07B
:1024E00081E08093250484EA61C083E080934B04FB
:1024F0001092CC06CFCF8091CC06803208F051C02C
:10250000E091CC0681E08E0F8093CC068091BB00D9
:10251000F0E0E455F94F8083BDCF85EC8093BC009B
:1025200010924B048091CC06803230F4E091CC06BE
:10253000F0E0E455F94F10826091CC0670E0E09134
:10254000AA06F091AB068CEA96E009951092CC06AB
:1025500036C084E080934B041092A9061092A8061E
:10256000E091A606F091A70609958091A806811131
:1025700005C081E08093A80610928606E091A90626
:1025800081E08E0F8093A906F0E0EA57F94F808131
:102590008093BB009091A9068091A806981708F433
:1025A00079CF85E88093BC000AC085EC8093BC009D
:1025B00010924B0404C0109249040E94730FFF91C3
:1025C000EF91BF91AF919F918F917F916F915F91AB
:1025D0004F913F912F910F900FBE0F901F90189524
:1025E000E1E8F0E0108210928000109285001092D5
:1025F000840080E89EE3909389008093880082E0C5
:1026000080936F0089E080830895FC0120812EBDB6
:10261000DC0131969C01260F371FE217F30741F0CA
:1026200051910DB407FEFDCF4EB55EBD4D93F5CF74
:1026300061507109FC01E60FF71F0DB407FEFDCFD5
:102640008EB580830895CF92DF92EF92FF920F9321
:102650001F93CF93DF936C017A018B01C0E0D0E030
:10266000CE15DF0589F0D8016D918D01D601ED9170
:10267000FC910190F081E02DC6010995892B11F4A0
:102680007E0102C02196ECCFC701DF91CF911F914F
:102690000F91FF90EF90DF90CF9008954F925F924F
:1026A0006F927F928F929F92AF92BF92CF92DF9262
:1026B000EF92FF926B017C01B42E9B01AC010E9452
:1026C0008A20882319F085EE93E027C02601370180
:1026D000E89477F82FEF3FEF4FE75FE7C301B201D0
:1026E0000E948A2081110DC02FEF3FEF4FE75FE777
:1026F000C301B2010E94B91E18161CF489EE93E0C2
:102700000CC02FEF3FEF4FE75FE4C701B6010E9417
:102710001820181684F48DEE93E0FF90EF90DF9070
:10272000CF90BF90AF909F908F907F906F905F9071
:102730004F900C9467092FEF3FEF4FE75FECC70115
:10274000B6010E94B91E87FDE6CF20E030E0A90166
:10275000C701B6010E94B91E87FF09C08DE20E9421
:10276000E60A4C01F7FAF094F7F8F09402C0812CD5
:10277000912CA12C60E070E080E09FE3AB1441F06D
:1027800020E030E040E251E40E94BE1EA394F6CF68
:102790009B01AC01C701B6010E944D1E2B013C01FB
:1027A0000E94371F6B017C010E94661F9B01AC01D8
:1027B000C301B2010E944C1E2B013C014AE0C7013B
:1027C000B6010E947D097C01E80CF91CBB2029F0B0
:1027D0008EE20E94E60AE80EF91EDB2CDD2021F1D4
:1027E00020E030E040E251E4C301B2010E941D202C
:1027F0002B013C010E94371F4B01A12CB12C4AE058
:10280000C501B4010E947D09E80EF91EC501B4019D
:102810000E94661F9B01AC01C301B2010E944C1EC5
:102820002B013C01DA94DACFC701FF90EF90DF90E3
:10283000CF90BF90AF909F908F907F906F905F9060
:102840004F900895CF93DF93C8EDD6E06A8170E092
:1028500080E090E04AE00E947D098AE30E94E60A57
:10286000698170E080E090E04AE00E947D098AE39F
:102870000E94E60A688170E080E090E04AE00E94F1
:102880007D0981EF93E00E94CF096E8170E080E0C6
:1028900090E04AE00E947D0989E00E94E60A6B818F
:1028A00070E080E090E04AE00E947D098FE20E94A3
:1028B000E60A6C8170E080E090E04AE00E947D09C9
:1028C0008FE20E94E60A8D81DF91CF910C94BE09C0
:1028D000CF93DF93EB0191E090934C0490E49093BD
:1028E0006E0410924D0410926F04682F8DE095E0F5
:1028F0000E9401100E94C60862E080E40E94230941
:102900001092D7068093D6068DE095E00E94B50F11
:1029100088838DE095E00E94B50F8983DF91CF9188
:102920000C94C608CF93DF9360E08FE60E94A70364
:10293000C8EDD6E0982F9077969596959695292F85
:10294000220F220F920F8F70890F888361E08FE62C
:102950000E94A703982F9077969596959695292F84
:10296000220F220F920F8F70890F898362E08FE60A
:102970000E94A70384FB992790F9990F292F220F12
:10298000220F920F8F70890F8A8363E08FE60E9477
:10299000A70387708E8364E08FE60E94A703982FB9
:1029A0009073969596959695292F220F220F920F48
:1029B0008F70890F8B8365E08FE60E94A70384FBED
:1029C000992790F9990F292F220F220F920F8F70BC
:1029D000890F8C8366E08FE60E94A703982F907F73
:1029E000969596959695292F220F220F920F8F700C
:1029F000890F8D83DF91CF9108950895CF93DF9351
:102A0000CDB7DEB7A2970FB6F894DEBF0FBECDBF2D
:102A1000789484B5826084BD84B5816084BD85B5B9
:102A2000826085BD85B5816085BD80916E008160C5
:102A300080936E001092810080918100826080936B
:102A4000810080918100816080938100809180006D
:102A50008160809380008091B10084608093B10098
:102A60008091B00081608093B00080917A00846092
:102A700080937A0080917A00826080937A008091BE
:102A80007A00816080937A0080917A0080688093D8
:102A90007A001092C100E0918004F091810482E0FC
:102AA0008083E0917C04F0917D041082E0917E04AB
:102AB000F0917F048FEC808310928804E09184046D
:102AC000F091850486E08083E0918204F091830494
:102AD000808180618083E0918204F0918304808111
:102AE00088608083E0918204F09183048081806813
:102AF0008083E0918204F091830480818F7D8083C4
:102B00001FB7F8948091FA03811127C0E8EBF0E039
:102B10008491E4EAF0E09491E82FF0E0EE0FFF1FDB
:102B2000E057FF4FA591B491EC91E92321F461E0C6
:102B30008AE00E94B31061E08AE00E94E3108CB545
:102B400080618CBD8CB580648CBD61E08DE00E949D
:102B5000E31061E08BE00E94E3108091FA038F5F45
:102B60008093FA031FBF80E58CBD1DBC60E084E14B
:102B70000E94E31060E085E10E94E31061E082E0E2
:102B80000E94E31060E08EE00E94E31060E083E0CA
:102B90000E94E31060E084E00E94E31060E085E0C2
:102BA0000E94E31060E086E00E94E31060E087E0AE
:102BB0000E94E31061E08AE00E94E31061E088E097
:102BC0000E94E31061E089E00E94E31060E082E08F
:102BD0000E94B31061E088E00E94B31068EB7BE0D4
:102BE00080E090E00E941F111092D7061092D60646
:102BF00010924D0410926F0410924B0481E0809368
:102C00004A041092250461E082E10E94B31061E061
:102C100083E10E94B3108091B9008E7F8093B90048
:102C20008091B9008D7F8093B90088E48093B800CB
:102C300085E48093BC0080911B0590911C05892B35
:102C4000E1F080E090E00E94D31D182F61E0680F52
:102C500080E090E00E94DB1D612F70E080E090E05A
:102C6000611571058105910511F00E94CA1D8091C1
:102C70001B0590911C050E943E0367EE80E40E94B4
:102C8000A7038A73482F456066EE80E40E94CA035A
:102C90000E94820160E088E00E94B31080E90E94F7
:102CA000680180E00E94680180E00E94680180E085
:102CB0000E94680180E00E9468018093FC0380E02C
:102CC0000E9468018093FB0361E088E00E94B310DA
:102CD00041E06BEF73E087E792E00E94040841E077
:102CE0006CEF73E08AE892E00E9404080E9482017F
:102CF00060E088E00E94B31086E00E94680161E015
:102D000088E00E94B31060E088E00E94B31082E087
:102D10000E94680180E00E94680180E00E946801D2
:102D200080E00E94680100ED15E07801B0E1EB164B
:102D3000B6E0FB0631F0D7018D917D010E9468015C
:102D4000F5CF61E088E00E94B3100E946F0180FD22
:102D5000FCCF0E94820160E088E00E94B31083E013
:102D60000E94680180E00E94680180E00E94680182
:102D700080E00E94680180E00E946801F801819370
:102D80008F01F6E000311F07B1F761E088E00E9493
:102D9000B31040E460ED75E082EA92E00E9404081E
:102DA0000E946F0180FDFCCF60E088E00E94B310BC
:102DB00089EB0E94680161E088E00E94B31078947A
:102DC0009BEEE92E9AE0F92E82E795E023E0C22EF1
:102DD000D12C33E2A32EB12C4BE3842E992493946F
:102DE00058E0652E680E67E0762E780E61E082E08E
:102DF0000E94E31060E082E00E94B310C7010197D7
:102E0000F1F760E082E00E94E310C7010197F1F75B
:102E10000E942C040E942C040E9417040E94170494
:102E20000E942C040E942C040E9417040E94170484
:102E300002E715E0280188E0282E21E0312C61E02E
:102E400082E02AA30E94E31060E082E00E94B310B7
:102E5000C6010197F1F760E082E00E94E310C5012E
:102E60000197F1F782E00E948A102AA1019709F4E4
:102E7000322A220FC4010197F1F72A942110DFCFE3
:102E8000D2013D922D016A12D6CF61E082E00E940C
:102E9000B31090E07CE0F80151918F0148E0852F5C
:102EA000892780FD02C060E001C060E8892F90E0C2
:102EB0009C0135952795922F603821F4822F8068E8
:102EC000982F97275695415051F77012E4CF809173
:102ED000790598138BCF48E062E775E087E593E0CA
:102EE0000E940408E0911B05F0911C05309709F43D
:102EF000ECC082819381892B09F4E7C0EB57FF4F27
:102F0000108210E07E01FAE0EF0EF11C5E0122E17A
:102F1000A20EB11C22242A94322C412C512CEDE01B
:102F20008E2E912CCC24C394D12CA2E06A2E712C2D
:102F3000E0911B05F0911C05EB57FF4F808181113B
:102F4000C4C060E177E280E090E00E941F118FEA48
:102F500092E00E94CF0981E0810F89A3812F0E9416
:102F6000BE0900911B0510911C050115110509F4FE
:102F700059C0F801EB57FF4F10823C961182108226
:102F80001982D801AB59BF4FFE0132968E918193C1
:102F9000EE15FF05D9F7D801A35ABF4FF7018E915F
:102FA0008193EA15FB05D9F70E94C51DA201910185
:102FB0000E94E91DF801E358FF4F6083319670834A
:102FC00040911B0550911C05FA01E358FF4F808189
:102FD0008A8B319680818B8B9A012F563F4F4359B4
:102FE0005F4F63E1CE0101960E947F0540911B0572
:102FF00050911C05FA01E655FF4F80819181A28115
:10300000B3818C8B9D8BAE8BBF8B8A01075F1F4F6B
:10301000B297208130E047575F4F67E1CE010196BC
:103020000E94D7020E94F012E0911B05F0911C054E
:10303000108617828781908584329341D8F364EF9C
:1030400071E0CF0187579F4F0E94F10AE0911B0565
:10305000F0911C05DF01AB57BF4F8C91882319F00D
:103060001092810032C0878190858C309741D8F3CF
:10307000DF01A157BF4F8D929C92CF0183579F4F85
:10308000FC01D182C08264EF71E00E94F10A1092CB
:103090008100E0911B05F0911C05DF01AB57BF4F8C
:1030A0008C91811112C0E557FF4F8081918100976B
:1030B00029F0019731F47182608205C0D182C0820B
:1030C00002C01182108219A133CF10917A068CE0D0
:1030D000E8E6F3E0DE01119601900D928A95E1F7A2
:1030E00089E0E4E7F3E0DE01589601900D928A95BD
:1030F000E1F75B9A5398CE0148960E94850380932E
:10310000DA06CE014B960E9485038093D906CE0144
:103110004E960E9485038093D806CE0105960E94A4
:1031200085038093DB06CE010A960E948503809377
:10313000DD0601E00093DE0643E050E066EC72E05D
:10314000CE0101960E94CE20892B19F40093DC0653
:1031500085C043E050E06AEC72E0CE0101960E9427
:10316000CE20892B11F482E077C043E050E06EEC72
:1031700072E0CE0101960E94CE20892B11F483E0EB
:103180006BC043E050E062ED72E0CE0101960E9418
:10319000CE20892B11F484E05FC043E050E066ED5F
:1031A00072E0CE0101960E94CE20892B11F485E0B9
:1031B00053C043E050E06AED72E0CE0101960E94F8
:1031C000CE20892B11F486E047C043E050E06EED3D
:1031D00072E0CE0101960E94CE20892B11F487E087
:1031E0003BC043E050E062EE72E0CE0101960E94E7
:1031F000CE20892B11F488E02FC043E050E066EE2A
:1032000072E0CE0101960E94CE20892B11F489E054
:1032100023C043E050E06AEE72E0CE0101960E94C6
:10322000CE20892B11F48AE017C043E050E06EEE07
:1032300072E0CE0101960E94CE20892B11F48BE022
:103240000BC043E050E062EF72E0CE0101960E94B5
:10325000CE20892B19F48CE08093DC0640E060E0FE
:103260008FE60E94CA036091D90680E70E949A0304
:10327000482F61E08FE60E94CA036091DA0680E180
:103280000E949A03482F406462E08FE60E94CA03BE
:103290006091DE0687E00E949A03482F67E08FE680
:1032A0000E94CA036091DB0680E30E949A03482FC4
:1032B00064E08FE60E94CA036091DC0680E10E9410
:1032C0009A03482F65E08FE60E94CA036091DD06ED
:1032D00080EF0E949A03482F66E08FE60E94CA039F
:1032E0006091D80680E70E949A03482F406860E00A
:1032F0008FE60E94CA030E94221440E067E08FE636
:103300000E94CA03112319F0812F0E94E80340E1B3
:1033100067E08FE60E94CA030E94921488E08093BF
:10332000690082E08DBB62E08EE00E94E310809134
:103330006C00816080936C00809168008260809353
:10334000680062E08FE00E94E31062E080E10E948A
:10335000E31080916C00866080936C00809168001F
:103360008260809368001092F9031092F80301E0E4
:1033700010E02DE0A22EB12C34E0832E912C48E6F3
:10338000542E57E6752E60E4662E8091F80388234C
:10339000B9F064EF71E080E090E00E941F118FE0CF
:1033A0000E948A10892B09F08CC280E10E948A1049
:1033B000892B09F086C283E00E94DE071092F80391
:1033C0008091F903882309F414C21092F90361E093
:1033D00089E00E94B31080917A060E94E8030E945F
:1033E0009214BE016F5F7F4F85EE0E946814698161
:1033F00070E0762F66278A81682B61157105F9F0D8
:1034000080E090E00E94661F20E030E04AEF52E446
:103410000E941D2020E030E040E857E30E941D207C
:1034200020E030E040EC50E40E944C1E6093010428
:1034300070930204809303049093040408C01092D4
:103440000104109202041092030410920404BE01BD
:10345000685E7F4F80EE0E946814688D70E0762F62
:103460006627898D682B61157105F9F080E090E081
:103470000E94661F22E538EB4FE253E40E941D20B4
:1034800020E030E040E857E30E941D2026E636E6C3
:103490004BE352E40E944C1E6093FD037093FE03C5
:1034A0008093FF039093000408C01092FD031092D4
:1034B000FE031092FF03109200048EE80E9459113F
:1034C000BC01990F880B990B0E94681F9B01AC01EE
:1034D0006DEC7CEC8CE894E40E94BE1E6093820646
:1034E00070938306809384069093850685E10E94FD
:1034F000591190937F0680937E0684E10E945911B2
:1035000090938106809380060E9479090E9422147C
:1035100086EF92E00E94CF096091FD037091FE0357
:103520008091FF03909100044AE00E944E1384E0D2
:1035300093E00E94CF096091010470910204809190
:103540000304909104044AE00E944E130E947909FA
:1035500080E794E00E94F90E81E193E00E94CF0998
:1035600060917C0670917D0680E090E04AE00E94C8
:103570007D090E94790910927D0610927C0682E2F4
:1035800093E00E94CF09609182067091830680913A
:103590008406909185064AE00E944E130E947909A4
:1035A00083E393E00E94CF0960917E0670917F06CD
:1035B00080E090E04AE00E947D0989E00E94E60AEE
:1035C00089E393E00E94CF096091800670918106A3
:1035D00080E090E04AE00E947D090E947909E09035
:1035E0001905F0901A05E114F10451F0F701B296B3
:1035F000DF01262D1D922A95E9F7D70191961C929D
:103600006091FD037091FE038091FF03909100048F
:10361000E114F104E1F0F70141A0C42CD12CF1E355
:10362000CF16D104A4F420E030E040E251E40E943F
:103630001D200E94371FF701EC0DFD1D12A273A281
:1036400074A365A384E0840DD70191968C93609157
:103650000104709102048091030490910404E11428
:10366000F104F1F0F70141A0C42CD12CF2E3CF1604
:10367000D104B4F4CE0CDF1C21E0D60192962C9339
:10368000929793965C929B01AC010E944D1E0E9402
:10369000371FF60164A383E0840DD70191968C93C4
:1036A00060918206709183068091840690918506D0
:1036B000E114F104F1F0F70141A0C42CD12CF2E3A4
:1036C000CF16D104B4F420E030E048EC52E40E947C
:1036D0001D200E94301FF701EC0DFD1D82E082A32A
:1036E00083E083A374A365A384E0840DD70191963E
:1036F0008C9380911B0590911C05009709F44EC096
:10370000FC01E255FF4F11830083EB55F109DC0109
:10371000A15BBF4F2D913C9111973183208312966D
:103720003697808191818D939C930E94E5090E9438
:10373000F012E0911B05F0911C051086178287811D
:10374000908584389340D8F364EF71E0CF018F5AAD
:103750009F4F0E94F10A0B9719F4109281001EC02E
:10376000E0911B05F0911C05878190858C36974070
:10377000D8F3DF01AD5ABF4FAD92BC92EF5AFF4F65
:10378000918280821092810080911B0590911C058E
:103790006CE677E08F5A9F4F0E94F10A80912F06C6
:1037A000909130060B97C9F44091310662E376E0C0
:1037B0008FE393E00E940408809131068130A1F4E8
:1037C00080913206882381F0282F30E030937B06E9
:1037D00020937A060E94E80307C041E06FE276E09A
:1037E0008EE493E00E94040860E089E00E94B31038
:1037F000CCCD80E794E00E94F90E80917A008F771B
:1038000080937A008091640082608093640080914C
:10381000640080628093640080916400886080937B
:1038200064008091640080648093640080916400EF
:103830008160809364008091640084608093640060
:103840008091640080688093640083B7817F846086
:1038500083BFF89483B7816083BF85B7806685BFD7
:103860008F7D85BF7894889583B78E7F83BF78944A
:10387000809164008D7F80936400809164008F7DCF
:103880008093640080916400877F809364008091BE
:1038900064008F7B80936400809164008E7F8093AE
:1038A0006400809164008B7F809364008091640049
:1038B0008F778093640080917A00806880937A008B
:1038C00064CD8FE00E948A10892B11F481E074CDC1
:1038D00080E10E948A10892B09F070CD82E06CCDC6
:1038E000CF93DF93109273041092720488EE93E0EA
:1038F000A0E0B0E08093740490937504A0937604E4
:10390000B09377042BE332E030937104209370047A
:1039100025EC30E030937D0420937C0424EC30E0EF
:1039200030937F0420937E0420EC30E030938104B8
:103930002093800421EC30E03093830420938204B0
:1039400022EC30E0309385042093840426EC30E0B0
:1039500030938704209386041092890410928A047D
:1039600010928B0410928C041092100510920F0587
:103970008093110590931205A0931305B09314053D
:103980008BE492E090930E0580930D0581E090E02A
:1039900090937B0680937A0610921E0510921D0567
:1039A0009093200580931F05909322058093210515
:1039B0001092230529E1E6E2F5E0DF011D922A9548
:1039C000E9F721E020933E0533E3E4E0F2E0AFE3E2
:1039D000B5E001900D923A95E1F73CE3E2E7F5E0BE
:1039E000EF0119923A95E9F730E730937A0533EB16
:1039F00030937B0545ED40937C054EE740937D0574
:103A000040EF40937E054EE3409380054CE04093A9
:103A1000810530938A0533E230938B0532EC309385
:103A20008C053DEF30938D053FED30938E0534E3EB
:103A300030938F053BE7309390053DE3309391053C
:103A400032EA3093920534E03093930532EF3093AD
:103A500094053EE030939505209396052AE3209344
:103A6000970524EA2093980529E5209399052CE0F1
:103A700037E13093A4052093A3052FE02093A505FB
:103A800023E030E03093A7052093A60524E030E042
:103A90003093AB052093AA052DE030E03093AD05BF
:103AA0002093AC05EEEAF5E022E6DF01C22F1D927D
:103AB000CA95E9F79093CC058093CB05A0E1B6E0D9
:103AC000ED0119922A95E9F790932E0680932D0621
:103AD0008DE195E090931C0580931B05309721F0B4
:103AE000F0931A05E0931905DF91CF9108958F9215
:103AF0009F92AF92BF92CF92DF92EF92FF92CF93BD
:103B0000DF93EC01688179818A819B816115710560
:103B10008105910521F464E279ED8BE597E02DE1D3
:103B200033EF41E050E00E94E91D49015A019B0139
:103B3000AC01A7EAB1E40E94081E6B017C01ACEE67
:103B4000B4EFA50194010E94161EDC01CB018C0D7F
:103B50009D1DAE1DBF1DB7FF03C00197A109B04851
:103B600088839983AA83BB83BC01CD019F77DF91B2
:103B7000CF91FF90EF90DF90CF90BF90AF909F904C
:103B80008F9008950E94771D089580E091E00E9433
:103B9000771D0895609300017093010180930201E5
:103BA000909303010895F999FECF92BD81BDF89AD3
:103BB000992780B50895262FF999FECF1FBA92BD97
:103BC00081BD20BD0FB6F894FA9AF99A0FBE0196FE
:103BD0000895052E97FB1EF400940E94001E57FDC9
:103BE00007D00E941B1E07FC03D04EF40C94001E4D
:103BF00050954095309521953F4F4F4F5F4F089519
:103C000090958095709561957F4F8F4F9F4F089548
:103C10000E943D1EA59F900DB49F900DA49F800D06
:103C2000911D11240895B7FF0C94081E0E94081ED0
:103C3000821B930B0895A1E21A2EAA1BBB1BFD0148
:103C40000DC0AA1FBB1FEE1FFF1FA217B307E4077B
:103C5000F50720F0A21BB30BE40BF50B661F771FD3
:103C6000881F991F1A9469F76095709580959095B3
:103C70009B01AC01BD01CF010895A29FB001B39F8C
:103C8000C001A39F700D811D1124911DB29F700D65
:103C9000811D1124911D08955058BB27AA270E9409
:103CA000641E0C94DE1F0E94D01F38F00E94D71FA4
:103CB00020F039F49F3F19F426F40C94CD1F0EF434
:103CC000E095E7FB0C94C71FE92F0E94EF1F58F304
:103CD000BA17620773078407950720F079F4A6F5F1
:103CE0000C9411200EF4E0950B2EBA2FA02D0B0191
:103CF000B90190010C01CA01A0011124FF27591B31
:103D000099F0593F50F4503E68F11A16F040A22F36
:103D1000232F342F4427585FF3CF469537952795A7
:103D2000A795F0405395C9F77EF41F16BA0B620BA6
:103D3000730B840BBAF09150A1F0FF0FBB1F661FED
:103D4000771F881FC2F70EC0BA0F621F731F841F30
:103D500048F4879577956795B795F7959E3F08F056
:103D6000B0CF9395880F08F09927EE0F9795879518
:103D700008950E94A31F08F481E008950E94D21EB6
:103D80000C94DE1F0E94D71F58F00E94D01F40F0F5
:103D900029F45F3F29F00C94C71F51110C94122095
:103DA0000C94CD1F0E94EF1F68F39923B1F35523A4
:103DB00091F3951B550BBB27AA276217730784073E
:103DC00038F09F5F5F4F220F331F441FAA1FA9F3D4
:103DD00035D00E2E3AF0E0E832D091505040E695C2
:103DE000001CCAF72BD0FE2F29D0660F771F881F23
:103DF000BB1F261737074807AB07B0E809F0BB0B16
:103E0000802DBF01FF2793585F4F3AF09E3F510529
:103E100078F00C94C71F0C9412205F3FE4F3983E97
:103E2000D4F3869577956795B795F7959F5FC9F712
:103E3000880F911D9695879597F90895E1E0660F93
:103E4000771F881FBB1F621773078407BA0720F00C
:103E5000621B730B840BBA0BEE1F88F7E095089575
:103E60000E94371F6894B1110C94122008950E948B
:103E7000F71F88F09F5798F0B92F9927B751B0F0E6
:103E8000E1F0660F771F881F991F1AF0BA95C9F7DE
:103E900014C0B13091F00E941120B1E008950C944B
:103EA0001120672F782F8827B85F39F0B93FCCF3FE
:103EB000869577956795B395D9F73EF4909580955B
:103EC000709561957F4F8F4F9F4F0895E89409C07B
:103ED00097FB3EF490958095709561957F4F8F4F3D
:103EE0009F4F9923A9F0F92F96E9BB279395F69553
:103EF000879577956795B795F111F8CFFAF4BB0FD1
:103F000011F460FF1BC06F5F7F4F8F4F9F4F16C034
:103F1000882311F096E911C0772321F09EE8872FBE
:103F2000762F05C0662371F096E8862F70E060E07A
:103F30002AF09A95660F771F881FDAF7880F9695F3
:103F4000879597F90895990F0008550FAA0BE0E897
:103F5000FEEF16161706E807F907C0F0121613064B
:103F6000E407F50798F0621B730B840B950B39F48B
:103F70000A2661F0232B242B252B21F408950A26F1
:103F800009F4A140A6958FEF811D811D089597F931
:103F90009F6780E870E060E008959FEF80EC0895EF
:103FA00000240A9416161706180609060895002418
:103FB0000A9412161306140605060895092E039492
:103FC000000C11F4882352F0BB0F40F4BF2B11F406
:103FD00060FF04C06F5F7F4F8F4F9F4F089557FD65
:103FE0009058440F551F59F05F3F71F04795880F67
:103FF00097FB991F61F09F3F79F0879508951216FE
:1040000013061406551FF2CF4695F1DF08C01616A9
:1040100017061806991FF1CF86957105610508945A
:104020000895E894BB2766277727CB0197F9089571
:104030000E94A31F08F48FEF08950E9430200C9473
:10404000DE1F0E94D01F38F00E94D71F20F095235A
:1040500011F00C94C71F0C94CD1F11240C94122046
:104060000E94EF1F70F3959FC1F3950F50E0551F0D
:10407000629FF001729FBB27F00DB11D639FAA27BD
:10408000F00DB11DAA1F649F6627B00DA11D661F0C
:10409000829F2227B00DA11D621F739FB00DA11D2D
:1040A000621F839FA00D611D221F749F3327A00DE7
:1040B000611D231F849F600D211D822F762F6A2F83
:1040C00011249F5750409AF0F1F088234AF0EE0FE8
:1040D000FF1FBB1F661F771F881F91505040A9F715
:1040E0009E3F510580F00C94C71F0C9412205F3F37
:1040F000E4F3983ED4F3869577956795B795F79551
:10410000E7959F5FC1F7FE2B880F911D96958795C8
:1041100097F908950E94A31F880B990B0895991B86
:1041200079E004C0991F961708F0961B881F7A95AE
:10413000C9F78095089597FB072E16F4009407D0D1
:1041400077FD09D00E94B52007FC05D03EF490957C
:1041500081959F4F0895709561957F4F0895EE0F5B
:10416000FF1F0590F491E02D0994AA1BBB1B51E1A0
:1041700007C0AA1FBB1FA617B70710F0A61BB70BD7
:10418000881F991F5A95A9F780959095BC01CD017C
:10419000089581E090E0F8940C94E420FB01DC01A8
:1041A00004C08D910190801921F441505040C8F70E
:1041B000881B990B0895FB01DC0102C001900D9250
:1041C00041505040D8F7089510E0C6E7D0E004C051
:1041D000FE010E94AF202196C737D107C9F7F89496
:0241E000FFCF0F
:1041E20001000000637C777BF26B6FC53001672BA7
:1041F200FED7AB76CA82C97DFA5947F0ADD4A2AFD9
:104202009CA472C0B7FD9326363FF7CC34A5E5F1E6
:1042120071D8311504C723C31896059A071280E294
:10422200EB27B27509832C1A1B6E5AA0523BD6B3E8
:1042320029E32F8453D100ED20FCB15B6ACBBE3958
:104242004A4C58CFD0EFAAFB434D338545F9027F44
:10425200503C9FA851A3408F929D38F5BCB6DA21FD
:1042620010FFF3D2CD0C13EC5F974417C4A77E3D29
:10427200645D197360814FDC222A908846EEB8147F
:10428200DE5E0BDBE0323A0A4906245CC2D3AC6242
:104292009195E479E7C8376D8DD54EA96C56F4EA4D
:1042A200657AAE08BA78252E1CA6B4C6E8DD741F5E
:1042B2004BBD8B8A703EB5664803F60E613557B921
:1042C20086C11D9EE1F8981169D98E949B1E87E9DB
:1042D200CE5528DF8CA1890DBFE6426841992D0F8A
:1042E200B054BB162B7E151628AED2A6ABF7158896
:1042F20009CF4F3C2B7E151628AED2A6ABF71588F8
:1043020009CF4F3C3A123456000000006C070F04EC
:1043120000000004000D0000000000B20E23137B19
:104322000E590E6D0EF90E000000000110D10FC9DA
:104332000FB50FA60FA50F427574746F6E206D65D1
:1043420073736167652076616C75653A200020623F
:10435200797465733B200044466C61736820646520
:10436200766963652049443A2000466C617368208F
:104372006D616E7566616374757265722049443A47
:104382002000466C61736820446174613A200053D6
:10439200656E64696E67204A6F696E205265717539
:1043A2006573743A20004A616E00466562004D6191
:1043B2007200417072004D6179004A756E004A7553
:1043C2006C0041756700536570004F6374004E6F57
:1043D20076004465630054656D7065726174757230
:1043E200653A20002C2048756D69646974793A2019
:1043F200004D6F76656D656E7420636F756E743AED
:104402002000537570706C7920566F6C746167650B
:104412003A20004C44523A2000504F543A20005265
:104422006563656976656420646174613A0052650A
:104432007476616C3A200044533234303120444562
:1044420056204555493A20004F63742020392032C6
:104452003031370031363A30343A3436000D0A0002
:1044620044657669636520416464726573733A20BA
:10447200004E6574776F726B2053657373696F6E4C
:10448200204B65793A20004170706C6963617469F0
:104492006F6E2053657373696F6E204B65793A2096
:1044A200004A6F696E20416363657074204D6573C5
:1044B200736167653A200043466C69737400467203
:1044C20065713A20006E616E00696E66006F7666F5
:0844D20000206461793A00004A
:00000001FF
