:100000000C9477000C949F000C949F000C949F001C
:100010000C94420B0C949F000C949F000C949F0036
:100020000C949F000C949F000C949F000C94290B3F
:100030000C949F000C949F000C949F000C949F00C4
:100040000C94E3020C949F000C94650C0C943F0CF0
:100050000C949F000C949F000C949F000C949F00A4
:100060000C942D030C949F00A304A904E704F2044C
:10007000FF040B051705AF04B904C304CD04D7046E
:10008000DD04C010CA10DC10E610F010F7100311E8
:1000900000000000250028002B00000000002300C5
:1000A00026002900000000080002010000030407E8
:1000B00000000000000000000000000024002700F5
:1000C0002A000102040810204080010204081020C8
:1000D00001020408102004040404040404040202BD
:1000E000020202020303030303038915E71111242B
:1000F0001FBECFEFD8E0DEBFCDBF13E0A0E0B1E080
:10010000E4EDF1E302C005900D92A830B107D9F7F4
:1001100025E0A8E0B3E001C01D92AD3BB207E1F7D6
:1001200010E0C6E7D0E004C02197FE010E94A818A5
:10013000C537D107C9F70E94E8110C94DD180C945B
:1001400000003FB7F8948091540390915503A0911B
:100150005603B091570326B5A89B05C02F3F19F051
:100160000196A11DB11D3FBFBA2FA92F982F882737
:10017000820F911DA11DB11DBC01CD0142E0660F92
:10018000771F881F991F4A95D1F7089585ED8093B1
:10019000BC008091BC0084FDFCCF109282030895C6
:1001A00040912A03262F30E0240F311D21323105E2
:1001B000DCF4209182032430C9F4FC0180E090E05B
:1001C000861758F430912A032191DC01A85FBC4FB7
:1001D000A30FB11D2C930196F3CF80912A03680FD2
:1001E00060932A0380E0089581E0089582E00895F5
:1001F000089581E090E0309159032091580332171F
:1002000010F480E090E09195819591090895809196
:10021000590390915803891730F48F5F80935903E5
:1002200080E090E008958FEF9FEF0895809158034C
:1002300090E020915903821B91090895CF92DF929B
:10024000EF92FF920F931F93CF93DF937C01262FA2
:10025000972F8A018091A503882391F0C62FD72F6D
:100260006E01C40ED51ECC15DD0571F06991D70164
:10027000ED91FC910190F081E02DC7010995F3CF3C
:10028000642F822F0E94D000C801DF91CF911F916F
:100290000F91FF90EF90DF90CF900895CF93DF9371
:1002A0001F92CDB7DEB769832091A5032223D1F039
:1002B0002091A303203240F021E030E0FC013383A1
:1002C000228380E090E015C08091A403E82FF0E045
:1002D000ED57FC4F998190838F5F8093A4038093A7
:1002E000A30305C061E0CE0101960E94D00081E029
:1002F00090E00F90DF91CF910895FC019C01205F69
:100300003F4FDB018D91BD01908189278193E217D9
:10031000F307B9F70895FC0120E02F3031F0918107
:10032000892F881F8827881F01C080E09081990F3E
:10033000980F91932F5F203181F70895EF92FF92EC
:100340001F93CF93DF9300D000D0CDB7DEB7DB0192
:1003500091E02BE1813041F0392F3078990F30381E
:1003600009F492278150F6CF1D96EC911D978E2FA0
:100370008F70E295EF7020E1E29FF0011124E80F09
:10038000F11DEC5FFE4F80811E96EC911E972E2F83
:100390002F70E295EF7030E1E39FF0011124E20F3E
:1003A000F11DEC5FFE4F20812A831F96EC911F9771
:1003B0002E2F2F70E295EF7030E1E39FF0011124B2
:1003C000E20FF11DEC5FFE4F20812B831C96EC9118
:1003D0001C972E2F2F70E295EF7030E1E39FF00114
:1003E0001124E20FF11DEC5FFE4F20812C83982732
:1003F000998320E030E0BE016F5F7F4F54E0560FDD
:10040000F901EE0FFF1FEE0FFF1F7F01EA0EFB1E2B
:10041000CB01FC011081F7014081412741937F010D
:10042000FC014193CF015E13F4CF2F5F3F4F243087
:10043000310531F70F900F900F900F90DF91CF9112
:100440001F91FF90EF900895CF93DF93EC0120E090
:1004500030E0DB01A20FB31FF901EE0FFF1FEE0F1B
:10046000FF1FEC0FFD1F90E041918C9148274C93AA
:100470009F5F14969430C1F72F5F3F4F24303105B2
:1004800041F7DF91CF910895833081F028F48130D6
:1004900099F08230A1F008958730A9F08830B9F042
:1004A0008430D1F4809180008F7D03C080918000E2
:1004B0008F7780938000089584B58F7702C084B5CC
:1004C0008F7D84BD08958091B0008F7703C08091A7
:1004D000B0008F7D8093B0000895CF93DF9390E0BC
:1004E000FC01EE53FF4F2491FC01EA52FF4F84912F
:1004F000882361F190E0880F991FFC01E854FF4FB9
:10050000C591D491FC01E057FF4FA591B4916111C1
:1005100009C09FB7F8948881209582238883EC9145
:100520002E230BC0623061F49FB7F8943881822F7C
:10053000809583238883EC912E2B2C939FBF06C03C
:100540008FB7F894E8812E2B28838FBFDF91CF914E
:1005500008958F929F92AF92BF92CF92DF92EF92C7
:10056000FF926B017C010E94A1004B015C01C11450
:10057000D104E104F104F1F00E94A100DC01CB01FF
:1005800088199909AA09BB09883E9340A105B105BC
:1005900070F321E0C21AD108E108F10888EE880E54
:1005A00083E0981EA11CB11CC114D104E104F10424
:1005B00019F7DDCFFF90EF90DF90CF90BF90AF9015
:1005C0009F908F9008951F920F920FB60F92112453
:1005D0002F933F938F939F93AF93BF93809150033B
:1005E00090915103A0915203B091530330914F0366
:1005F00023E0230F2D3720F40196A11DB11D05C066
:1006000026E8230F0296A11DB11D20934F0380936E
:10061000500390935103A0935203B09353038091DE
:10062000540390915503A0915603B091570301963E
:10063000A11DB11D8093540390935503A0935603BD
:10064000B0935703BF91AF919F918F913F912F919D
:100650000F900FBE0F901F9018951F920F920FB61C
:100660000F9211242F933F934F935F936F937F9338
:100670008F939F93AF93BF93EF93FF938091B900B4
:10068000887F803609F49CC068F5883209F45BC025
:1006900090F4803109F454C038F4882309F4F6C08A
:1006A000883009F44DC0F6C0883109F44CC080325E
:1006B00009F45DC0EFC0803409F468C048F48033A9
:1006C00009F455C0883309F0E5C080938003D8C091
:1006D000803509F44FC0883509F45DC0883409F0CD
:1006E000D9C0D6C0883909F4C7C0A8F4883709F43E
:1006F00067C038F4883609F463C0803709F460C0F5
:10070000C9C0883809F4B8C0803909F45FC080389E
:1007100009F0C0C05BC0803B09F486C038F4803A61
:1007200009F466C0883A09F47FC0B4C0803C09F47B
:10073000A7C0883C09F4A4C0883B09F48AC0AAC0B9
:1007400080915D0310C090917F0380917E03981784
:1007500070F5E0917F0381E08E0F80937F03F0E0DE
:10076000E25AFC4F80818093BB0085EC86C0809369
:1007700080038EC0E0917F0381E08E0F80937F0322
:100780008091BB00F0E0E25AFC4F808390917F03A0
:1007900080917E036EC0E0917F0381E08E0F809395
:1007A0007F038091BB00F0E0E25AFC4F8083809190
:1007B000810381116DC081E080935C0384EA61C094
:1007C00083E08093820310924E03CFCF80914E033B
:1007D000803208F051C0E0914E0381E08E0F80938B
:1007E0004E038091BB00F0E0E25DFC4F8083BDCF03
:1007F00085EC8093BC001092820380914E0380327E
:1008000030F4E0914E03F0E0E25DFC4F1082609125
:100810004E0370E0E0912C03F0912D038EE293E003
:10082000099510924E0336C084E0809382031092A3
:100830002B0310922A03E0912803F09129030995D4
:1008400080912A03811105C081E080932A031092D0
:100850000803E0912B0381E08E0F80932B03F0E0DF
:10086000E85FFC4F80818093BB0090912B038091C7
:100870002A03981708F479CF85E88093BC000AC052
:1008800085EC8093BC001092820304C01092800318
:100890000E94C600FF91EF91BF91AF919F918F9100
:1008A0007F916F915F914F913F912F910F900FBE6C
:1008B0000F901F901895FC0120812EBDDC01319610
:1008C0009C01260F371FE217F30741F051910DB439
:1008D00007FEFDCF4EB55EBD4D93F5CF615071095A
:1008E000FC01E60FF71F0DB407FEFDCF8EB5808328
:1008F00008958EBD00000DB407FEFDCF8EB508959E
:10090000682F606881E00E94881086E00E94970C42
:10091000892BD9F30895CF92DF92EF92FF92611560
:10092000710509F4A4C0DB01FC013197ED30F1053C
:1009300020F4EC5CFF4F0C94A81869ED86E00E944F
:10094000881066E011C069ED86E00E94881063E1BE
:1009500015C069ED86E00E94881060E219C068ED5C
:1009600086E00E94881066EC87E00E9488106BE8A1
:1009700077C068ED86E00E94881063ED87E00E94F2
:10098000881068E56DC068ED86E00E94881060EE12
:1009900087E00E94881064E263C068ED86E00E94F0
:1009A00088106CEE87E00E94881061EF59C068EDF6
:1009B00086E00E94881069EF05C069ED86E00E941C
:1009C000881061E687E00E9488106EEB49C054965B
:1009D0008C915497882309F44AC0CD90DD90ED9016
:1009E000FC9030C054968C915497823008F43FC0EC
:1009F0001496CD90DD90ED90FC90179723C05496FF
:100A00008C915497833098F11896CD90DD90ED90AD
:100A1000FC901B9717C054968C915497843038F1F2
:100A20001C96CD90DD90ED90FC901F970BC05496D6
:100A30008C9154978530D8F05096CD90DD90ED9004
:100A4000FC905397B7018827992786E00E94881069
:100A500099278F2D7E2D6D2D87E00E9488106C2D9B
:100A600088E0FF90EF90DF90CF900C948810FF907B
:100A7000EF90DF90CF900895BF92CF92DF92EF92E8
:100A8000FF920F931F93CF93DF931F92CDB7DEB7E3
:100A90006C01B62E7A0181E029830E948004F7015F
:100AA000808191810E949D10B801F701828193811C
:100AB0000E948B0460E480E40E94881067E283E374
:100AC0000E9488106DE18BE30E9488102981622FBB
:100AD000606F89E00E9488106B2D82E20E9488106E
:100AE0008EE00E946E11682F8DE00E94881060E0F9
:100AF0008AE00E94C00C80E80E9479046B2D70E0AF
:100B00006115710519F0C6010E945B0461E08AE07D
:100B10000E94C00C63E881E00E94881084E00E947B
:100B2000970C892BD9F368E082E10F90DF91CF9188
:100B30001F910F91FF90EF90DF90CF90BF900C949A
:100B40008810CF93DF93EC0160E081E00E94881071
:100B50006AE070E080E090E00E94A90260E881E035
:100B60000E94881081E00E948004BE01675F7F4F71
:100B700080E090E00E948B046FEF89E00E94881073
:100B800063E28CE00E94881080E090E00E949D105B
:100B900065E28FE10E94881060E080E20E94881088
:100BA00068E081E20E94881064E389E30E94881073
:100BB00060E88EE00E94881060E08FE00E9488105C
:100BC00060E881E0DF91CF910C94881061E082E0D1
:100BD0000E946D0260E082E00E94C00C8BE391E015
:100BE0000197F1F760E082E00E946D0283E090E0FF
:100BF0000197F1F7089561E082E00E946D0260E0E4
:100C000082E00E94C00C83E090E00197F1F760E081
:100C100082E00E946D028BE391E00197F1F7089565
:100C20004F925F927F928F929F92AF92BF92CF929C
:100C3000DF92EF92FF920F931F93CF93DF93CDB785
:100C4000DEB7A9970FB6F894DEBF0FBECDBF6C011B
:100C500080E090E08E010F5F1F4FDC01AA0FBB1FE9
:100C6000AA0FBB1FAC0DBD1D20E030E0FD90A90117
:100C7000480F591F400F511FFA01F0822C5F3F4F60
:100C80002031310599F701968430910531F780E1E3
:100C9000FB01DE01519601900D928A95E1F7B801B2
:100CA000CE0141960E94240221E034E0932E900E62
:100CB0004BE1842E7801C801702EDC0130E0EC910C
:100CC0004E2F4F70E295EF7050E1E59FF001112437
:100CD000E40FF11DEC5FFE4F40814C933F5F149693
:100CE000343069F701969812E8CF8D819E819D83FB
:100CF0009F819E8398859F83888789859B85998717
:100D00008B878A859C859A878C8788899F85988B15
:100D10009E859F879D859E878D87CE010D96280194
:100D2000BE016B5D7F4FFE01B19640E050E0520185
:100D3000A40EB51ED501BC90DB01BD92BD013B2DBB
:100D4000330FB7FC382530834C5F5F4F319640310D
:100D5000510569F76EA149A146277FA1B8A43AA120
:100D600037273B25532F5427F20151932F01ADA074
:100D70005BA1FC0138973A25352730833CA1349696
:100D80006B256A255627532750837A253727432713
:100D9000DC014D93CD019410C3CFBE016F5E7F4F38
:100DA000822F29A70E949E01B801CE0141960E9480
:100DB000240229A52F5F2A3009F07CCF94E0970DFB
:100DC000D70180E0EC912E2F2F70E295EF7030E18B
:100DD000E39FF0011124E20FF11DEC5FFE4F208133
:100DE0002C938F5F1496843069F75FEFE51AF50A4C
:100DF0009E11E6CF8D819E819D839F819E839885E4
:100E00009F83888789859B8599878B878A859C8521
:100E10009A878C8788899F85988B9E859F879D85DB
:100E20009E878D87BE016F5E7F4F8AE00E949E0184
:100E3000B801CE0141960E94240280E090E0FC01BE
:100E4000EE0FFF1FEE0FFF1FEC0DFD1D20E030E049
:100E5000D901A80FB91FA00FB11F4C9141932C5F6E
:100E60003F4F20313105A1F701968430910539F7C4
:100E7000A9960FB6F894DEBF0FBECDBFDF91CF911C
:100E80001F910F91FF90EF90DF90CF90BF90AF90A8
:100E90009F908F907F905F904F9008952F923F92F8
:100EA0004F925F926F927F928F929F92AF92BF927A
:100EB000CF92DF92EF92FF920F931F93CF93DF9326
:100EC000CDB7DEB7C554D1090FB6F894DEBF0FBE5B
:100ED000CDBF4C013A0123963FAF2EAF239780E15F
:100EE0007E0191E3E90EF11CD701E82F1D92EA95EE
:100EF000E9F75E01F1E2AF0EB11CD501E82F1D92BA
:100F0000EA95E9F76E01F1E1CF0ED11CD601E82F89
:100F10001D92EA95E9F78E010F5F1F4FD8011D92D0
:100F20008A95E9F7262E22942FE02222262F2F7071
:100F300009F02394B301C70126962FAF26970E948C
:100F4000100659A8C7010E948B0126962FAD26973F
:100F500057FE08C021969FAD219787E889272196E3
:100F60008FAF2197D501F70180E18E0D91919D936F
:100F70008E13FCCF59A0C50126962FAF26970E944D
:100F80008B0126962FAD269757FE04C098A987E8B7
:100F9000892788AB30E0312CB1E02B1A310840E1D1
:100FA000400FE32FF0E0E215F30584F594E0EE0F37
:100FB000FF1F9A95E1F7E80DF91D2801D8018191ED
:100FC0008D934A13FCCFB601C80126962FAF269702
:100FD00024963FAF249725964FAF25970E947D0119
:100FE000B301C8010E941006F60125964FAD259762
:100FF00024963FAD249726962FAD2697D2018D914A
:101000002D0181934A13FACF3F5FCBCF84E0220CAE
:10101000331C8A95E1F721110CC0D401A20DB31D38
:10102000F80180E1800F9D9191938E13FCCFB70161
:101030001FC0F80180E090E0A801420F511D60E858
:10104000382F821738F4DC01A20DB31DA80DB91D8D
:101050007C917083321303C0DA016C9303C02317B1
:1010600008F41082019631968031910549F7B50157
:10107000C8010E947D01B601C8010E947D01B30133
:10108000C8010E94100689812396EEADFFAD23971B
:10109000818F8A81828F8B81838F8C81848FCB5BC0
:1010A000DF4F0FB6F894DEBF0FBECDBFDF91CF91FB
:1010B0001F910F91FF90EF90DF90CF90BF90AF9076
:1010C0009F908F907F906F905F904F903F902F9068
:1010D0000895CF92DF92EF92FF920F931F93CF93D9
:1010E000DF93CDB7DEB7C056D1090FB6F894DEBF97
:1010F0000FBECDBF092FD90199E462969FAF6297C9
:1011000063961FAE639764961FAE649765961FAE95
:10111000659766961FAE66972D913C911197203882
:10112000310519F02034310521F467961FAE679719
:1011300004C091E067969FAF679715969C911597AD
:1011400068969FAF689714969C91149769969FAF85
:10115000699713969C9113976A969FAF6A97129618
:101160009C9112976B969FAF6B9717962C91179740
:1011700018969C9118976C962FAF6C976D969FAFB1
:101180006D976E961FAE6E976F961FAE6F97A09677
:101190001FAEA097A1966FAFA1979E012F5F3F4F03
:1011A000FE01EF5AFF4F6F01722F932F10E11E0FB8
:1011B000F601F1906F01F901F1929F011C11F8CF36
:1011C000182F9E012F5E3F4FE82EF02E8E2D811B93
:1011D000861738F4F70181917F01F90181939F010E
:1011E000F5CF605F9D01872F0E944E07C05ADF4FE9
:1011F0000FB6F894DEBF0FBECDBFDF91CF911F9128
:101200000F91FF90EF90DF90CF9008952F923F9233
:101210004F925F926F927F928F929F92AF92BF9206
:10122000CF92DF92EF92FF920F931F93CF93DF93B2
:10123000CDB7DEB761970FB6F894DEBF0FBECDBF56
:101240008901009709F470C04115510509F46CC07B
:10125000662309F469C0232B09F466C0562E529404
:101260002FE05222362F3F7009F053945A017C012F
:10127000612C712C412C33243394CE0101966C01E6
:10128000852C912C91E0891A910880E1282E2C0C54
:10129000451409F449C039821A821B821C821D82BE
:1012A000F801808191818038910519F08034910591
:1012B00011F41E8201C03E82F80185818F838481F2
:1012C00088878381898782818A87978180859B87A8
:1012D0008C871D861E861F864394488AB501C601E9
:1012E000398B0E94100639896814790449F0D701B6
:1012F000F60181919C9189278D932E12FACF0DC012
:10130000311101C030E1D701F60181919C9189270B
:101310008D938E2F8C198317C0F3FFEF6F1A7F0AFE
:1013200080E1E80EF11CB4CF61960FB6F894DEBFF1
:101330000FBECDBFDF91CF911F910F91FF90EF9026
:10134000DF90CF90BF90AF909F908F907F906F90E5
:101350005F904F903F902F900895AF92BF92CF92A1
:10136000DF92FF920F931F93CF93DF93CDB7DEB73A
:10137000C054D1090FB6F894DEBF0FBECDBFF82E12
:10138000E0914F04F0915004309771F09F012E5D71
:101390003F4F80E4D9011D928A95E9F783E082A34B
:1013A00091E093A3F4A281A310920205109201058B
:1013B00000915104109152040115110509F4DDC08A
:1013C0006801B2EBCB0ED11CF6018081813410F0A4
:1013D00080E4808381E0F801E656FF4F80833397F5
:1013E0001082E555F1092081EF5AFF4F2083E05527
:1013F000F1093081EF5AFF4F3083E055F109408108
:10140000EF5AFF4F4083E055F1095081EF5AFF4FEB
:101410005083EE54F10990818181E05BFF4F90830E
:101420008183769660817181D801AF56BF4F5D018F
:101430006130710529F460E870E06D937C9305C01C
:1014400060E470E0FD0171836083D5016C91698374
:101450005A834B833C832D831E829F838887F601AA
:1014600040814423E9F081E0898750E0B8016D5460
:101470007F4FCE010A960E94D418A8014E5C5F4FA0
:101480009501D6016C91CE010A960E940609E09161
:101490005104F0915204EE54FF4F1081175F01C0C8
:1014A00018E040915104509152049A012F563F4F39
:1014B0004E5D5F4F612FCE0101960E9469084091F9
:1014C000510450915204E1E0F0E0EC0FFD1FE10FF8
:1014D000F11DDA01A655BF4F8D919D910D90BC91E4
:1014E000A02D80839183A283B383CA010996FA0158
:1014F000E45BFF4F208130E0435B5F4F64E0610FAE
:101500008C01CE0101960E943C05E0915104F091BE
:101510005204DF01A85BBF4F8D919C9111978F3FC3
:101520002FEF920721F001968D939C9306C0828144
:101530009381892B11F41D921C923097F1F081A1B7
:101540008823D9F0DF01A15BBF4F2D913C9111970A
:101550002F5F3F4F11963C932E9382819381892B6D
:1015600021F4233031054CF006C0858D90E00296C1
:101570008217930714F41D921C920E94291187E58B
:1015800092E00E9417116F2D70E080E090E04AE039
:101590000E942D110E942911C05CDF4F0FB6F894F4
:1015A000DEBF0FBECDBFDF91CF911F910F91FF9096
:1015B000DF90CF90BF90AF900895EF92FF920F937E
:1015C0001F93CF93DF93162F072FF42E0E9417112E
:1015D00086EA93E00E94110C6F2D70E080E090E0AD
:1015E0004AE00E942D118EE692E00E941711E12E32
:1015F000C12FD02F8C2F8E198F1518F58E01699160
:1016000062956F7070E080E090E040E10E942D11E3
:10161000F80160816F7070E080E090E040E10E942E
:101620002D11E091A603F091A7030190F081E02D28
:1016300060E286EA93E0099586EA93E00E94110C45
:10164000D9CFDF91CF911F910F91FF90EF900C9424
:1016500029111F920F920FB60F9211248F939F930F
:10166000EF93FF93E3E5F4E08781908501969087FF
:101670008783FF91EF919F918F910F900FBE0F90F5
:101680001F9018951F920F920FB60F9211242F934F
:101690003F934F935F936F937F938F939F93AF93FA
:1016A000BF93EF93FF938FE00E94970C892B29F053
:1016B00080E10E94970C892B19F481E080935A03F2
:1016C000FF91EF91BF91AF919F918F917F916F911A
:1016D0005F914F913F912F910F900FBE0F901F90F0
:1016E0001895FC01918D828D981761F0828DDF0134
:1016F000A80FB11D5D968C91928D9F5F9F73928F05
:1017000090E008958FEF9FEF0895FC01918D828DF9
:10171000981731F0828DE80FF11D858D90E00895C6
:101720008FEF9FEF0895FC01918D228D892F90E01E
:10173000805C9F4F821B91098F739927089586EAD9
:1017400093E00E94930B21E0892B09F420E0822F83
:101750000895FC01848DDF01A80FB11DA35ABF4F6E
:101760002C91848D90E001968F739927848FA689A0
:10177000B7892C93A089B1898C9180648C93938DC7
:10178000848D981306C00288F389E02D80818F7DB7
:1017900080830895EF92FF920F931F93CF93DF936F
:1017A000EC0181E0888F9B8D8C8D981305C0E889B2
:1017B000F989808185FD24C0F62E0B8D10E00F5F26
:1017C0001F4F0F731127E02E8C8DE8120CC00FB63F
:1017D00007FCFACFE889F989808185FFF5CFCE0132
:1017E0000E94A90BF1CF8B8DFE01E80FF11DE35A8A
:1017F000FF4FF0820B8FEA89FB898081806207C0EE
:10180000EE89FF896083E889F9898081806480831B
:1018100081E090E0DF91CF911F910F91FF90EF90C9
:101820000895CF93DF93EC01888D8823C9F0EA896E
:10183000FB89808185FD05C0A889B9898C9186FDC9
:101840000FC00FB607FCF5CF808185FFF2CFA889C6
:10185000B9898C9185FFEDCFCE010E94A90BE7CF0E
:10186000DF91CF91089580E090E0892B29F00E94CC
:101870009F0B81110C94000008950E94C2181F92C2
:101880000F920FB60F9211242F933F934F935F93B4
:101890006F937F938F939F93AF93BF93EF93FF9338
:1018A00086EA93E00E94A90BFF91EF91BF91AF915F
:1018B0009F918F917F916F915F914F913F912F9168
:1018C0000F900FBE0F901F9018951F920F920FB69A
:1018D0000F9211242F938F939F93EF93FF93E09197
:1018E000B603F091B7038081E091BC03F091BD0392
:1018F00082FD12C090818091BF038F5F8F73209112
:10190000C003821751F0E091BF03F0E0EA55FC4FAD
:10191000958F8093BF0301C08081FF91EF919F91CC
:101920008F912F910F900FBE0F901F901895CF930E
:10193000DF93282F30E0F901EC55FF4F8491F90136
:10194000EE53FF4FD491F901EA52FF4FC491CC23DB
:1019500091F081110E944402EC2FF0E0EE0FFF1F86
:10196000E656FF4FA591B491EC91ED2381E090E014
:1019700021F480E002C080E090E0DF91CF910895F3
:101980001F93CF93DF93282F30E0F901EC55FF4FE1
:101990008491F901EE53FF4FD491F901EA52FF4FC0
:1019A000C491CC23C9F0162F81110E944402EC2F60
:1019B000F0E0EE0FFF1FE057FF4FA591B4918FB7F6
:1019C000F894111105C09C91ED2FE095E92302C018
:1019D000EC91ED2BEC938FBFDF91CF911F91089588
:1019E000CF92DF92EF92FF920F931F93CF93DF93EB
:1019F0006C017A018B01C0E0D0E0CE15DF0589F0E3
:101A0000D8016D918D01D601ED91FC910190F0818D
:101A1000E02DC6010995892B11F47E0102C02196A3
:101A2000ECCFC701DF91CF911F910F91FF90EF9005
:101A3000DF90CF9008957F928F929F92AF92BF9246
:101A4000CF92DF92EF92FF920F931F93CF93DF938A
:101A5000CDB7DEB7C154D1090FB6F894DEBF0FBEC3
:101A6000CDBFE0905104F0905204E114F10409F468
:101A700014C36C01D7018D919C91892B51F560E0C5
:101A800080E40E94881067E683E30E94881069E181
:101A90008BE30E948810F601808191810E949D1045
:101AA000B701675F7F4FD60112968D919C91139776
:101AB0000E948B0486E00E94800484E00E94970CC0
:101AC000892B09F0F3C285E00E94970C892BA9F3BA
:101AD000EDC281E00E948004E0915104F091520433
:101AE000EE5EFE4F8DE090E091838083E0905104A4
:101AF000F0905204BEEEEB1ABEEFFB0AF7018081B4
:101B000091810D9709F05DC082E10E946E1185FF01
:101B100004C052E0A52EB12C03C0AA24A394B12C7A
:101B200080E10E946E11682F83E122966FAF2297A9
:101B30000E946E11182F22966FAD22978DE00E94A1
:101B4000881060E08AE00E94C00C80E00E94790466
:101B5000612F70E06115710521F0CE0101960E94A0
:101B60005B0461E08AE00E94C00C60EE82E10E94AA
:101B70008810D701AD92BC92E0905104F0905204CD
:101B8000F701808191810197E1F460E080E40E9497
:101B9000881067E683E30E94881069E18BE30E9466
:101BA0008810D6018D919C910E949D10B701675FAE
:101BB0007F4FF601828193810E948B0485E00E9411
:101BC000800460EE82E10E94881060E881E00E945B
:101BD00088104091510450915204FA01EE5EFE4F7C
:101BE00080819181019709F05BC289819A012D5012
:101BF0003F4F682F70E0D9016D937C93803609F4D4
:101C0000B3C130F4803259F0803409F039C2ACC12C
:101C1000803809F4A9C1803A09F032C2A5C1E12E89
:101C2000F12CB1E0EB1AF10834E0F594E7943A9521
:101C3000E1F700E0802F90E0E0915104F091520430
:101C40008E159F059CF4BF0163597F4F24E0880FD8
:101C5000991F2A95E1F70196E1E0F0E0EC0FFD1FF6
:101C60008E0F9F1F0E9410060F5FE4CF0CEFD02E47
:101C7000D10E9F012D503F4FAF0143595F4F6D2D46
:101C8000CE0101960E944E0700915104109152041A
:101C9000ED2CF12CB801645F7E4F44E050E081E010
:101CA00090E08C0F9D1F8E0D9F1D0E94C718892BE1
:101CB00009F0F9C1F801EE5EFE4FA3E0AA2EB12CA7
:101CC000B182A082EA81D801A158BF4FEC937B81F9
:101CD00011967C936C8111966C935D8111965C9347
:101CE0004E8111964C939F8111969C93DF97888526
:101CF0008C93119789858C9311978A858C93119772
:101D00008B858C938C85282F207730E0B4E0359537
:101D10002795BA95E1F7D8015E962C935E978F7060
:101D20005F968C935F978D8590968C93909781E0CA
:101D300092968C9392979396EC93939794967C9328
:101D4000949795966C93959796965C93969797969D
:101D50004C93979798969C939897F801E358FF4F68
:101D60008081F80181A7E258FF4F80819A968C9379
:101D70009A979B961C929B979C961C929C979D96DB
:101D80001C929D979E961C929E979F961C929F9741
:101D9000D0961C92D097D1961C92D197C80182966A
:101DA000D29620E1FC0101900D922A95E1F722E004
:101DB000F80122ABB80163597F4F0E941006809151
:101DC000510490915204BC0163597F4FC2960E9406
:101DD00010068091510490915204FC01E85BFF4F82
:101DE00011821082329711821082FDE0FD1590F170
:101DF00060915104709152046E5B7F4F44E08FE913
:101E000092E00E94DD0A60915104709152046E5D6F
:101E10007F4F40E180EB92E00E94DD0A6091510427
:101E2000709152046E5C7F4F40E186EC92E00E941C
:101E3000DD0A8091510490915204FC01EC5EFE4F4A
:101E40001082EF58F10921E02083E357FF4F8CE027
:101E500090E018C14D2DBE016F5F7F4F80EE92E084
:101E60000E94DD0AC7010E97B5010E949418F62E54
:101E700025E0261710F4F5E0FF2E86EF92E00E9491
:101E800017110E9429118E01005F1F4FE12CEF14E2
:101E900009F4AECFD8012C91822F90E0A0E0B0E001
:101EA000BC0155274427F80132978081482B319691
:101EB00080819A01AB01382BA4E6B0E00E94211783
:101EC0004B015C01DC01CB01815C9E45AD4AB34313
:101ED0008F339244AF40B10508F042C0C090510426
:101EE000D0905204D6015D967C90B5E0B715C0F154
:101EF0008DEF92E00E9417114AE0C501B4010E94E3
:101F00002D11E091A603F091A7030190F081E02D3F
:101F100069E086EA93E00995C501B4010E940618BC
:101F200027ED33E244E752E40E9465170E94D71779
:101F30004B015C014AE00E942D110E942911F6011B
:101F400024E0729EE00DF11D112481869286A38605
:101F5000B486E0915104F0915204858D8F5F858F96
:101F6000E3940D5F1F4F93CFFA01EB50FF4F8D812C
:101F7000808331968C81808331968B8180833196EA
:101F80008A81808331968E8180833196888590E026
:101F9000982F88276F81862B918380837CEFF72E83
:101FA000F10E4E5D5F4F6F2DCE0101960E946908C4
:101FB0000091510410915204B801645F7E4F44E0D7
:101FC00050E081E090E08C0F9D1F8F0D911D0E94CD
:101FD000C718892B31F0F801EE5EFE4F85E090E0E6
:101FE00011C044E050E0B8016E5B7F4FC8018B50D8
:101FF0009F4F0E94C718F801892B39F0EE5EFE4F03
:1020000087E090E0918380836EC0E750FF4F90811E
:102010009F7088E0890FF81651F1E9843396E082C9
:102020008F2D891B27EFF22EF80E7896F08268012B
:102030003BEEC31A3EEFD30A4F2D50E0975F61E0AD
:1020400070E06C0F7D1F690F711DC6010E94D418CE
:1020500098012D503F4FA801E11003C04E5D5F4F26
:1020600002C04E5C5F4F6F2DC6010E940609E091D1
:102070005104F0915204EE5EFE4F8BE090E002C0FE
:1020800088E090E091838083E0915104F0915204C4
:10209000EE5EFE4F8081918126C08FE090E023C0EC
:1020A00082E090E020C084E090E01DC085E00E94C6
:1020B000970C0197A9F460EE82E10E94881079E004
:1020C000A72EB12C84E00E94970C019719F46DE0C3
:1020D000A62EB12CF701EE5EFE4FB182A08206CD96
:1020E000A12CB12CEFCFCF5BDF4F0FB6F894DEBF42
:1020F0000FBECDBFDF91CF911F910F91FF90EF9059
:10210000DF90CF90BF90AF909F908F907F90089579
:10211000CF93DF93D82FC62F60E08AE00E94C00CD7
:102120008D2F80680E9479048C2F0E94790461E0D1
:102130008AE0DF91CF910C94C00CCF93833091054E
:10214000C1F13CF481309105C1F082309105F9F084
:1021500009C08530910509F440C0ACF18730910584
:1021600009F44EC0FC013197E730F10508F05DC07D
:10217000EF5BFF4F64EF0C94A8186FE0C0E001C064
:10218000C1E08FE10E9488106C2F646C09C06FE180
:10219000C0E001C0C1E08FE10E9488106C2F646B29
:1021A0008EE10E94881062E78DE10E9488106CE049
:1021B00038C06EE3C0E001C0C1E08FE10E9488102A
:1021C0006C2F646A18C06DE7C0E001C0C1E08FE108
:1021D0000E9488106C2F64690EC068EEC3E001C0D5
:1021E000C1E08FE10E9488106C2F646804C08FE109
:1021F0000E94881065E78EE10E94881062E70DC09A
:1022000068EEC3E001C0C1E08FE10E9488106C2F2E
:1022100064678EE10E94881062E88DE10E94881058
:1022200064E086E2CF910C948810CF9108950097D6
:1022300069F0FC0101900020E9F73197AF01481BDC
:10224000590BBC0186EA93E00C94F00C80E090E01E
:10225000089584E093E00C9417118F929F92AF92AF
:10226000BF920F931F93CF93DF93CDB7DEB7A197A4
:102270000FB6F894DEBF0FBECDBF19A2423008F4EE
:102280004AE08E010F5D1F4F842E912CA12CB12CA2
:10229000A50194010E943417E62FB901CA0101502B
:1022A0001109EA3014F4E05D01C0E95CD801EC9357
:1022B000232B242B252B61F7C8010E941711A1960F
:1022C0000FB6F894DEBF0FBECDBFDF91CF911F9147
:1022D0000F91BF90AF909F908F900895CF93C82F8C
:1022E00060E08AE00E94C00C8C2F0E94790480E09C
:1022F0000E947904C82F61E08AE00E94C00C8C2FF4
:10230000CF91089591E09093A5039FE69093BC052B
:102310001092A4031092A303682F83E494E00E9418
:102320004E0160E083E494E00E944E018091A3039B
:10233000813208F045C0909182039111FCCF92E068
:102340009093820391E0909381039FEF9093800399
:1023500010927F0380937E03A3E8B3E02EE533E081
:10236000F9019E2F921B981718F49D919193F9CF24
:1023700010925D0380915D038E6D80935D0380916B
:102380005C03813061F410925C0380915D03809363
:10239000BB008091BC0083FDF8CF85EC01C085EEC9
:1023A0008093BC00809182038230E1F380918003AE
:1023B0008F3F31F080918003803211F08091800353
:1023C0001092A4031092A3031092A50308950895F8
:1023D000CF93DF93CDB7DEB768970FB6F894DEBF23
:1023E0000FBECDBF789484B5826084BD84B5816012
:1023F00084BD85B5826085BD85B5816085BD8091D0
:102400006E00816080936E00109281008091810047
:10241000826080938100809181008160809381003F
:10242000809180008160809380008091B100846001
:102430008093B1008091B00081608093B000809162
:102440007A00846080937A0080917A008260809321
:102450007A0080917A00816080937A0080917A007E
:10246000806880937A001092C100E091B603F091E9
:10247000B70382E08083E091B203F091B30310824E
:10248000E091B403F091B5038FEC80831092BE030A
:10249000E091BA03F091BB0386E08083E091B8033A
:1024A000F091B903808180618083E091B803F0915D
:1024B000B903808188608083E091B803F091B9030B
:1024C000808180688083E091B803F091B9038081B6
:1024D0008F7D80831FB7F89480915B03811127C0A3
:1024E000E0EEF0E08491ECECF0E09491E82FF0E085
:1024F000EE0FFF1FE854FF4FA591B491EC91E92333
:1025000021F461E08AE00E94C00C61E08AE00E9450
:102510006D028CB580618CBD8CB580648CBD61E032
:102520008DE00E946D0261E08BE00E946D0280915F
:102530005B038F5F80935B031FBF80E58CBD1DBC79
:1025400060E084E10E946D0260E085E10E946D021E
:1025500061E082E00E946D0260E08EE00E946D0208
:1025600060E083E00E946D0260E084E00E946D0202
:1025700060E085E00E946D0260E086E00E946D02EE
:1025800060E087E00E946D0261E08AE00E946D02D7
:1025900061E088E00E946D0261E089E00E946D02C6
:1025A00060E082E00E94C00C61E088E00E94C00C04
:1025B00068EB7BE080E090E00E94A9021092590352
:1025C000109258031092A4031092A3031092820356
:1025D00081E08093810310925C0361E082E10E94BC
:1025E000C00C61E083E10E94C00C8091B9008E7F35
:1025F0008093B9008091B9008D7F8093B90088E401
:102600008093B80085E48093BC0080915104909140
:102610005204892BE1F080E090E00E94EC16182F24
:1026200061E0680F80E090E00E94F416612F70E096
:1026300080E090E0611571058105910511F00E941F
:10264000E31680915104909152040E94A10560E02C
:1026500088E00E94C00C85E00E94790480E00E941E
:102660007904182F61E088E00E94C00C10FDEFCFC4
:1026700060E088E00E94C00C89EB0E94790461E070
:1026800088E00E94C00C7894ABEEEA2EAAE0FA2E05
:1026900088EA94E0B3E0CB2ED12C13E2A12EB12C2A
:1026A0000BE3802E9924939498E0692E680E27E01E
:1026B000722E780E61E082E00E946D0260E082E09E
:1026C0000E94C00CC7010197F1F760E082E00E9410
:1026D0006D02C7010197F1F70E94FB050E94FB05FF
:1026E0000E94E6050E94E6050E94FB050E94FB058C
:1026F0000E94E6050E94E60508EA14E02801F8E0D9
:102700002F2E21E0312C61E082E0288F0E946D02A3
:1027100060E082E00E94C00CC6010197F1F760E022
:1027200082E00E946D02C5010197F1F782E00E94EC
:10273000970C288D019709F4322A220FC4010197C2
:10274000F1F72A942110DFCFF20131922F016E129E
:10275000D6CF61E082E00E94C00C90E07CE0F801FE
:1027600051918F0148E0852F892780FD02C060E0EC
:1027700001C060E8892F90E09C0135952795922F44
:10278000603821F4822F8068982F97275695415002
:1027900051F77012E4CF8091AF0498138BCF48E0CB
:1027A00068EA74E08EE892E00E94DD0AE09151044C
:1027B000F0915204309709F400C182819381892BF2
:1027C00009F4FBC0EB57FF4F108210E07E01FAE0E6
:1027D000EF0EF11C5E0122E1A20EB11C44244A94CA
:1027E000542C612C712C92E0292ECC24C394D12C32
:1027F00032E0832E912CE0915104F0915204EB577A
:10280000FF4F80818111D9C060E177E280E090E0E4
:102810000E94A90287E792E00E94171133243394A3
:10282000310E612F70E080E090E04AE00E942D11AF
:102830000E942911009151041091520401151105B3
:1028400009F459C0F801EB57FF4F10823C961182F2
:1028500010821982D801AB59BF4FFE0132968E917A
:102860008193EE15FF05D9F7D801A35ABF4FF701A1
:102870008E918193EA15FB05D9F70E94DE16A3011C
:1028800092010E940217F801E358FF4F60833196CE
:1028900070834091510450915204FA01E358FF4F64
:1028A00080818A8B319680818B8B9A012F563F4F86
:1028B00043595F4F63E1CE0101960E944E0740915C
:1028C000510450915204FA01E655FF4F80819181E5
:1028D000A281B3818C8B9D8BAE8BBF8B8A01075FEE
:1028E0001F4FB297208130E047575F4F67E1CE011D
:1028F00001960E943C051092810010928000109277
:1029000085001092840080E89EE390938900809374
:10291000880020926F0089E080938100E09151044B
:10292000F0915204108617828781908584329341FA
:10293000D8F3CF0187579F4F0E941B0DE0915104A0
:10294000F0915204DF01AB57BF4F8C91882319F0EF
:102950001092810032C0878190858C309741D8F3E6
:10296000DF01A157BF4F8DE090E08D939C93CF0185
:1029700083579F4FFC01D182C0820E941B0D109291
:102980008100E0915104F0915204DF01AB57BF4F39
:102990008C91811112C0E557FF4F80819181009782
:1029A00029F0019731F49182808205C0D182C082E2
:1029B00002C011821082132D1ECF87E00E94821167
:1029C00080E00E94821162E08FE00E946D0262E06E
:1029D00080E10E946D0280916C00866080936C00A3
:1029E0008091680082608093680010925A03809101
:1029F0005A03882399F064EF71E080E090E00E9430
:102A0000A9028FE00E94970C892B09F06FC080E12A
:102A10000E94970C892B09F47AC068C086EA93E07B
:102A20000E94110C80917A008F7780937A008091B8
:102A3000640082608093640080916400806280936F
:102A400064008091640088608093640080916400D9
:102A5000806480936400809164008160809364004E
:102A60008091640084608093640080916400806839
:102A70008093640083B7817F846083BFF89483B7B9
:102A8000816083BF85B7806685BF8F7D85BF789461
:102A9000889583B78E7F83BF7894809164008D7F03
:102AA00080936400809164008F7D809364008091A6
:102AB0006400877F80936400809164008F7B8093A3
:102AC0006400809164008E7F809364008091640034
:102AD0008B7F80936400809164008F778093640083
:102AE00080917A00806880937A0081CF8FE00E9485
:102AF000970C892B11F481E007C080E10E94970CAC
:102B0000892B09F072CF82E00E94AD096ECF83E07D
:102B1000FBCFCF93DF931092A9031092A80388EE06
:102B200093E0A0E0B0E08093AA039093AB03A0935E
:102B3000AC03B093AD032BE332E03093A7032093B3
:102B4000A60325EC30E03093B3032093B20324ECCA
:102B500030E03093B5032093B40320EC30E03093A1
:102B6000B7032093B60321EC30E03093B9032093F0
:102B7000B80322EC30E03093BB032093BA0326EC79
:102B800030E03093BD032093BC031092BF0310923A
:102B9000C0031092C1031092C20310924604109217
:102BA00045048093470490934804A0934904B0934C
:102BB0004A048BE492E0909344048093430481E0C0
:102BC00090E09093B1058093B00510925404109258
:102BD0005304909356048093550490935804809323
:102BE00057041092590429E1ECE5F4E0DF011D924D
:102BF0002A95E9F721E02093740433E3E4E0F2E05E
:102C0000A5E7B4E001900D923A95E1F73CE3E8EADC
:102C1000F4E0EF0119923A95E9F730E73093B00408
:102C200033EB3093B10445ED4093B2044EE740934B
:102C3000B30440EF4093B4044EE34093B6044CE039
:102C40004093B7043093C00433E23093C10432ECB4
:102C50003093C2043DEF3093C3043FED3093C4047E
:102C600034E33093C5043BE73093C6043DE330932F
:102C7000C70432EA3093C80434E03093C90432EF19
:102C80003093CA043EE03093CB042093CC042AE373
:102C90002093CD0424EA2093CE0429E52093CF0489
:102CA0002CE037E13093DA042093D9042FE020930D
:102CB000DB0423E030E03093DD042093DC0424E0E7
:102CC00030E03093E1042093E0042DE030E03093D5
:102CD000E3042093E204E4EEF4E022E6DF01C22FF5
:102CE0001D92CA95E9F79093020580930105A6E429
:102CF000B5E0ED0119922A95E9F790936405809368
:102D0000630583E594E090935204809351043097D7
:102D100021F0F0935004E0934F04DF91CF91089598
:102D20008F929F92AF92BF92CF92DF92EF92FF92DB
:102D3000CF93DF93EC01688179818A819B81611552
:102D400071058105910521F464E279ED8BE597E049
:102D50002DE133EF41E050E00E94021749015A0192
:102D60009B01AC01A7EAB1E40E9421176B017C0131
:102D7000ACEEB4EFA50194010E942F17DC01CB014A
:102D80008C0D9D1DAE1DBF1DB7FF03C00197A1098E
:102D9000B04888839983AA83BB83BC01CD019F7708
:102DA000DF91CF91FF90EF90DF90CF90BF90AF90E9
:102DB0009F908F9008950E949016089580E091E072
:102DC0000E94901608956093000170930101809312
:102DD0000201909303010895F999FECF92BD81BD40
:102DE000F89A992780B50895262FF999FECF1FBA32
:102DF00092BD81BD20BD0FB6F894FA9AF99A0FBE24
:102E000001960895052E97FB1EF400940E94191751
:102E100057FD07D00E94341707FC03D04EF40C94E2
:102E2000191750954095309521953F4F4F4F5F4F63
:102E3000089590958095709561957F4F8F4F9F4F26
:102E400008950E945617A59F900DB49F900DA49FC2
:102E5000800D911D11240895B7FF0C9421170E9435
:102E60002117821B930B0895A1E21A2EAA1BBB1BEC
:102E7000FD010DC0AA1FBB1FEE1FFF1FA217B30746
:102E8000E407F50720F0A21BB30BE40BF50B661F5C
:102E9000771F881F991F1A9469F760957095809520
:102EA00090959B01AC01BD01CF010895A29FB00197
:102EB000B39FC001A39F700D811D1124911DB29F6E
:102EC000700D811D1124911D08950E9479170C9495
:102ED0005A180E94531858F00E944C1840F029F4D8
:102EE0005F3F29F00C94431851110C948E180C94E8
:102EF00049180E946B1868F39923B1F3552391F395
:102F0000951B550BBB27AA2762177307840738F058
:102F10009F5F5F4F220F331F441FAA1FA9F335D0B5
:102F20000E2E3AF0E0E832D091505040E695001C69
:102F3000CAF72BD0FE2F29D0660F771F881FBB1F23
:102F4000261737074807AB07B0E809F0BB0B802D01
:102F5000BF01FF2793585F4F3AF09E3F510578F02D
:102F60000C9443180C948E185F3FE4F3983ED4F30E
:102F7000869577956795B795F7959F5FC9F7880F01
:102F8000911D9695879597F90895E1E0660F771F53
:102F9000881FBB1F621773078407BA0720F0621BE4
:102FA000730B840BBA0BEE1F88F7E09508950E940F
:102FB000731888F09F5798F0B92F9927B751B0F040
:102FC000E1F0660F771F881F991F1AF0BA95C9F7AD
:102FD00014C0B13091F00E948D18B1E008950C94A6
:102FE0008D18672F782F8827B85F39F0B93FCCF359
:102FF000869577956795B395D9F73EF4909580952A
:10300000709561957F4F8F4F9F4F0895E89409C049
:1030100097FB3EF490958095709561957F4F8F4F0B
:103020009F4F9923A9F0F92F96E9BB279395F69521
:10303000879577956795B795F111F8CFFAF4BB0F9F
:1030400011F460FF1BC06F5F7F4F8F4F9F4F16C003
:10305000882311F096E911C0772321F09EE8872F8D
:10306000762F05C0662371F096E8862F70E060E049
:103070002AF09A95660F771F881FDAF7880F9695C2
:10308000879597F9089597F99F6780E870E060E069
:1030900008959FEF80EC089500240A9416161706F1
:1030A00018060906089500240A9412161306140639
:1030B00005060895092E0394000C11F4882352F09C
:1030C000BB0F40F4BF2B11F460FF04C06F5F7F4F54
:1030D0008F4F9F4F089557FD9058440F551F59F03B
:1030E0005F3F71F04795880F97FB991F61F09F3FF5
:1030F00079F087950895121613061406551FF2CF1E
:103100004695F1DF08C0161617061806991FF1CF6D
:1031100086957105610508940895E894BB27662794
:103120007727CB0197F9089597FB072E16F40094A3
:1031300007D077FD09D00E94AE1807FC05D03EF4F9
:10314000909581959F4F0895709561957F4F089553
:10315000EE0FFF1F0590F491E02D0994AA1BBB1BF5
:1031600051E107C0AA1FBB1FA617B70710F0A61B87
:10317000B70B881F991F5A95A9F780959095BC01A8
:10318000CD01089581E090E0F8940C94DD18FB01E6
:10319000DC0104C08D910190801921F44150504010
:1031A000C8F7881B990B0895FB01DC0102C0019050
:1031B0000D9241505040D8F7089510E0C6E7D0E096
:1031C00004C0FE010E94A8182196C737D107C9F78D
:0431D000F894FFCFA1
:1031D40001000000637C777BF26B6FC53001672BC5
:1031E400FED7AB76CA82C97DFA5947F0ADD4A2AFF7
:1031F4009CA472C0B7FD9326363FF7CC34A5E5F105
:1032040071D8311504C723C31896059A071280E2B2
:10321400EB27B27509832C1A1B6E5AA0523BD6B306
:1032240029E32F8453D100ED20FCB15B6ACBBE3976
:103234004A4C58CFD0EFAAFB434D338545F9027F62
:10324400503C9FA851A3408F929D38F5BCB6DA211B
:1032540010FFF3D2CD0C13EC5F974417C4A77E3D47
:10326400645D197360814FDC222A908846EEB8149D
:10327400DE5E0BDBE0323A0A4906245CC2D3AC6260
:103284009195E479E7C8376D8DD54EA96C56F4EA6B
:10329400657AAE08BA78252E1CA6B4C6E8DD741F7C
:1032A4004BBD8B8A703EB5664803F60E613557B93F
:1032B40086C11D9EE1F8981169D98E949B1E87E9F9
:1032C400CE5528DF8CA1890DBFE6426841992D0FA8
:1032D400B054BB162B7E151628AED2A6ABF71588B4
:1032E40009CF4F3C2B7E151628AED2A6ABF7158816
:1032F40009CF4F3C3A123456000000006C070F040B
:1033040000000004000D0000000000CA0BF00C9344
:103314000B710B850B110C000000004E011E0116F1
:10332400010701F900F800427574746F6E206D6531
:1033340073736167652076616C75653A200020625D
:10334400797465733B200053656E64696E67204A27
:103354006F696E20526571756573743A2000445329
:103364003234303120444556204555493A200044F2
:10337400657669636520416464726573733A2000FD
:103384004E6574776F726B2053657373696F6E202B
:103394004B65793A20004170706C69636174696FA0
:1033A4006E2053657373696F6E204B65793A200004
:1033B4004A6F696E20416363657074204D65737351
:1033C4006167653A200043466C6973740046726510
:0833D400713A20000D0A00000F
:00000001FF
